{
  "contracts/ETHTrackerNFT.sol": {
    "ETHTrackerNFT": {
      "abi": [
        {
          "anonymous": false,
          "inputs": [
            {
              "indexed": true,
              "internalType": "address",
              "name": "owner",
              "type": "address"
            },
            {
              "indexed": true,
              "internalType": "address",
              "name": "approved",
              "type": "address"
            },
            {
              "indexed": true,
              "internalType": "uint256",
              "name": "tokenId",
              "type": "uint256"
            }
          ],
          "name": "Approval",
          "type": "event"
        },
        {
          "anonymous": false,
          "inputs": [
            {
              "indexed": true,
              "internalType": "address",
              "name": "owner",
              "type": "address"
            },
            {
              "indexed": true,
              "internalType": "address",
              "name": "operator",
              "type": "address"
            },
            {
              "indexed": false,
              "internalType": "bool",
              "name": "approved",
              "type": "bool"
            }
          ],
          "name": "ApprovalForAll",
          "type": "event"
        },
        {
          "anonymous": false,
          "inputs": [
            {
              "indexed": true,
              "internalType": "address",
              "name": "from",
              "type": "address"
            },
            {
              "indexed": true,
              "internalType": "address",
              "name": "to",
              "type": "address"
            },
            {
              "indexed": true,
              "internalType": "uint256",
              "name": "tokenId",
              "type": "uint256"
            }
          ],
          "name": "Transfer",
          "type": "event"
        },
        {
          "inputs": [
            {
              "internalType": "address",
              "name": "to",
              "type": "address"
            },
            {
              "internalType": "uint256",
              "name": "tokenId",
              "type": "uint256"
            }
          ],
          "name": "approve",
          "outputs": [],
          "stateMutability": "nonpayable",
          "type": "function"
        },
        {
          "inputs": [
            {
              "internalType": "address",
              "name": "owner",
              "type": "address"
            }
          ],
          "name": "balanceOf",
          "outputs": [
            {
              "internalType": "uint256",
              "name": "",
              "type": "uint256"
            }
          ],
          "stateMutability": "view",
          "type": "function"
        },
        {
          "inputs": [
            {
              "internalType": "bytes",
              "name": "checkData",
              "type": "bytes"
            }
          ],
          "name": "checkUpkeep",
          "outputs": [
            {
              "internalType": "bool",
              "name": "upkeepNeeded",
              "type": "bool"
            },
            {
              "internalType": "bytes",
              "name": "performData",
              "type": "bytes"
            }
          ],
          "stateMutability": "view",
          "type": "function"
        },
        {
          "inputs": [
            {
              "internalType": "uint256",
              "name": "tokenId",
              "type": "uint256"
            }
          ],
          "name": "getApproved",
          "outputs": [
            {
              "internalType": "address",
              "name": "",
              "type": "address"
            }
          ],
          "stateMutability": "view",
          "type": "function"
        },
        {
          "inputs": [
            {
              "internalType": "string",
              "name": "baseURI",
              "type": "string"
            },
            {
              "internalType": "address",
              "name": "priceFeedOracle",
              "type": "address"
            }
          ],
          "name": "initialize",
          "outputs": [],
          "stateMutability": "nonpayable",
          "type": "function"
        },
        {
          "inputs": [
            {
              "internalType": "address",
              "name": "owner",
              "type": "address"
            },
            {
              "internalType": "address",
              "name": "operator",
              "type": "address"
            }
          ],
          "name": "isApprovedForAll",
          "outputs": [
            {
              "internalType": "bool",
              "name": "",
              "type": "bool"
            }
          ],
          "stateMutability": "view",
          "type": "function"
        },
        {
          "inputs": [],
          "name": "latestDateChecked",
          "outputs": [
            {
              "internalType": "uint256",
              "name": "",
              "type": "uint256"
            }
          ],
          "stateMutability": "view",
          "type": "function"
        },
        {
          "inputs": [],
          "name": "latestPrice",
          "outputs": [
            {
              "internalType": "int256",
              "name": "",
              "type": "int256"
            }
          ],
          "stateMutability": "view",
          "type": "function"
        },
        {
          "inputs": [],
          "name": "name",
          "outputs": [
            {
              "internalType": "string",
              "name": "",
              "type": "string"
            }
          ],
          "stateMutability": "view",
          "type": "function"
        },
        {
          "inputs": [
            {
              "internalType": "uint256",
              "name": "tokenId",
              "type": "uint256"
            }
          ],
          "name": "ownerOf",
          "outputs": [
            {
              "internalType": "address",
              "name": "",
              "type": "address"
            }
          ],
          "stateMutability": "view",
          "type": "function"
        },
        {
          "inputs": [
            {
              "internalType": "bytes",
              "name": "performData",
              "type": "bytes"
            }
          ],
          "name": "performUpkeep",
          "outputs": [],
          "stateMutability": "nonpayable",
          "type": "function"
        },
        {
          "inputs": [
            {
              "internalType": "address",
              "name": "from",
              "type": "address"
            },
            {
              "internalType": "address",
              "name": "to",
              "type": "address"
            },
            {
              "internalType": "uint256",
              "name": "tokenId",
              "type": "uint256"
            }
          ],
          "name": "safeTransferFrom",
          "outputs": [],
          "stateMutability": "nonpayable",
          "type": "function"
        },
        {
          "inputs": [
            {
              "internalType": "address",
              "name": "from",
              "type": "address"
            },
            {
              "internalType": "address",
              "name": "to",
              "type": "address"
            },
            {
              "internalType": "uint256",
              "name": "tokenId",
              "type": "uint256"
            },
            {
              "internalType": "bytes",
              "name": "_data",
              "type": "bytes"
            }
          ],
          "name": "safeTransferFrom",
          "outputs": [],
          "stateMutability": "nonpayable",
          "type": "function"
        },
        {
          "inputs": [
            {
              "internalType": "address",
              "name": "operator",
              "type": "address"
            },
            {
              "internalType": "bool",
              "name": "approved",
              "type": "bool"
            }
          ],
          "name": "setApprovalForAll",
          "outputs": [],
          "stateMutability": "nonpayable",
          "type": "function"
        },
        {
          "inputs": [
            {
              "internalType": "bytes4",
              "name": "interfaceId",
              "type": "bytes4"
            }
          ],
          "name": "supportsInterface",
          "outputs": [
            {
              "internalType": "bool",
              "name": "",
              "type": "bool"
            }
          ],
          "stateMutability": "view",
          "type": "function"
        },
        {
          "inputs": [],
          "name": "symbol",
          "outputs": [
            {
              "internalType": "string",
              "name": "",
              "type": "string"
            }
          ],
          "stateMutability": "view",
          "type": "function"
        },
        {
          "inputs": [
            {
              "internalType": "uint256",
              "name": "tokenId",
              "type": "uint256"
            }
          ],
          "name": "tokenURI",
          "outputs": [
            {
              "internalType": "string",
              "name": "",
              "type": "string"
            }
          ],
          "stateMutability": "view",
          "type": "function"
        },
        {
          "inputs": [
            {
              "internalType": "address",
              "name": "from",
              "type": "address"
            },
            {
              "internalType": "address",
              "name": "to",
              "type": "address"
            },
            {
              "internalType": "uint256",
              "name": "tokenId",
              "type": "uint256"
            }
          ],
          "name": "transferFrom",
          "outputs": [],
          "stateMutability": "nonpayable",
          "type": "function"
        },
        {
          "inputs": [],
          "name": "trend",
          "outputs": [
            {
              "internalType": "int16",
              "name": "",
              "type": "int16"
            }
          ],
          "stateMutability": "view",
          "type": "function"
        },
        {
          "inputs": [],
          "name": "updatePrice",
          "outputs": [],
          "stateMutability": "nonpayable",
          "type": "function"
        }
      ],
      "evm": {
        "bytecode": {
          "linkReferences": {},
          "object": "608060405234801561001057600080fd5b50613f7e806100206000396000f3fe608060405234801561001057600080fd5b506004361061012c5760003560e01c80636e04ff0d116100ad578063a3e6ba9411610071578063a3e6ba941461032e578063b85fcc351461034c578063b88d4fde1461036a578063c87b56dd14610386578063e985e9c5146103b65761012c565b80636e04ff0d1461027757806370a08231146102a85780637ab4339d146102d857806395d89b41146102f4578063a22cb465146103125761012c565b80633325c025116100f45780633325c025146101e757806342842e0e146102055780634585e33b146102215780636352211e1461023d578063673a7e281461026d5761012c565b806301ffc9a71461013157806306fdde0314610161578063081812fc1461017f578063095ea7b3146101af57806323b872dd146101cb575b600080fd5b61014b60048036038101906101469190612ca0565b6103e6565b6040516101589190613253565b60405180910390f35b6101696104c8565b60405161017691906132d4565b60405180910390f35b61019960048036038101906101949190612d8b565b61055a565b6040516101a691906131ec565b60405180910390f35b6101c960048036038101906101c49190612c64565b6105df565b005b6101e560048036038101906101e09190612b5e565b6106f7565b005b6101ef610757565b6040516101fc91906134f6565b60405180910390f35b61021f600480360381019061021a9190612b5e565b61075d565b005b61023b60048036038101906102369190612cf2565b61077d565b005b61025760048036038101906102529190612d8b565b610789565b60405161026491906131ec565b60405180910390f35b61027561083b565b005b610291600480360381019061028c9190612cf2565b611289565b60405161029f92919061326e565b60405180910390f35b6102c260048036038101906102bd9190612af9565b61131e565b6040516102cf91906134f6565b60405180910390f35b6102f260048036038101906102ed9190612d37565b6113d6565b005b6102fc6115af565b60405161030991906132d4565b60405180910390f35b61032c60048036038101906103279190612c28565b611641565b005b6103366117c2565b60405161034391906132b9565b60405180910390f35b6103546117c8565b604051610361919061329e565b60405180910390f35b610384600480360381019061037f9190612bad565b6117db565b005b6103a0600480360381019061039b9190612d8b565b61183d565b6040516103ad91906132d4565b60405180910390f35b6103d060048036038101906103cb9190612b22565b6118fb565b6040516103dd9190613253565b60405180910390f35b60007f80ac58cd000000000000000000000000000000000000000000000000000000007bffffffffffffffffffffffffffffffffffffffffffffffffffffffff1916827bffffffffffffffffffffffffffffffffffffffffffffffffffffffff191614806104b157507f5b5e139f000000000000000000000000000000000000000000000000000000007bffffffffffffffffffffffffffffffffffffffffffffffffffffffff1916827bffffffffffffffffffffffffffffffffffffffffffffffffffffffff1916145b806104c157506104c08261198f565b5b9050919050565b6060606580546104d79061386b565b80601f01602080910402602001604051908101604052809291908181526020018280546105039061386b565b80156105505780601f1061052557610100808354040283529160200191610550565b820191906000526020600020905b81548152906001019060200180831161053357829003601f168201915b5050505050905090565b6000610565826119f9565b6105a4576040517f08c379a000000000000000000000000000000000000000000000000000000000815260040161059b90613476565b60405180910390fd5b6069600083815260200190815260200160002060009054906101000a900473ffffffffffffffffffffffffffffffffffffffff169050919050565b60006105ea82610789565b90508073ffffffffffffffffffffffffffffffffffffffff168373ffffffffffffffffffffffffffffffffffffffff16141561065b576040517f08c379a0000000000000000000000000000000000000000000000000000000008152600401610652906134b6565b60405180910390fd5b8073ffffffffffffffffffffffffffffffffffffffff1661067a611a65565b73ffffffffffffffffffffffffffffffffffffffff1614806106a957506106a8816106a3611a65565b6118fb565b5b6106e8576040517f08c379a00000000000000000000000000000000000000000000000000000000081526004016106df906133d6565b60405180910390fd5b6106f28383611a6d565b505050565b610708610702611a65565b82611b26565b610747576040517f08c379a000000000000000000000000000000000000000000000000000000000815260040161073e906134d6565b60405180910390fd5b610752838383611c04565b505050565b609a5481565b610778838383604051806020016040528060008152506117db565b505050565b61078561083b565b5050565b6000806067600084815260200190815260200160002060009054906101000a900473ffffffffffffffffffffffffffffffffffffffff169050600073ffffffffffffffffffffffffffffffffffffffff168173ffffffffffffffffffffffffffffffffffffffff161415610832576040517f08c379a000000000000000000000000000000000000000000000000000000000815260040161082990613416565b60405180910390fd5b80915050919050565b600080610846611e60565b91509150600061085582611f24565b9050609a5481141561089c576040517f08c379a0000000000000000000000000000000000000000000000000000000008152600401610893906133b6565b60405180910390fd5b600060995490506000609a5490506000620151809050600083876108c09190613677565b1315610b3b578063ffffffff16846108d8919061370b565b821415610961576000609b60009054906101000a900460010b60010b1361091e576001609b60006101000a81548161ffff021916908360010b61ffff160217905561095b565b609b600081819054906101000a900460010b8092919061093d906138ce565b91906101000a81548161ffff021916908360010b61ffff1602179055505b50610983565b6001609b60006101000a81548161ffff021916908360010b61ffff1602179055505b6501d1a94a200086126109e6576006609760146101000a81548160ff021916908360068111156109dc577f4e487b7100000000000000000000000000000000000000000000000000000000600052602160045260246000fd5b0217905550610b36565b6005609b60009054906101000a900460010b60010b12610a56576002609760146101000a81548160ff02191690836006811115610a4c577f4e487b7100000000000000000000000000000000000000000000000000000000600052602160045260246000fd5b0217905550610b35565b6002609b60009054906101000a900460010b60010b12610ac6576001609760146101000a81548160ff02191690836006811115610abc577f4e487b7100000000000000000000000000000000000000000000000000000000600052602160045260246000fd5b0217905550610b34565b6001609b60009054906101000a900460010b60010b1415610b33576000609760146101000a81548160ff02191690836006811115610b2d577f4e487b7100000000000000000000000000000000000000000000000000000000600052602160045260246000fd5b02179055505b5b5b5b611273565b60008387610b499190613677565b1215610e5f578063ffffffff1684610b61919061370b565b821415610c09576000609b60009054906101000a900460010b60010b12610bc6577fffffffffffffffffffffffffffffffffffffffffffffffffffffffffffffffff609b60006101000a81548161ffff021916908360010b61ffff1602179055610c03565b609b600081819054906101000a900460010b80929190610be590613822565b91906101000a81548161ffff021916908360010b61ffff1602179055505b50610c4a565b7fffffffffffffffffffffffffffffffffffffffffffffffffffffffffffffffff609b60006101000a81548161ffff021916908360010b61ffff1602179055505b6501d1a94a20008612610cad576006609760146101000a81548160ff02191690836006811115610ca3577f4e487b7100000000000000000000000000000000000000000000000000000000600052602160045260246000fd5b0217905550610e5a565b7ffffffffffffffffffffffffffffffffffffffffffffffffffffffffffffffffb609b60009054906101000a900460010b60010b13610d3c576005609760146101000a81548160ff02191690836006811115610d32577f4e487b7100000000000000000000000000000000000000000000000000000000600052602160045260246000fd5b0217905550610e59565b7ffffffffffffffffffffffffffffffffffffffffffffffffffffffffffffffffe609b60009054906101000a900460010b60010b13610dcb576004609760146101000a81548160ff02191690836006811115610dc1577f4e487b7100000000000000000000000000000000000000000000000000000000600052602160045260246000fd5b0217905550610e58565b7fffffffffffffffffffffffffffffffffffffffffffffffffffffffffffffffff609b60009054906101000a900460010b60010b1415610e57576003609760146101000a81548160ff02191690836006811115610e51577f4e487b7100000000000000000000000000000000000000000000000000000000600052602160045260246000fd5b02179055505b5b5b5b611272565b60008387610e6d9190613677565b1415611271578063ffffffff1684610e85919061370b565b8214611270576000609b60009054906101000a900460010b60010b13610ee9577fffffffffffffffffffffffffffffffffffffffffffffffffffffffffffffffff609b60006101000a81548161ffff021916908360010b61ffff1602179055610f0a565b6001609b60006101000a81548161ffff021916908360010b61ffff16021790555b506501d1a94a20008612610f6e576006609760146101000a81548160ff02191690836006811115610f64577f4e487b7100000000000000000000000000000000000000000000000000000000600052602160045260246000fd5b021790555061126f565b6005609b60009054906101000a900460010b60010b12610fde576002609760146101000a81548160ff02191690836006811115610fd4577f4e487b7100000000000000000000000000000000000000000000000000000000600052602160045260246000fd5b021790555061126e565b6002609b60009054906101000a900460010b60010b1261104e576001609760146101000a81548160ff02191690836006811115611044577f4e487b7100000000000000000000000000000000000000000000000000000000600052602160045260246000fd5b021790555061126d565b6001609b60009054906101000a900460010b60010b14156110bf576000609760146101000a81548160ff021916908360068111156110b5577f4e487b7100000000000000000000000000000000000000000000000000000000600052602160045260246000fd5b021790555061126c565b7ffffffffffffffffffffffffffffffffffffffffffffffffffffffffffffffffb609b60009054906101000a900460010b60010b1361114e576005609760146101000a81548160ff02191690836006811115611144577f4e487b7100000000000000000000000000000000000000000000000000000000600052602160045260246000fd5b021790555061126b565b7ffffffffffffffffffffffffffffffffffffffffffffffffffffffffffffffffe609b60009054906101000a900460010b60010b136111dd576004609760146101000a81548160ff021916908360068111156111d3577f4e487b7100000000000000000000000000000000000000000000000000000000600052602160045260246000fd5b021790555061126a565b7fffffffffffffffffffffffffffffffffffffffffffffffffffffffffffffffff609b60009054906101000a900460010b60010b1415611269576003609760146101000a81548160ff02191690836006811115611263577f4e487b7100000000000000000000000000000000000000000000000000000000600052602160045260246000fd5b02179055505b5b5b5b5b5b5b5b5b5b5b8560998190555083609a81905550505050505050565b600060606000620151809050600061129f611e60565b9150508163ffffffff16609a546112b691906135f0565b8110156112c75760009350836112cd565b60019350835b5085858080601f016020809104026020016040519081016040528093929190818152602001838380828437600081840152601f19601f82011690508083019250505050505050925050509250929050565b60008073ffffffffffffffffffffffffffffffffffffffff168273ffffffffffffffffffffffffffffffffffffffff16141561138f576040517f08c379a0000000000000000000000000000000000000000000000000000000008152600401611386906133f6565b60405180910390fd5b606860008373ffffffffffffffffffffffffffffffffffffffff1673ffffffffffffffffffffffffffffffffffffffff168152602001908152602001600020549050919050565b600060019054906101000a900460ff16806113fc575060008054906101000a900460ff16155b61143b576040517f08c379a000000000000000000000000000000000000000000000000000000000815260040161143290613436565b60405180910390fd5b60008060019054906101000a900460ff16159050801561148b576001600060016101000a81548160ff02191690831515021790555060016000806101000a81548160ff0219169083151502179055505b6114ff6040518060400160405280600d81526020017f455448547261636b65724e4654000000000000000000000000000000000000008152506040518060400160405280600381526020017f45544e0000000000000000000000000000000000000000000000000000000000815250611f5e565b8260989080519060200190611515929190612894565b5081609760006101000a81548173ffffffffffffffffffffffffffffffffffffffff021916908373ffffffffffffffffffffffffffffffffffffffff160217905550611562336000612053565b60008061156d611e60565b915091508160998190555061158181611f24565b609a81905550505080156115aa5760008060016101000a81548160ff0219169083151502179055505b505050565b6060606680546115be9061386b565b80601f01602080910402602001604051908101604052809291908181526020018280546115ea9061386b565b80156116375780601f1061160c57610100808354040283529160200191611637565b820191906000526020600020905b81548152906001019060200180831161161a57829003601f168201915b5050505050905090565b611649611a65565b73ffffffffffffffffffffffffffffffffffffffff168273ffffffffffffffffffffffffffffffffffffffff1614156116b7576040517f08c379a00000000000000000000000000000000000000000000000000000000081526004016116ae90613356565b60405180910390fd5b80606a60006116c4611a65565b73ffffffffffffffffffffffffffffffffffffffff1673ffffffffffffffffffffffffffffffffffffffff16815260200190815260200160002060008473ffffffffffffffffffffffffffffffffffffffff1673ffffffffffffffffffffffffffffffffffffffff16815260200190815260200160002060006101000a81548160ff0219169083151502179055508173ffffffffffffffffffffffffffffffffffffffff16611771611a65565b73ffffffffffffffffffffffffffffffffffffffff167f17307eab39ab6107e8899845ad3d59bd9653f200f220920489ca2b5937696c31836040516117b69190613253565b60405180910390a35050565b60995481565b609b60009054906101000a900460010b81565b6117ec6117e6611a65565b83611b26565b61182b576040517f08c379a0000000000000000000000000000000000000000000000000000000008152600401611822906134d6565b60405180910390fd5b61183784848484612221565b50505050565b606060008214611882576040517f08c379a000000000000000000000000000000000000000000000000000000000815260040161187990613396565b60405180910390fd5b60986118d4609760149054906101000a900460ff1660068111156118cf577f4e487b7100000000000000000000000000000000000000000000000000000000600052602160045260246000fd5b61227d565b6040516020016118e59291906131c8565b6040516020818303038152906040529050919050565b6000606a60008473ffffffffffffffffffffffffffffffffffffffff1673ffffffffffffffffffffffffffffffffffffffff16815260200190815260200160002060008373ffffffffffffffffffffffffffffffffffffffff1673ffffffffffffffffffffffffffffffffffffffff16815260200190815260200160002060009054906101000a900460ff16905092915050565b60007f01ffc9a7000000000000000000000000000000000000000000000000000000007bffffffffffffffffffffffffffffffffffffffffffffffffffffffff1916827bffffffffffffffffffffffffffffffffffffffffffffffffffffffff1916149050919050565b60008073ffffffffffffffffffffffffffffffffffffffff166067600084815260200190815260200160002060009054906101000a900473ffffffffffffffffffffffffffffffffffffffff1673ffffffffffffffffffffffffffffffffffffffff1614159050919050565b600033905090565b816069600083815260200190815260200160002060006101000a81548173ffffffffffffffffffffffffffffffffffffffff021916908373ffffffffffffffffffffffffffffffffffffffff160217905550808273ffffffffffffffffffffffffffffffffffffffff16611ae083610789565b73ffffffffffffffffffffffffffffffffffffffff167f8c5be1e5ebec7d5bd14f71427d1e84f3dd0314c0f7b2291e5b200ac8c7c3b92560405160405180910390a45050565b6000611b31826119f9565b611b70576040517f08c379a0000000000000000000000000000000000000000000000000000000008152600401611b6790613376565b60405180910390fd5b6000611b7b83610789565b90508073ffffffffffffffffffffffffffffffffffffffff168473ffffffffffffffffffffffffffffffffffffffff161480611bea57508373ffffffffffffffffffffffffffffffffffffffff16611bd28461055a565b73ffffffffffffffffffffffffffffffffffffffff16145b80611bfb5750611bfa81856118fb565b5b91505092915050565b8273ffffffffffffffffffffffffffffffffffffffff16611c2482610789565b73ffffffffffffffffffffffffffffffffffffffff1614611c7a576040517f08c379a0000000000000000000000000000000000000000000000000000000008152600401611c7190613496565b60405180910390fd5b600073ffffffffffffffffffffffffffffffffffffffff168273ffffffffffffffffffffffffffffffffffffffff161415611cea576040517f08c379a0000000000000000000000000000000000000000000000000000000008152600401611ce190613336565b60405180910390fd5b611cf583838361242a565b611d00600082611a6d565b6001606860008573ffffffffffffffffffffffffffffffffffffffff1673ffffffffffffffffffffffffffffffffffffffff1681526020019081526020016000206000828254611d50919061370b565b925050819055506001606860008473ffffffffffffffffffffffffffffffffffffffff1673ffffffffffffffffffffffffffffffffffffffff1681526020019081526020016000206000828254611da791906135f0565b92505081905550816067600083815260200190815260200160002060006101000a81548173ffffffffffffffffffffffffffffffffffffffff021916908373ffffffffffffffffffffffffffffffffffffffff160217905550808273ffffffffffffffffffffffffffffffffffffffff168473ffffffffffffffffffffffffffffffffffffffff167fddf252ad1be2c89b69c2b068fc378daa952ba7f163c4a11628f55a4df523b3ef60405160405180910390a4505050565b6000806000806000806000609760009054906101000a900473ffffffffffffffffffffffffffffffffffffffff1673ffffffffffffffffffffffffffffffffffffffff1663feaf968c6040518163ffffffff1660e01b815260040160a06040518083038186803b158015611ed357600080fd5b505afa158015611ee7573d6000803e3d6000fd5b505050506040513d601f19601f82011682018060405250810190611f0b9190612db4565b9450945094509450945083829650965050505050509091565b60008062015180905060008163ffffffff1684611f419190613942565b905060008185611f51919061370b565b9050809350505050919050565b600060019054906101000a900460ff1680611f84575060008054906101000a900460ff16155b611fc3576040517f08c379a0000000000000000000000000000000000000000000000000000000008152600401611fba90613436565b60405180910390fd5b60008060019054906101000a900460ff161590508015612013576001600060016101000a81548160ff02191690831515021790555060016000806101000a81548160ff0219169083151502179055505b61201b61242f565b612023612508565b61202d83836125e1565b801561204e5760008060016101000a81548160ff0219169083151502179055505b505050565b600073ffffffffffffffffffffffffffffffffffffffff168273ffffffffffffffffffffffffffffffffffffffff1614156120c3576040517f08c379a00000000000000000000000000000000000000000000000000000000081526004016120ba90613456565b60405180910390fd5b6120cc816119f9565b1561210c576040517f08c379a000000000000000000000000000000000000000000000000000000000815260040161210390613316565b60405180910390fd5b6121186000838361242a565b6001606860008473ffffffffffffffffffffffffffffffffffffffff1673ffffffffffffffffffffffffffffffffffffffff168152602001908152602001600020600082825461216891906135f0565b92505081905550816067600083815260200190815260200160002060006101000a81548173ffffffffffffffffffffffffffffffffffffffff021916908373ffffffffffffffffffffffffffffffffffffffff160217905550808273ffffffffffffffffffffffffffffffffffffffff16600073ffffffffffffffffffffffffffffffffffffffff167fddf252ad1be2c89b69c2b068fc378daa952ba7f163c4a11628f55a4df523b3ef60405160405180910390a45050565b61222c848484611c04565b612238848484846126ea565b612277576040517f08c379a000000000000000000000000000000000000000000000000000000000815260040161226e906132f6565b60405180910390fd5b50505050565b606060008214156122c5576040518060400160405280600181526020017f30000000000000000000000000000000000000000000000000000000000000008152509050612425565b600082905060005b600082146122f75780806122e0906138f9565b915050600a826122f09190613646565b91506122cd565b60008167ffffffffffffffff811115612339577f4e487b7100000000000000000000000000000000000000000000000000000000600052604160045260246000fd5b6040519080825280601f01601f19166020018201604052801561236b5781602001600182028036833780820191505090505b5090505b6000851461241e57600182612384919061370b565b9150600a856123939190613942565b603061239f91906135f0565b60f81b8183815181106123db577f4e487b7100000000000000000000000000000000000000000000000000000000600052603260045260246000fd5b60200101907effffffffffffffffffffffffffffffffffffffffffffffffffffffffffffff1916908160001a905350600a856124179190613646565b945061236f565b8093505050505b919050565b505050565b600060019054906101000a900460ff1680612455575060008054906101000a900460ff16155b612494576040517f08c379a000000000000000000000000000000000000000000000000000000000815260040161248b90613436565b60405180910390fd5b60008060019054906101000a900460ff1615905080156124e4576001600060016101000a81548160ff02191690831515021790555060016000806101000a81548160ff0219169083151502179055505b80156125055760008060016101000a81548160ff0219169083151502179055505b50565b600060019054906101000a900460ff168061252e575060008054906101000a900460ff16155b61256d576040517f08c379a000000000000000000000000000000000000000000000000000000000815260040161256490613436565b60405180910390fd5b60008060019054906101000a900460ff1615905080156125bd576001600060016101000a81548160ff02191690831515021790555060016000806101000a81548160ff0219169083151502179055505b80156125de5760008060016101000a81548160ff0219169083151502179055505b50565b600060019054906101000a900460ff1680612607575060008054906101000a900460ff16155b612646576040517f08c379a000000000000000000000000000000000000000000000000000000000815260040161263d90613436565b60405180910390fd5b60008060019054906101000a900460ff161590508015612696576001600060016101000a81548160ff02191690831515021790555060016000806101000a81548160ff0219169083151502179055505b82606590805190602001906126ac929190612894565b5081606690805190602001906126c3929190612894565b5080156126e55760008060016101000a81548160ff0219169083151502179055505b505050565b600061270b8473ffffffffffffffffffffffffffffffffffffffff16612881565b15612874578373ffffffffffffffffffffffffffffffffffffffff1663150b7a02612734611a65565b8786866040518563ffffffff1660e01b81526004016127569493929190613207565b602060405180830381600087803b15801561277057600080fd5b505af19250505080156127a157506040513d601f19601f8201168201806040525081019061279e9190612cc9565b60015b612824573d80600081146127d1576040519150601f19603f3d011682016040523d82523d6000602084013e6127d6565b606091505b5060008151141561281c576040517f08c379a0000000000000000000000000000000000000000000000000000000008152600401612813906132f6565b60405180910390fd5b805181602001fd5b63150b7a0260e01b7bffffffffffffffffffffffffffffffffffffffffffffffffffffffff1916817bffffffffffffffffffffffffffffffffffffffffffffffffffffffff191614915050612879565b600190505b949350505050565b600080823b905060008111915050919050565b8280546128a09061386b565b90600052602060002090601f0160209004810192826128c25760008555612909565b82601f106128db57805160ff1916838001178555612909565b82800160010185558215612909579182015b828111156129085782518255916020019190600101906128ed565b5b509050612916919061291a565b5090565b5b8082111561293357600081600090555060010161291b565b5090565b600061294a61294584613536565b613511565b90508281526020810184848401111561296257600080fd5b61296d8482856137e0565b509392505050565b600061298861298384613567565b613511565b9050828152602081018484840111156129a057600080fd5b6129ab8482856137e0565b509392505050565b6000813590506129c281613ebe565b92915050565b6000813590506129d781613ed5565b92915050565b6000813590506129ec81613eec565b92915050565b600081519050612a0181613eec565b92915050565b60008083601f840112612a1957600080fd5b8235905067ffffffffffffffff811115612a3257600080fd5b602083019150836001820283011115612a4a57600080fd5b9250929050565b600082601f830112612a6257600080fd5b8135612a72848260208601612937565b91505092915050565b600081519050612a8a81613f03565b92915050565b600082601f830112612aa157600080fd5b8135612ab1848260208601612975565b91505092915050565b600081359050612ac981613f1a565b92915050565b600081519050612ade81613f1a565b92915050565b600081519050612af381613f31565b92915050565b600060208284031215612b0b57600080fd5b6000612b19848285016129b3565b91505092915050565b60008060408385031215612b3557600080fd5b6000612b43858286016129b3565b9250506020612b54858286016129b3565b9150509250929050565b600080600060608486031215612b7357600080fd5b6000612b81868287016129b3565b9350506020612b92868287016129b3565b9250506040612ba386828701612aba565b9150509250925092565b60008060008060808587031215612bc357600080fd5b6000612bd1878288016129b3565b9450506020612be2878288016129b3565b9350506040612bf387828801612aba565b925050606085013567ffffffffffffffff811115612c1057600080fd5b612c1c87828801612a51565b91505092959194509250565b60008060408385031215612c3b57600080fd5b6000612c49858286016129b3565b9250506020612c5a858286016129c8565b9150509250929050565b60008060408385031215612c7757600080fd5b6000612c85858286016129b3565b9250506020612c9685828601612aba565b9150509250929050565b600060208284031215612cb257600080fd5b6000612cc0848285016129dd565b91505092915050565b600060208284031215612cdb57600080fd5b6000612ce9848285016129f2565b91505092915050565b60008060208385031215612d0557600080fd5b600083013567ffffffffffffffff811115612d1f57600080fd5b612d2b85828601612a07565b92509250509250929050565b60008060408385031215612d4a57600080fd5b600083013567ffffffffffffffff811115612d6457600080fd5b612d7085828601612a90565b9250506020612d81858286016129b3565b9150509250929050565b600060208284031215612d9d57600080fd5b6000612dab84828501612aba565b91505092915050565b600080600080600060a08688031215612dcc57600080fd5b6000612dda88828901612ae4565b9550506020612deb88828901612a7b565b9450506040612dfc88828901612acf565b9350506060612e0d88828901612acf565b9250506080612e1e88828901612ae4565b9150509295509295909350565b612e348161373f565b82525050565b612e4381613751565b82525050565b6000612e54826135ad565b612e5e81856135c3565b9350612e6e8185602086016137ef565b612e7781613a2f565b840191505092915050565b612e8b81613789565b82525050565b612e9a81613796565b82525050565b6000612eab826135b8565b612eb581856135d4565b9350612ec58185602086016137ef565b612ece81613a2f565b840191505092915050565b6000612ee4826135b8565b612eee81856135e5565b9350612efe8185602086016137ef565b80840191505092915050565b60008154612f178161386b565b612f2181866135e5565b94506001821660008114612f3c5760018114612f4d57612f80565b60ff19831686528186019350612f80565b612f5685613598565b60005b83811015612f7857815481890152600182019150602081019050612f59565b838801955050505b50505092915050565b6000612f966032836135d4565b9150612fa182613a40565b604082019050919050565b6000612fb9601c836135d4565b9150612fc482613a8f565b602082019050919050565b6000612fdc6024836135d4565b9150612fe782613ab8565b604082019050919050565b6000612fff6019836135d4565b915061300a82613b07565b602082019050919050565b6000613022602c836135d4565b915061302d82613b30565b604082019050919050565b60006130456015836135d4565b915061305082613b7f565b602082019050919050565b60006130686047836135d4565b915061307382613ba8565b606082019050919050565b600061308b6038836135d4565b915061309682613c1d565b604082019050919050565b60006130ae602a836135d4565b91506130b982613c6c565b604082019050919050565b60006130d16029836135d4565b91506130dc82613cbb565b604082019050919050565b60006130f4602e836135d4565b91506130ff82613d0a565b604082019050919050565b60006131176020836135d4565b915061312282613d59565b602082019050919050565b600061313a602c836135d4565b915061314582613d82565b604082019050919050565b600061315d6029836135d4565b915061316882613dd1565b604082019050919050565b60006131806021836135d4565b915061318b82613e20565b604082019050919050565b60006131a36031836135d4565b91506131ae82613e6f565b604082019050919050565b6131c2816137c0565b82525050565b60006131d48285612f0a565b91506131e08284612ed9565b91508190509392505050565b60006020820190506132016000830184612e2b565b92915050565b600060808201905061321c6000830187612e2b565b6132296020830186612e2b565b61323660408301856131b9565b81810360608301526132488184612e49565b905095945050505050565b60006020820190506132686000830184612e3a565b92915050565b60006040820190506132836000830185612e3a565b81810360208301526132958184612e49565b90509392505050565b60006020820190506132b36000830184612e82565b92915050565b60006020820190506132ce6000830184612e91565b92915050565b600060208201905081810360008301526132ee8184612ea0565b905092915050565b6000602082019050818103600083015261330f81612f89565b9050919050565b6000602082019050818103600083015261332f81612fac565b9050919050565b6000602082019050818103600083015261334f81612fcf565b9050919050565b6000602082019050818103600083015261336f81612ff2565b9050919050565b6000602082019050818103600083015261338f81613015565b9050919050565b600060208201905081810360008301526133af81613038565b9050919050565b600060208201905081810360008301526133cf8161305b565b9050919050565b600060208201905081810360008301526133ef8161307e565b9050919050565b6000602082019050818103600083015261340f816130a1565b9050919050565b6000602082019050818103600083015261342f816130c4565b9050919050565b6000602082019050818103600083015261344f816130e7565b9050919050565b6000602082019050818103600083015261346f8161310a565b9050919050565b6000602082019050818103600083015261348f8161312d565b9050919050565b600060208201905081810360008301526134af81613150565b9050919050565b600060208201905081810360008301526134cf81613173565b9050919050565b600060208201905081810360008301526134ef81613196565b9050919050565b600060208201905061350b60008301846131b9565b92915050565b600061351b61352c565b9050613527828261389d565b919050565b6000604051905090565b600067ffffffffffffffff82111561355157613550613a00565b5b61355a82613a2f565b9050602081019050919050565b600067ffffffffffffffff82111561358257613581613a00565b5b61358b82613a2f565b9050602081019050919050565b60008190508160005260206000209050919050565b600081519050919050565b600081519050919050565b600082825260208201905092915050565b600082825260208201905092915050565b600081905092915050565b60006135fb826137c0565b9150613606836137c0565b9250827fffffffffffffffffffffffffffffffffffffffffffffffffffffffffffffffff0382111561363b5761363a613973565b5b828201905092915050565b6000613651826137c0565b915061365c836137c0565b92508261366c5761366b6139a2565b5b828204905092915050565b600061368282613796565b915061368d83613796565b9250827f8000000000000000000000000000000000000000000000000000000000000000018212600084121516156136c8576136c7613973565b5b827f7fffffffffffffffffffffffffffffffffffffffffffffffffffffffffffffff018213600084121615613700576136ff613973565b5b828203905092915050565b6000613716826137c0565b9150613721836137c0565b92508282101561373457613733613973565b5b828203905092915050565b600061374a826137a0565b9050919050565b60008115159050919050565b60007fffffffff0000000000000000000000000000000000000000000000000000000082169050919050565b60008160010b9050919050565b6000819050919050565b600073ffffffffffffffffffffffffffffffffffffffff82169050919050565b6000819050919050565b600069ffffffffffffffffffff82169050919050565b82818337600083830152505050565b60005b8381101561380d5780820151818401526020810190506137f2565b8381111561381c576000848401525b50505050565b600061382d82613789565b91507fffffffffffffffffffffffffffffffffffffffffffffffffffffffffffff80008214156138605761385f613973565b5b600182039050919050565b6000600282049050600182168061388357607f821691505b60208210811415613897576138966139d1565b5b50919050565b6138a682613a2f565b810181811067ffffffffffffffff821117156138c5576138c4613a00565b5b80604052505050565b60006138d982613789565b9150617fff8214156138ee576138ed613973565b5b600182019050919050565b6000613904826137c0565b91507fffffffffffffffffffffffffffffffffffffffffffffffffffffffffffffffff82141561393757613936613973565b5b600182019050919050565b600061394d826137c0565b9150613958836137c0565b925082613968576139676139a2565b5b828206905092915050565b7f4e487b7100000000000000000000000000000000000000000000000000000000600052601160045260246000fd5b7f4e487b7100000000000000000000000000000000000000000000000000000000600052601260045260246000fd5b7f4e487b7100000000000000000000000000000000000000000000000000000000600052602260045260246000fd5b7f4e487b7100000000000000000000000000000000000000000000000000000000600052604160045260246000fd5b6000601f19601f8301169050919050565b7f4552433732313a207472616e7366657220746f206e6f6e20455243373231526560008201527f63656976657220696d706c656d656e7465720000000000000000000000000000602082015250565b7f4552433732313a20746f6b656e20616c7265616479206d696e74656400000000600082015250565b7f4552433732313a207472616e7366657220746f20746865207a65726f2061646460008201527f7265737300000000000000000000000000000000000000000000000000000000602082015250565b7f4552433732313a20617070726f766520746f2063616c6c657200000000000000600082015250565b7f4552433732313a206f70657261746f7220717565727920666f72206e6f6e657860008201527f697374656e7420746f6b656e0000000000000000000000000000000000000000602082015250565b7f4f6e6c7920746f6b656e49642030206578697374730000000000000000000000600082015250565b7f4c617465737420617661696c61626c652070726963652066726f6d207072696360008201527f6520666565642068617320616c7265616479206265656e2073657420666f722060208201527f7468652064617900000000000000000000000000000000000000000000000000604082015250565b7f4552433732313a20617070726f76652063616c6c6572206973206e6f74206f7760008201527f6e6572206e6f7220617070726f76656420666f7220616c6c0000000000000000602082015250565b7f4552433732313a2062616c616e636520717565727920666f7220746865207a6560008201527f726f206164647265737300000000000000000000000000000000000000000000602082015250565b7f4552433732313a206f776e657220717565727920666f72206e6f6e657869737460008201527f656e7420746f6b656e0000000000000000000000000000000000000000000000602082015250565b7f496e697469616c697a61626c653a20636f6e747261637420697320616c72656160008201527f647920696e697469616c697a6564000000000000000000000000000000000000602082015250565b7f4552433732313a206d696e7420746f20746865207a65726f2061646472657373600082015250565b7f4552433732313a20617070726f76656420717565727920666f72206e6f6e657860008201527f697374656e7420746f6b656e0000000000000000000000000000000000000000602082015250565b7f4552433732313a207472616e73666572206f6620746f6b656e2074686174206960008201527f73206e6f74206f776e0000000000000000000000000000000000000000000000602082015250565b7f4552433732313a20617070726f76616c20746f2063757272656e74206f776e6560008201527f7200000000000000000000000000000000000000000000000000000000000000602082015250565b7f4552433732313a207472616e736665722063616c6c6572206973206e6f74206f60008201527f776e6572206e6f7220617070726f766564000000000000000000000000000000602082015250565b613ec78161373f565b8114613ed257600080fd5b50565b613ede81613751565b8114613ee957600080fd5b50565b613ef58161375d565b8114613f0057600080fd5b50565b613f0c81613796565b8114613f1757600080fd5b50565b613f23816137c0565b8114613f2e57600080fd5b50565b613f3a816137ca565b8114613f4557600080fd5b5056fea26469706673582212206fe7ddb91c67034690b5a4cb6dcb0d2e35e325fd54f977ddd921b196bdbfdf3c64736f6c63430008040033",
          "opcodes": "PUSH1 0x80 PUSH1 0x40 MSTORE CALLVALUE DUP1 ISZERO PUSH2 0x10 JUMPI PUSH1 0x0 DUP1 REVERT JUMPDEST POP PUSH2 0x3F7E DUP1 PUSH2 0x20 PUSH1 0x0 CODECOPY PUSH1 0x0 RETURN INVALID PUSH1 0x80 PUSH1 0x40 MSTORE CALLVALUE DUP1 ISZERO PUSH2 0x10 JUMPI PUSH1 0x0 DUP1 REVERT JUMPDEST POP PUSH1 0x4 CALLDATASIZE LT PUSH2 0x12C JUMPI PUSH1 0x0 CALLDATALOAD PUSH1 0xE0 SHR DUP1 PUSH4 0x6E04FF0D GT PUSH2 0xAD JUMPI DUP1 PUSH4 0xA3E6BA94 GT PUSH2 0x71 JUMPI DUP1 PUSH4 0xA3E6BA94 EQ PUSH2 0x32E JUMPI DUP1 PUSH4 0xB85FCC35 EQ PUSH2 0x34C JUMPI DUP1 PUSH4 0xB88D4FDE EQ PUSH2 0x36A JUMPI DUP1 PUSH4 0xC87B56DD EQ PUSH2 0x386 JUMPI DUP1 PUSH4 0xE985E9C5 EQ PUSH2 0x3B6 JUMPI PUSH2 0x12C JUMP JUMPDEST DUP1 PUSH4 0x6E04FF0D EQ PUSH2 0x277 JUMPI DUP1 PUSH4 0x70A08231 EQ PUSH2 0x2A8 JUMPI DUP1 PUSH4 0x7AB4339D EQ PUSH2 0x2D8 JUMPI DUP1 PUSH4 0x95D89B41 EQ PUSH2 0x2F4 JUMPI DUP1 PUSH4 0xA22CB465 EQ PUSH2 0x312 JUMPI PUSH2 0x12C JUMP JUMPDEST DUP1 PUSH4 0x3325C025 GT PUSH2 0xF4 JUMPI DUP1 PUSH4 0x3325C025 EQ PUSH2 0x1E7 JUMPI DUP1 PUSH4 0x42842E0E EQ PUSH2 0x205 JUMPI DUP1 PUSH4 0x4585E33B EQ PUSH2 0x221 JUMPI DUP1 PUSH4 0x6352211E EQ PUSH2 0x23D JUMPI DUP1 PUSH4 0x673A7E28 EQ PUSH2 0x26D JUMPI PUSH2 0x12C JUMP JUMPDEST DUP1 PUSH4 0x1FFC9A7 EQ PUSH2 0x131 JUMPI DUP1 PUSH4 0x6FDDE03 EQ PUSH2 0x161 JUMPI DUP1 PUSH4 0x81812FC EQ PUSH2 0x17F JUMPI DUP1 PUSH4 0x95EA7B3 EQ PUSH2 0x1AF JUMPI DUP1 PUSH4 0x23B872DD EQ PUSH2 0x1CB JUMPI JUMPDEST PUSH1 0x0 DUP1 REVERT JUMPDEST PUSH2 0x14B PUSH1 0x4 DUP1 CALLDATASIZE SUB DUP2 ADD SWAP1 PUSH2 0x146 SWAP2 SWAP1 PUSH2 0x2CA0 JUMP JUMPDEST PUSH2 0x3E6 JUMP JUMPDEST PUSH1 0x40 MLOAD PUSH2 0x158 SWAP2 SWAP1 PUSH2 0x3253 JUMP JUMPDEST PUSH1 0x40 MLOAD DUP1 SWAP2 SUB SWAP1 RETURN JUMPDEST PUSH2 0x169 PUSH2 0x4C8 JUMP JUMPDEST PUSH1 0x40 MLOAD PUSH2 0x176 SWAP2 SWAP1 PUSH2 0x32D4 JUMP JUMPDEST PUSH1 0x40 MLOAD DUP1 SWAP2 SUB SWAP1 RETURN JUMPDEST PUSH2 0x199 PUSH1 0x4 DUP1 CALLDATASIZE SUB DUP2 ADD SWAP1 PUSH2 0x194 SWAP2 SWAP1 PUSH2 0x2D8B JUMP JUMPDEST PUSH2 0x55A JUMP JUMPDEST PUSH1 0x40 MLOAD PUSH2 0x1A6 SWAP2 SWAP1 PUSH2 0x31EC JUMP JUMPDEST PUSH1 0x40 MLOAD DUP1 SWAP2 SUB SWAP1 RETURN JUMPDEST PUSH2 0x1C9 PUSH1 0x4 DUP1 CALLDATASIZE SUB DUP2 ADD SWAP1 PUSH2 0x1C4 SWAP2 SWAP1 PUSH2 0x2C64 JUMP JUMPDEST PUSH2 0x5DF JUMP JUMPDEST STOP JUMPDEST PUSH2 0x1E5 PUSH1 0x4 DUP1 CALLDATASIZE SUB DUP2 ADD SWAP1 PUSH2 0x1E0 SWAP2 SWAP1 PUSH2 0x2B5E JUMP JUMPDEST PUSH2 0x6F7 JUMP JUMPDEST STOP JUMPDEST PUSH2 0x1EF PUSH2 0x757 JUMP JUMPDEST PUSH1 0x40 MLOAD PUSH2 0x1FC SWAP2 SWAP1 PUSH2 0x34F6 JUMP JUMPDEST PUSH1 0x40 MLOAD DUP1 SWAP2 SUB SWAP1 RETURN JUMPDEST PUSH2 0x21F PUSH1 0x4 DUP1 CALLDATASIZE SUB DUP2 ADD SWAP1 PUSH2 0x21A SWAP2 SWAP1 PUSH2 0x2B5E JUMP JUMPDEST PUSH2 0x75D JUMP JUMPDEST STOP JUMPDEST PUSH2 0x23B PUSH1 0x4 DUP1 CALLDATASIZE SUB DUP2 ADD SWAP1 PUSH2 0x236 SWAP2 SWAP1 PUSH2 0x2CF2 JUMP JUMPDEST PUSH2 0x77D JUMP JUMPDEST STOP JUMPDEST PUSH2 0x257 PUSH1 0x4 DUP1 CALLDATASIZE SUB DUP2 ADD SWAP1 PUSH2 0x252 SWAP2 SWAP1 PUSH2 0x2D8B JUMP JUMPDEST PUSH2 0x789 JUMP JUMPDEST PUSH1 0x40 MLOAD PUSH2 0x264 SWAP2 SWAP1 PUSH2 0x31EC JUMP JUMPDEST PUSH1 0x40 MLOAD DUP1 SWAP2 SUB SWAP1 RETURN JUMPDEST PUSH2 0x275 PUSH2 0x83B JUMP JUMPDEST STOP JUMPDEST PUSH2 0x291 PUSH1 0x4 DUP1 CALLDATASIZE SUB DUP2 ADD SWAP1 PUSH2 0x28C SWAP2 SWAP1 PUSH2 0x2CF2 JUMP JUMPDEST PUSH2 0x1289 JUMP JUMPDEST PUSH1 0x40 MLOAD PUSH2 0x29F SWAP3 SWAP2 SWAP1 PUSH2 0x326E JUMP JUMPDEST PUSH1 0x40 MLOAD DUP1 SWAP2 SUB SWAP1 RETURN JUMPDEST PUSH2 0x2C2 PUSH1 0x4 DUP1 CALLDATASIZE SUB DUP2 ADD SWAP1 PUSH2 0x2BD SWAP2 SWAP1 PUSH2 0x2AF9 JUMP JUMPDEST PUSH2 0x131E JUMP JUMPDEST PUSH1 0x40 MLOAD PUSH2 0x2CF SWAP2 SWAP1 PUSH2 0x34F6 JUMP JUMPDEST PUSH1 0x40 MLOAD DUP1 SWAP2 SUB SWAP1 RETURN JUMPDEST PUSH2 0x2F2 PUSH1 0x4 DUP1 CALLDATASIZE SUB DUP2 ADD SWAP1 PUSH2 0x2ED SWAP2 SWAP1 PUSH2 0x2D37 JUMP JUMPDEST PUSH2 0x13D6 JUMP JUMPDEST STOP JUMPDEST PUSH2 0x2FC PUSH2 0x15AF JUMP JUMPDEST PUSH1 0x40 MLOAD PUSH2 0x309 SWAP2 SWAP1 PUSH2 0x32D4 JUMP JUMPDEST PUSH1 0x40 MLOAD DUP1 SWAP2 SUB SWAP1 RETURN JUMPDEST PUSH2 0x32C PUSH1 0x4 DUP1 CALLDATASIZE SUB DUP2 ADD SWAP1 PUSH2 0x327 SWAP2 SWAP1 PUSH2 0x2C28 JUMP JUMPDEST PUSH2 0x1641 JUMP JUMPDEST STOP JUMPDEST PUSH2 0x336 PUSH2 0x17C2 JUMP JUMPDEST PUSH1 0x40 MLOAD PUSH2 0x343 SWAP2 SWAP1 PUSH2 0x32B9 JUMP JUMPDEST PUSH1 0x40 MLOAD DUP1 SWAP2 SUB SWAP1 RETURN JUMPDEST PUSH2 0x354 PUSH2 0x17C8 JUMP JUMPDEST PUSH1 0x40 MLOAD PUSH2 0x361 SWAP2 SWAP1 PUSH2 0x329E JUMP JUMPDEST PUSH1 0x40 MLOAD DUP1 SWAP2 SUB SWAP1 RETURN JUMPDEST PUSH2 0x384 PUSH1 0x4 DUP1 CALLDATASIZE SUB DUP2 ADD SWAP1 PUSH2 0x37F SWAP2 SWAP1 PUSH2 0x2BAD JUMP JUMPDEST PUSH2 0x17DB JUMP JUMPDEST STOP JUMPDEST PUSH2 0x3A0 PUSH1 0x4 DUP1 CALLDATASIZE SUB DUP2 ADD SWAP1 PUSH2 0x39B SWAP2 SWAP1 PUSH2 0x2D8B JUMP JUMPDEST PUSH2 0x183D JUMP JUMPDEST PUSH1 0x40 MLOAD PUSH2 0x3AD SWAP2 SWAP1 PUSH2 0x32D4 JUMP JUMPDEST PUSH1 0x40 MLOAD DUP1 SWAP2 SUB SWAP1 RETURN JUMPDEST PUSH2 0x3D0 PUSH1 0x4 DUP1 CALLDATASIZE SUB DUP2 ADD SWAP1 PUSH2 0x3CB SWAP2 SWAP1 PUSH2 0x2B22 JUMP JUMPDEST PUSH2 0x18FB JUMP JUMPDEST PUSH1 0x40 MLOAD PUSH2 0x3DD SWAP2 SWAP1 PUSH2 0x3253 JUMP JUMPDEST PUSH1 0x40 MLOAD DUP1 SWAP2 SUB SWAP1 RETURN JUMPDEST PUSH1 0x0 PUSH32 0x80AC58CD00000000000000000000000000000000000000000000000000000000 PUSH28 0xFFFFFFFFFFFFFFFFFFFFFFFFFFFFFFFFFFFFFFFFFFFFFFFFFFFFFFFF NOT AND DUP3 PUSH28 0xFFFFFFFFFFFFFFFFFFFFFFFFFFFFFFFFFFFFFFFFFFFFFFFFFFFFFFFF NOT AND EQ DUP1 PUSH2 0x4B1 JUMPI POP PUSH32 0x5B5E139F00000000000000000000000000000000000000000000000000000000 PUSH28 0xFFFFFFFFFFFFFFFFFFFFFFFFFFFFFFFFFFFFFFFFFFFFFFFFFFFFFFFF NOT AND DUP3 PUSH28 0xFFFFFFFFFFFFFFFFFFFFFFFFFFFFFFFFFFFFFFFFFFFFFFFFFFFFFFFF NOT AND EQ JUMPDEST DUP1 PUSH2 0x4C1 JUMPI POP PUSH2 0x4C0 DUP3 PUSH2 0x198F JUMP JUMPDEST JUMPDEST SWAP1 POP SWAP2 SWAP1 POP JUMP JUMPDEST PUSH1 0x60 PUSH1 0x65 DUP1 SLOAD PUSH2 0x4D7 SWAP1 PUSH2 0x386B JUMP JUMPDEST DUP1 PUSH1 0x1F ADD PUSH1 0x20 DUP1 SWAP2 DIV MUL PUSH1 0x20 ADD PUSH1 0x40 MLOAD SWAP1 DUP2 ADD PUSH1 0x40 MSTORE DUP1 SWAP3 SWAP2 SWAP1 DUP2 DUP2 MSTORE PUSH1 0x20 ADD DUP3 DUP1 SLOAD PUSH2 0x503 SWAP1 PUSH2 0x386B JUMP JUMPDEST DUP1 ISZERO PUSH2 0x550 JUMPI DUP1 PUSH1 0x1F LT PUSH2 0x525 JUMPI PUSH2 0x100 DUP1 DUP4 SLOAD DIV MUL DUP4 MSTORE SWAP2 PUSH1 0x20 ADD SWAP2 PUSH2 0x550 JUMP JUMPDEST DUP3 ADD SWAP2 SWAP1 PUSH1 0x0 MSTORE PUSH1 0x20 PUSH1 0x0 KECCAK256 SWAP1 JUMPDEST DUP2 SLOAD DUP2 MSTORE SWAP1 PUSH1 0x1 ADD SWAP1 PUSH1 0x20 ADD DUP1 DUP4 GT PUSH2 0x533 JUMPI DUP3 SWAP1 SUB PUSH1 0x1F AND DUP3 ADD SWAP2 JUMPDEST POP POP POP POP POP SWAP1 POP SWAP1 JUMP JUMPDEST PUSH1 0x0 PUSH2 0x565 DUP3 PUSH2 0x19F9 JUMP JUMPDEST PUSH2 0x5A4 JUMPI PUSH1 0x40 MLOAD PUSH32 0x8C379A000000000000000000000000000000000000000000000000000000000 DUP2 MSTORE PUSH1 0x4 ADD PUSH2 0x59B SWAP1 PUSH2 0x3476 JUMP JUMPDEST PUSH1 0x40 MLOAD DUP1 SWAP2 SUB SWAP1 REVERT JUMPDEST PUSH1 0x69 PUSH1 0x0 DUP4 DUP2 MSTORE PUSH1 0x20 ADD SWAP1 DUP2 MSTORE PUSH1 0x20 ADD PUSH1 0x0 KECCAK256 PUSH1 0x0 SWAP1 SLOAD SWAP1 PUSH2 0x100 EXP SWAP1 DIV PUSH20 0xFFFFFFFFFFFFFFFFFFFFFFFFFFFFFFFFFFFFFFFF AND SWAP1 POP SWAP2 SWAP1 POP JUMP JUMPDEST PUSH1 0x0 PUSH2 0x5EA DUP3 PUSH2 0x789 JUMP JUMPDEST SWAP1 POP DUP1 PUSH20 0xFFFFFFFFFFFFFFFFFFFFFFFFFFFFFFFFFFFFFFFF AND DUP4 PUSH20 0xFFFFFFFFFFFFFFFFFFFFFFFFFFFFFFFFFFFFFFFF AND EQ ISZERO PUSH2 0x65B JUMPI PUSH1 0x40 MLOAD PUSH32 0x8C379A000000000000000000000000000000000000000000000000000000000 DUP2 MSTORE PUSH1 0x4 ADD PUSH2 0x652 SWAP1 PUSH2 0x34B6 JUMP JUMPDEST PUSH1 0x40 MLOAD DUP1 SWAP2 SUB SWAP1 REVERT JUMPDEST DUP1 PUSH20 0xFFFFFFFFFFFFFFFFFFFFFFFFFFFFFFFFFFFFFFFF AND PUSH2 0x67A PUSH2 0x1A65 JUMP JUMPDEST PUSH20 0xFFFFFFFFFFFFFFFFFFFFFFFFFFFFFFFFFFFFFFFF AND EQ DUP1 PUSH2 0x6A9 JUMPI POP PUSH2 0x6A8 DUP2 PUSH2 0x6A3 PUSH2 0x1A65 JUMP JUMPDEST PUSH2 0x18FB JUMP JUMPDEST JUMPDEST PUSH2 0x6E8 JUMPI PUSH1 0x40 MLOAD PUSH32 0x8C379A000000000000000000000000000000000000000000000000000000000 DUP2 MSTORE PUSH1 0x4 ADD PUSH2 0x6DF SWAP1 PUSH2 0x33D6 JUMP JUMPDEST PUSH1 0x40 MLOAD DUP1 SWAP2 SUB SWAP1 REVERT JUMPDEST PUSH2 0x6F2 DUP4 DUP4 PUSH2 0x1A6D JUMP JUMPDEST POP POP POP JUMP JUMPDEST PUSH2 0x708 PUSH2 0x702 PUSH2 0x1A65 JUMP JUMPDEST DUP3 PUSH2 0x1B26 JUMP JUMPDEST PUSH2 0x747 JUMPI PUSH1 0x40 MLOAD PUSH32 0x8C379A000000000000000000000000000000000000000000000000000000000 DUP2 MSTORE PUSH1 0x4 ADD PUSH2 0x73E SWAP1 PUSH2 0x34D6 JUMP JUMPDEST PUSH1 0x40 MLOAD DUP1 SWAP2 SUB SWAP1 REVERT JUMPDEST PUSH2 0x752 DUP4 DUP4 DUP4 PUSH2 0x1C04 JUMP JUMPDEST POP POP POP JUMP JUMPDEST PUSH1 0x9A SLOAD DUP2 JUMP JUMPDEST PUSH2 0x778 DUP4 DUP4 DUP4 PUSH1 0x40 MLOAD DUP1 PUSH1 0x20 ADD PUSH1 0x40 MSTORE DUP1 PUSH1 0x0 DUP2 MSTORE POP PUSH2 0x17DB JUMP JUMPDEST POP POP POP JUMP JUMPDEST PUSH2 0x785 PUSH2 0x83B JUMP JUMPDEST POP POP JUMP JUMPDEST PUSH1 0x0 DUP1 PUSH1 0x67 PUSH1 0x0 DUP5 DUP2 MSTORE PUSH1 0x20 ADD SWAP1 DUP2 MSTORE PUSH1 0x20 ADD PUSH1 0x0 KECCAK256 PUSH1 0x0 SWAP1 SLOAD SWAP1 PUSH2 0x100 EXP SWAP1 DIV PUSH20 0xFFFFFFFFFFFFFFFFFFFFFFFFFFFFFFFFFFFFFFFF AND SWAP1 POP PUSH1 0x0 PUSH20 0xFFFFFFFFFFFFFFFFFFFFFFFFFFFFFFFFFFFFFFFF AND DUP2 PUSH20 0xFFFFFFFFFFFFFFFFFFFFFFFFFFFFFFFFFFFFFFFF AND EQ ISZERO PUSH2 0x832 JUMPI PUSH1 0x40 MLOAD PUSH32 0x8C379A000000000000000000000000000000000000000000000000000000000 DUP2 MSTORE PUSH1 0x4 ADD PUSH2 0x829 SWAP1 PUSH2 0x3416 JUMP JUMPDEST PUSH1 0x40 MLOAD DUP1 SWAP2 SUB SWAP1 REVERT JUMPDEST DUP1 SWAP2 POP POP SWAP2 SWAP1 POP JUMP JUMPDEST PUSH1 0x0 DUP1 PUSH2 0x846 PUSH2 0x1E60 JUMP JUMPDEST SWAP2 POP SWAP2 POP PUSH1 0x0 PUSH2 0x855 DUP3 PUSH2 0x1F24 JUMP JUMPDEST SWAP1 POP PUSH1 0x9A SLOAD DUP2 EQ ISZERO PUSH2 0x89C JUMPI PUSH1 0x40 MLOAD PUSH32 0x8C379A000000000000000000000000000000000000000000000000000000000 DUP2 MSTORE PUSH1 0x4 ADD PUSH2 0x893 SWAP1 PUSH2 0x33B6 JUMP JUMPDEST PUSH1 0x40 MLOAD DUP1 SWAP2 SUB SWAP1 REVERT JUMPDEST PUSH1 0x0 PUSH1 0x99 SLOAD SWAP1 POP PUSH1 0x0 PUSH1 0x9A SLOAD SWAP1 POP PUSH1 0x0 PUSH3 0x15180 SWAP1 POP PUSH1 0x0 DUP4 DUP8 PUSH2 0x8C0 SWAP2 SWAP1 PUSH2 0x3677 JUMP JUMPDEST SGT ISZERO PUSH2 0xB3B JUMPI DUP1 PUSH4 0xFFFFFFFF AND DUP5 PUSH2 0x8D8 SWAP2 SWAP1 PUSH2 0x370B JUMP JUMPDEST DUP3 EQ ISZERO PUSH2 0x961 JUMPI PUSH1 0x0 PUSH1 0x9B PUSH1 0x0 SWAP1 SLOAD SWAP1 PUSH2 0x100 EXP SWAP1 DIV PUSH1 0x1 SIGNEXTEND PUSH1 0x1 SIGNEXTEND SGT PUSH2 0x91E JUMPI PUSH1 0x1 PUSH1 0x9B PUSH1 0x0 PUSH2 0x100 EXP DUP2 SLOAD DUP2 PUSH2 0xFFFF MUL NOT AND SWAP1 DUP4 PUSH1 0x1 SIGNEXTEND PUSH2 0xFFFF AND MUL OR SWAP1 SSTORE PUSH2 0x95B JUMP JUMPDEST PUSH1 0x9B PUSH1 0x0 DUP2 DUP2 SWAP1 SLOAD SWAP1 PUSH2 0x100 EXP SWAP1 DIV PUSH1 0x1 SIGNEXTEND DUP1 SWAP3 SWAP2 SWAP1 PUSH2 0x93D SWAP1 PUSH2 0x38CE JUMP JUMPDEST SWAP2 SWAP1 PUSH2 0x100 EXP DUP2 SLOAD DUP2 PUSH2 0xFFFF MUL NOT AND SWAP1 DUP4 PUSH1 0x1 SIGNEXTEND PUSH2 0xFFFF AND MUL OR SWAP1 SSTORE POP JUMPDEST POP PUSH2 0x983 JUMP JUMPDEST PUSH1 0x1 PUSH1 0x9B PUSH1 0x0 PUSH2 0x100 EXP DUP2 SLOAD DUP2 PUSH2 0xFFFF MUL NOT AND SWAP1 DUP4 PUSH1 0x1 SIGNEXTEND PUSH2 0xFFFF AND MUL OR SWAP1 SSTORE POP JUMPDEST PUSH6 0x1D1A94A2000 DUP7 SLT PUSH2 0x9E6 JUMPI PUSH1 0x6 PUSH1 0x97 PUSH1 0x14 PUSH2 0x100 EXP DUP2 SLOAD DUP2 PUSH1 0xFF MUL NOT AND SWAP1 DUP4 PUSH1 0x6 DUP2 GT ISZERO PUSH2 0x9DC JUMPI PUSH32 0x4E487B7100000000000000000000000000000000000000000000000000000000 PUSH1 0x0 MSTORE PUSH1 0x21 PUSH1 0x4 MSTORE PUSH1 0x24 PUSH1 0x0 REVERT JUMPDEST MUL OR SWAP1 SSTORE POP PUSH2 0xB36 JUMP JUMPDEST PUSH1 0x5 PUSH1 0x9B PUSH1 0x0 SWAP1 SLOAD SWAP1 PUSH2 0x100 EXP SWAP1 DIV PUSH1 0x1 SIGNEXTEND PUSH1 0x1 SIGNEXTEND SLT PUSH2 0xA56 JUMPI PUSH1 0x2 PUSH1 0x97 PUSH1 0x14 PUSH2 0x100 EXP DUP2 SLOAD DUP2 PUSH1 0xFF MUL NOT AND SWAP1 DUP4 PUSH1 0x6 DUP2 GT ISZERO PUSH2 0xA4C JUMPI PUSH32 0x4E487B7100000000000000000000000000000000000000000000000000000000 PUSH1 0x0 MSTORE PUSH1 0x21 PUSH1 0x4 MSTORE PUSH1 0x24 PUSH1 0x0 REVERT JUMPDEST MUL OR SWAP1 SSTORE POP PUSH2 0xB35 JUMP JUMPDEST PUSH1 0x2 PUSH1 0x9B PUSH1 0x0 SWAP1 SLOAD SWAP1 PUSH2 0x100 EXP SWAP1 DIV PUSH1 0x1 SIGNEXTEND PUSH1 0x1 SIGNEXTEND SLT PUSH2 0xAC6 JUMPI PUSH1 0x1 PUSH1 0x97 PUSH1 0x14 PUSH2 0x100 EXP DUP2 SLOAD DUP2 PUSH1 0xFF MUL NOT AND SWAP1 DUP4 PUSH1 0x6 DUP2 GT ISZERO PUSH2 0xABC JUMPI PUSH32 0x4E487B7100000000000000000000000000000000000000000000000000000000 PUSH1 0x0 MSTORE PUSH1 0x21 PUSH1 0x4 MSTORE PUSH1 0x24 PUSH1 0x0 REVERT JUMPDEST MUL OR SWAP1 SSTORE POP PUSH2 0xB34 JUMP JUMPDEST PUSH1 0x1 PUSH1 0x9B PUSH1 0x0 SWAP1 SLOAD SWAP1 PUSH2 0x100 EXP SWAP1 DIV PUSH1 0x1 SIGNEXTEND PUSH1 0x1 SIGNEXTEND EQ ISZERO PUSH2 0xB33 JUMPI PUSH1 0x0 PUSH1 0x97 PUSH1 0x14 PUSH2 0x100 EXP DUP2 SLOAD DUP2 PUSH1 0xFF MUL NOT AND SWAP1 DUP4 PUSH1 0x6 DUP2 GT ISZERO PUSH2 0xB2D JUMPI PUSH32 0x4E487B7100000000000000000000000000000000000000000000000000000000 PUSH1 0x0 MSTORE PUSH1 0x21 PUSH1 0x4 MSTORE PUSH1 0x24 PUSH1 0x0 REVERT JUMPDEST MUL OR SWAP1 SSTORE POP JUMPDEST JUMPDEST JUMPDEST JUMPDEST PUSH2 0x1273 JUMP JUMPDEST PUSH1 0x0 DUP4 DUP8 PUSH2 0xB49 SWAP2 SWAP1 PUSH2 0x3677 JUMP JUMPDEST SLT ISZERO PUSH2 0xE5F JUMPI DUP1 PUSH4 0xFFFFFFFF AND DUP5 PUSH2 0xB61 SWAP2 SWAP1 PUSH2 0x370B JUMP JUMPDEST DUP3 EQ ISZERO PUSH2 0xC09 JUMPI PUSH1 0x0 PUSH1 0x9B PUSH1 0x0 SWAP1 SLOAD SWAP1 PUSH2 0x100 EXP SWAP1 DIV PUSH1 0x1 SIGNEXTEND PUSH1 0x1 SIGNEXTEND SLT PUSH2 0xBC6 JUMPI PUSH32 0xFFFFFFFFFFFFFFFFFFFFFFFFFFFFFFFFFFFFFFFFFFFFFFFFFFFFFFFFFFFFFFFF PUSH1 0x9B PUSH1 0x0 PUSH2 0x100 EXP DUP2 SLOAD DUP2 PUSH2 0xFFFF MUL NOT AND SWAP1 DUP4 PUSH1 0x1 SIGNEXTEND PUSH2 0xFFFF AND MUL OR SWAP1 SSTORE PUSH2 0xC03 JUMP JUMPDEST PUSH1 0x9B PUSH1 0x0 DUP2 DUP2 SWAP1 SLOAD SWAP1 PUSH2 0x100 EXP SWAP1 DIV PUSH1 0x1 SIGNEXTEND DUP1 SWAP3 SWAP2 SWAP1 PUSH2 0xBE5 SWAP1 PUSH2 0x3822 JUMP JUMPDEST SWAP2 SWAP1 PUSH2 0x100 EXP DUP2 SLOAD DUP2 PUSH2 0xFFFF MUL NOT AND SWAP1 DUP4 PUSH1 0x1 SIGNEXTEND PUSH2 0xFFFF AND MUL OR SWAP1 SSTORE POP JUMPDEST POP PUSH2 0xC4A JUMP JUMPDEST PUSH32 0xFFFFFFFFFFFFFFFFFFFFFFFFFFFFFFFFFFFFFFFFFFFFFFFFFFFFFFFFFFFFFFFF PUSH1 0x9B PUSH1 0x0 PUSH2 0x100 EXP DUP2 SLOAD DUP2 PUSH2 0xFFFF MUL NOT AND SWAP1 DUP4 PUSH1 0x1 SIGNEXTEND PUSH2 0xFFFF AND MUL OR SWAP1 SSTORE POP JUMPDEST PUSH6 0x1D1A94A2000 DUP7 SLT PUSH2 0xCAD JUMPI PUSH1 0x6 PUSH1 0x97 PUSH1 0x14 PUSH2 0x100 EXP DUP2 SLOAD DUP2 PUSH1 0xFF MUL NOT AND SWAP1 DUP4 PUSH1 0x6 DUP2 GT ISZERO PUSH2 0xCA3 JUMPI PUSH32 0x4E487B7100000000000000000000000000000000000000000000000000000000 PUSH1 0x0 MSTORE PUSH1 0x21 PUSH1 0x4 MSTORE PUSH1 0x24 PUSH1 0x0 REVERT JUMPDEST MUL OR SWAP1 SSTORE POP PUSH2 0xE5A JUMP JUMPDEST PUSH32 0xFFFFFFFFFFFFFFFFFFFFFFFFFFFFFFFFFFFFFFFFFFFFFFFFFFFFFFFFFFFFFFFB PUSH1 0x9B PUSH1 0x0 SWAP1 SLOAD SWAP1 PUSH2 0x100 EXP SWAP1 DIV PUSH1 0x1 SIGNEXTEND PUSH1 0x1 SIGNEXTEND SGT PUSH2 0xD3C JUMPI PUSH1 0x5 PUSH1 0x97 PUSH1 0x14 PUSH2 0x100 EXP DUP2 SLOAD DUP2 PUSH1 0xFF MUL NOT AND SWAP1 DUP4 PUSH1 0x6 DUP2 GT ISZERO PUSH2 0xD32 JUMPI PUSH32 0x4E487B7100000000000000000000000000000000000000000000000000000000 PUSH1 0x0 MSTORE PUSH1 0x21 PUSH1 0x4 MSTORE PUSH1 0x24 PUSH1 0x0 REVERT JUMPDEST MUL OR SWAP1 SSTORE POP PUSH2 0xE59 JUMP JUMPDEST PUSH32 0xFFFFFFFFFFFFFFFFFFFFFFFFFFFFFFFFFFFFFFFFFFFFFFFFFFFFFFFFFFFFFFFE PUSH1 0x9B PUSH1 0x0 SWAP1 SLOAD SWAP1 PUSH2 0x100 EXP SWAP1 DIV PUSH1 0x1 SIGNEXTEND PUSH1 0x1 SIGNEXTEND SGT PUSH2 0xDCB JUMPI PUSH1 0x4 PUSH1 0x97 PUSH1 0x14 PUSH2 0x100 EXP DUP2 SLOAD DUP2 PUSH1 0xFF MUL NOT AND SWAP1 DUP4 PUSH1 0x6 DUP2 GT ISZERO PUSH2 0xDC1 JUMPI PUSH32 0x4E487B7100000000000000000000000000000000000000000000000000000000 PUSH1 0x0 MSTORE PUSH1 0x21 PUSH1 0x4 MSTORE PUSH1 0x24 PUSH1 0x0 REVERT JUMPDEST MUL OR SWAP1 SSTORE POP PUSH2 0xE58 JUMP JUMPDEST PUSH32 0xFFFFFFFFFFFFFFFFFFFFFFFFFFFFFFFFFFFFFFFFFFFFFFFFFFFFFFFFFFFFFFFF PUSH1 0x9B PUSH1 0x0 SWAP1 SLOAD SWAP1 PUSH2 0x100 EXP SWAP1 DIV PUSH1 0x1 SIGNEXTEND PUSH1 0x1 SIGNEXTEND EQ ISZERO PUSH2 0xE57 JUMPI PUSH1 0x3 PUSH1 0x97 PUSH1 0x14 PUSH2 0x100 EXP DUP2 SLOAD DUP2 PUSH1 0xFF MUL NOT AND SWAP1 DUP4 PUSH1 0x6 DUP2 GT ISZERO PUSH2 0xE51 JUMPI PUSH32 0x4E487B7100000000000000000000000000000000000000000000000000000000 PUSH1 0x0 MSTORE PUSH1 0x21 PUSH1 0x4 MSTORE PUSH1 0x24 PUSH1 0x0 REVERT JUMPDEST MUL OR SWAP1 SSTORE POP JUMPDEST JUMPDEST JUMPDEST JUMPDEST PUSH2 0x1272 JUMP JUMPDEST PUSH1 0x0 DUP4 DUP8 PUSH2 0xE6D SWAP2 SWAP1 PUSH2 0x3677 JUMP JUMPDEST EQ ISZERO PUSH2 0x1271 JUMPI DUP1 PUSH4 0xFFFFFFFF AND DUP5 PUSH2 0xE85 SWAP2 SWAP1 PUSH2 0x370B JUMP JUMPDEST DUP3 EQ PUSH2 0x1270 JUMPI PUSH1 0x0 PUSH1 0x9B PUSH1 0x0 SWAP1 SLOAD SWAP1 PUSH2 0x100 EXP SWAP1 DIV PUSH1 0x1 SIGNEXTEND PUSH1 0x1 SIGNEXTEND SGT PUSH2 0xEE9 JUMPI PUSH32 0xFFFFFFFFFFFFFFFFFFFFFFFFFFFFFFFFFFFFFFFFFFFFFFFFFFFFFFFFFFFFFFFF PUSH1 0x9B PUSH1 0x0 PUSH2 0x100 EXP DUP2 SLOAD DUP2 PUSH2 0xFFFF MUL NOT AND SWAP1 DUP4 PUSH1 0x1 SIGNEXTEND PUSH2 0xFFFF AND MUL OR SWAP1 SSTORE PUSH2 0xF0A JUMP JUMPDEST PUSH1 0x1 PUSH1 0x9B PUSH1 0x0 PUSH2 0x100 EXP DUP2 SLOAD DUP2 PUSH2 0xFFFF MUL NOT AND SWAP1 DUP4 PUSH1 0x1 SIGNEXTEND PUSH2 0xFFFF AND MUL OR SWAP1 SSTORE JUMPDEST POP PUSH6 0x1D1A94A2000 DUP7 SLT PUSH2 0xF6E JUMPI PUSH1 0x6 PUSH1 0x97 PUSH1 0x14 PUSH2 0x100 EXP DUP2 SLOAD DUP2 PUSH1 0xFF MUL NOT AND SWAP1 DUP4 PUSH1 0x6 DUP2 GT ISZERO PUSH2 0xF64 JUMPI PUSH32 0x4E487B7100000000000000000000000000000000000000000000000000000000 PUSH1 0x0 MSTORE PUSH1 0x21 PUSH1 0x4 MSTORE PUSH1 0x24 PUSH1 0x0 REVERT JUMPDEST MUL OR SWAP1 SSTORE POP PUSH2 0x126F JUMP JUMPDEST PUSH1 0x5 PUSH1 0x9B PUSH1 0x0 SWAP1 SLOAD SWAP1 PUSH2 0x100 EXP SWAP1 DIV PUSH1 0x1 SIGNEXTEND PUSH1 0x1 SIGNEXTEND SLT PUSH2 0xFDE JUMPI PUSH1 0x2 PUSH1 0x97 PUSH1 0x14 PUSH2 0x100 EXP DUP2 SLOAD DUP2 PUSH1 0xFF MUL NOT AND SWAP1 DUP4 PUSH1 0x6 DUP2 GT ISZERO PUSH2 0xFD4 JUMPI PUSH32 0x4E487B7100000000000000000000000000000000000000000000000000000000 PUSH1 0x0 MSTORE PUSH1 0x21 PUSH1 0x4 MSTORE PUSH1 0x24 PUSH1 0x0 REVERT JUMPDEST MUL OR SWAP1 SSTORE POP PUSH2 0x126E JUMP JUMPDEST PUSH1 0x2 PUSH1 0x9B PUSH1 0x0 SWAP1 SLOAD SWAP1 PUSH2 0x100 EXP SWAP1 DIV PUSH1 0x1 SIGNEXTEND PUSH1 0x1 SIGNEXTEND SLT PUSH2 0x104E JUMPI PUSH1 0x1 PUSH1 0x97 PUSH1 0x14 PUSH2 0x100 EXP DUP2 SLOAD DUP2 PUSH1 0xFF MUL NOT AND SWAP1 DUP4 PUSH1 0x6 DUP2 GT ISZERO PUSH2 0x1044 JUMPI PUSH32 0x4E487B7100000000000000000000000000000000000000000000000000000000 PUSH1 0x0 MSTORE PUSH1 0x21 PUSH1 0x4 MSTORE PUSH1 0x24 PUSH1 0x0 REVERT JUMPDEST MUL OR SWAP1 SSTORE POP PUSH2 0x126D JUMP JUMPDEST PUSH1 0x1 PUSH1 0x9B PUSH1 0x0 SWAP1 SLOAD SWAP1 PUSH2 0x100 EXP SWAP1 DIV PUSH1 0x1 SIGNEXTEND PUSH1 0x1 SIGNEXTEND EQ ISZERO PUSH2 0x10BF JUMPI PUSH1 0x0 PUSH1 0x97 PUSH1 0x14 PUSH2 0x100 EXP DUP2 SLOAD DUP2 PUSH1 0xFF MUL NOT AND SWAP1 DUP4 PUSH1 0x6 DUP2 GT ISZERO PUSH2 0x10B5 JUMPI PUSH32 0x4E487B7100000000000000000000000000000000000000000000000000000000 PUSH1 0x0 MSTORE PUSH1 0x21 PUSH1 0x4 MSTORE PUSH1 0x24 PUSH1 0x0 REVERT JUMPDEST MUL OR SWAP1 SSTORE POP PUSH2 0x126C JUMP JUMPDEST PUSH32 0xFFFFFFFFFFFFFFFFFFFFFFFFFFFFFFFFFFFFFFFFFFFFFFFFFFFFFFFFFFFFFFFB PUSH1 0x9B PUSH1 0x0 SWAP1 SLOAD SWAP1 PUSH2 0x100 EXP SWAP1 DIV PUSH1 0x1 SIGNEXTEND PUSH1 0x1 SIGNEXTEND SGT PUSH2 0x114E JUMPI PUSH1 0x5 PUSH1 0x97 PUSH1 0x14 PUSH2 0x100 EXP DUP2 SLOAD DUP2 PUSH1 0xFF MUL NOT AND SWAP1 DUP4 PUSH1 0x6 DUP2 GT ISZERO PUSH2 0x1144 JUMPI PUSH32 0x4E487B7100000000000000000000000000000000000000000000000000000000 PUSH1 0x0 MSTORE PUSH1 0x21 PUSH1 0x4 MSTORE PUSH1 0x24 PUSH1 0x0 REVERT JUMPDEST MUL OR SWAP1 SSTORE POP PUSH2 0x126B JUMP JUMPDEST PUSH32 0xFFFFFFFFFFFFFFFFFFFFFFFFFFFFFFFFFFFFFFFFFFFFFFFFFFFFFFFFFFFFFFFE PUSH1 0x9B PUSH1 0x0 SWAP1 SLOAD SWAP1 PUSH2 0x100 EXP SWAP1 DIV PUSH1 0x1 SIGNEXTEND PUSH1 0x1 SIGNEXTEND SGT PUSH2 0x11DD JUMPI PUSH1 0x4 PUSH1 0x97 PUSH1 0x14 PUSH2 0x100 EXP DUP2 SLOAD DUP2 PUSH1 0xFF MUL NOT AND SWAP1 DUP4 PUSH1 0x6 DUP2 GT ISZERO PUSH2 0x11D3 JUMPI PUSH32 0x4E487B7100000000000000000000000000000000000000000000000000000000 PUSH1 0x0 MSTORE PUSH1 0x21 PUSH1 0x4 MSTORE PUSH1 0x24 PUSH1 0x0 REVERT JUMPDEST MUL OR SWAP1 SSTORE POP PUSH2 0x126A JUMP JUMPDEST PUSH32 0xFFFFFFFFFFFFFFFFFFFFFFFFFFFFFFFFFFFFFFFFFFFFFFFFFFFFFFFFFFFFFFFF PUSH1 0x9B PUSH1 0x0 SWAP1 SLOAD SWAP1 PUSH2 0x100 EXP SWAP1 DIV PUSH1 0x1 SIGNEXTEND PUSH1 0x1 SIGNEXTEND EQ ISZERO PUSH2 0x1269 JUMPI PUSH1 0x3 PUSH1 0x97 PUSH1 0x14 PUSH2 0x100 EXP DUP2 SLOAD DUP2 PUSH1 0xFF MUL NOT AND SWAP1 DUP4 PUSH1 0x6 DUP2 GT ISZERO PUSH2 0x1263 JUMPI PUSH32 0x4E487B7100000000000000000000000000000000000000000000000000000000 PUSH1 0x0 MSTORE PUSH1 0x21 PUSH1 0x4 MSTORE PUSH1 0x24 PUSH1 0x0 REVERT JUMPDEST MUL OR SWAP1 SSTORE POP JUMPDEST JUMPDEST JUMPDEST JUMPDEST JUMPDEST JUMPDEST JUMPDEST JUMPDEST JUMPDEST JUMPDEST JUMPDEST DUP6 PUSH1 0x99 DUP2 SWAP1 SSTORE POP DUP4 PUSH1 0x9A DUP2 SWAP1 SSTORE POP POP POP POP POP POP POP JUMP JUMPDEST PUSH1 0x0 PUSH1 0x60 PUSH1 0x0 PUSH3 0x15180 SWAP1 POP PUSH1 0x0 PUSH2 0x129F PUSH2 0x1E60 JUMP JUMPDEST SWAP2 POP POP DUP2 PUSH4 0xFFFFFFFF AND PUSH1 0x9A SLOAD PUSH2 0x12B6 SWAP2 SWAP1 PUSH2 0x35F0 JUMP JUMPDEST DUP2 LT ISZERO PUSH2 0x12C7 JUMPI PUSH1 0x0 SWAP4 POP DUP4 PUSH2 0x12CD JUMP JUMPDEST PUSH1 0x1 SWAP4 POP DUP4 JUMPDEST POP DUP6 DUP6 DUP1 DUP1 PUSH1 0x1F ADD PUSH1 0x20 DUP1 SWAP2 DIV MUL PUSH1 0x20 ADD PUSH1 0x40 MLOAD SWAP1 DUP2 ADD PUSH1 0x40 MSTORE DUP1 SWAP4 SWAP3 SWAP2 SWAP1 DUP2 DUP2 MSTORE PUSH1 0x20 ADD DUP4 DUP4 DUP1 DUP3 DUP5 CALLDATACOPY PUSH1 0x0 DUP2 DUP5 ADD MSTORE PUSH1 0x1F NOT PUSH1 0x1F DUP3 ADD AND SWAP1 POP DUP1 DUP4 ADD SWAP3 POP POP POP POP POP POP POP SWAP3 POP POP POP SWAP3 POP SWAP3 SWAP1 POP JUMP JUMPDEST PUSH1 0x0 DUP1 PUSH20 0xFFFFFFFFFFFFFFFFFFFFFFFFFFFFFFFFFFFFFFFF AND DUP3 PUSH20 0xFFFFFFFFFFFFFFFFFFFFFFFFFFFFFFFFFFFFFFFF AND EQ ISZERO PUSH2 0x138F JUMPI PUSH1 0x40 MLOAD PUSH32 0x8C379A000000000000000000000000000000000000000000000000000000000 DUP2 MSTORE PUSH1 0x4 ADD PUSH2 0x1386 SWAP1 PUSH2 0x33F6 JUMP JUMPDEST PUSH1 0x40 MLOAD DUP1 SWAP2 SUB SWAP1 REVERT JUMPDEST PUSH1 0x68 PUSH1 0x0 DUP4 PUSH20 0xFFFFFFFFFFFFFFFFFFFFFFFFFFFFFFFFFFFFFFFF AND PUSH20 0xFFFFFFFFFFFFFFFFFFFFFFFFFFFFFFFFFFFFFFFF AND DUP2 MSTORE PUSH1 0x20 ADD SWAP1 DUP2 MSTORE PUSH1 0x20 ADD PUSH1 0x0 KECCAK256 SLOAD SWAP1 POP SWAP2 SWAP1 POP JUMP JUMPDEST PUSH1 0x0 PUSH1 0x1 SWAP1 SLOAD SWAP1 PUSH2 0x100 EXP SWAP1 DIV PUSH1 0xFF AND DUP1 PUSH2 0x13FC JUMPI POP PUSH1 0x0 DUP1 SLOAD SWAP1 PUSH2 0x100 EXP SWAP1 DIV PUSH1 0xFF AND ISZERO JUMPDEST PUSH2 0x143B JUMPI PUSH1 0x40 MLOAD PUSH32 0x8C379A000000000000000000000000000000000000000000000000000000000 DUP2 MSTORE PUSH1 0x4 ADD PUSH2 0x1432 SWAP1 PUSH2 0x3436 JUMP JUMPDEST PUSH1 0x40 MLOAD DUP1 SWAP2 SUB SWAP1 REVERT JUMPDEST PUSH1 0x0 DUP1 PUSH1 0x1 SWAP1 SLOAD SWAP1 PUSH2 0x100 EXP SWAP1 DIV PUSH1 0xFF AND ISZERO SWAP1 POP DUP1 ISZERO PUSH2 0x148B JUMPI PUSH1 0x1 PUSH1 0x0 PUSH1 0x1 PUSH2 0x100 EXP DUP2 SLOAD DUP2 PUSH1 0xFF MUL NOT AND SWAP1 DUP4 ISZERO ISZERO MUL OR SWAP1 SSTORE POP PUSH1 0x1 PUSH1 0x0 DUP1 PUSH2 0x100 EXP DUP2 SLOAD DUP2 PUSH1 0xFF MUL NOT AND SWAP1 DUP4 ISZERO ISZERO MUL OR SWAP1 SSTORE POP JUMPDEST PUSH2 0x14FF PUSH1 0x40 MLOAD DUP1 PUSH1 0x40 ADD PUSH1 0x40 MSTORE DUP1 PUSH1 0xD DUP2 MSTORE PUSH1 0x20 ADD PUSH32 0x455448547261636B65724E465400000000000000000000000000000000000000 DUP2 MSTORE POP PUSH1 0x40 MLOAD DUP1 PUSH1 0x40 ADD PUSH1 0x40 MSTORE DUP1 PUSH1 0x3 DUP2 MSTORE PUSH1 0x20 ADD PUSH32 0x45544E0000000000000000000000000000000000000000000000000000000000 DUP2 MSTORE POP PUSH2 0x1F5E JUMP JUMPDEST DUP3 PUSH1 0x98 SWAP1 DUP1 MLOAD SWAP1 PUSH1 0x20 ADD SWAP1 PUSH2 0x1515 SWAP3 SWAP2 SWAP1 PUSH2 0x2894 JUMP JUMPDEST POP DUP2 PUSH1 0x97 PUSH1 0x0 PUSH2 0x100 EXP DUP2 SLOAD DUP2 PUSH20 0xFFFFFFFFFFFFFFFFFFFFFFFFFFFFFFFFFFFFFFFF MUL NOT AND SWAP1 DUP4 PUSH20 0xFFFFFFFFFFFFFFFFFFFFFFFFFFFFFFFFFFFFFFFF AND MUL OR SWAP1 SSTORE POP PUSH2 0x1562 CALLER PUSH1 0x0 PUSH2 0x2053 JUMP JUMPDEST PUSH1 0x0 DUP1 PUSH2 0x156D PUSH2 0x1E60 JUMP JUMPDEST SWAP2 POP SWAP2 POP DUP2 PUSH1 0x99 DUP2 SWAP1 SSTORE POP PUSH2 0x1581 DUP2 PUSH2 0x1F24 JUMP JUMPDEST PUSH1 0x9A DUP2 SWAP1 SSTORE POP POP POP DUP1 ISZERO PUSH2 0x15AA JUMPI PUSH1 0x0 DUP1 PUSH1 0x1 PUSH2 0x100 EXP DUP2 SLOAD DUP2 PUSH1 0xFF MUL NOT AND SWAP1 DUP4 ISZERO ISZERO MUL OR SWAP1 SSTORE POP JUMPDEST POP POP POP JUMP JUMPDEST PUSH1 0x60 PUSH1 0x66 DUP1 SLOAD PUSH2 0x15BE SWAP1 PUSH2 0x386B JUMP JUMPDEST DUP1 PUSH1 0x1F ADD PUSH1 0x20 DUP1 SWAP2 DIV MUL PUSH1 0x20 ADD PUSH1 0x40 MLOAD SWAP1 DUP2 ADD PUSH1 0x40 MSTORE DUP1 SWAP3 SWAP2 SWAP1 DUP2 DUP2 MSTORE PUSH1 0x20 ADD DUP3 DUP1 SLOAD PUSH2 0x15EA SWAP1 PUSH2 0x386B JUMP JUMPDEST DUP1 ISZERO PUSH2 0x1637 JUMPI DUP1 PUSH1 0x1F LT PUSH2 0x160C JUMPI PUSH2 0x100 DUP1 DUP4 SLOAD DIV MUL DUP4 MSTORE SWAP2 PUSH1 0x20 ADD SWAP2 PUSH2 0x1637 JUMP JUMPDEST DUP3 ADD SWAP2 SWAP1 PUSH1 0x0 MSTORE PUSH1 0x20 PUSH1 0x0 KECCAK256 SWAP1 JUMPDEST DUP2 SLOAD DUP2 MSTORE SWAP1 PUSH1 0x1 ADD SWAP1 PUSH1 0x20 ADD DUP1 DUP4 GT PUSH2 0x161A JUMPI DUP3 SWAP1 SUB PUSH1 0x1F AND DUP3 ADD SWAP2 JUMPDEST POP POP POP POP POP SWAP1 POP SWAP1 JUMP JUMPDEST PUSH2 0x1649 PUSH2 0x1A65 JUMP JUMPDEST PUSH20 0xFFFFFFFFFFFFFFFFFFFFFFFFFFFFFFFFFFFFFFFF AND DUP3 PUSH20 0xFFFFFFFFFFFFFFFFFFFFFFFFFFFFFFFFFFFFFFFF AND EQ ISZERO PUSH2 0x16B7 JUMPI PUSH1 0x40 MLOAD PUSH32 0x8C379A000000000000000000000000000000000000000000000000000000000 DUP2 MSTORE PUSH1 0x4 ADD PUSH2 0x16AE SWAP1 PUSH2 0x3356 JUMP JUMPDEST PUSH1 0x40 MLOAD DUP1 SWAP2 SUB SWAP1 REVERT JUMPDEST DUP1 PUSH1 0x6A PUSH1 0x0 PUSH2 0x16C4 PUSH2 0x1A65 JUMP JUMPDEST PUSH20 0xFFFFFFFFFFFFFFFFFFFFFFFFFFFFFFFFFFFFFFFF AND PUSH20 0xFFFFFFFFFFFFFFFFFFFFFFFFFFFFFFFFFFFFFFFF AND DUP2 MSTORE PUSH1 0x20 ADD SWAP1 DUP2 MSTORE PUSH1 0x20 ADD PUSH1 0x0 KECCAK256 PUSH1 0x0 DUP5 PUSH20 0xFFFFFFFFFFFFFFFFFFFFFFFFFFFFFFFFFFFFFFFF AND PUSH20 0xFFFFFFFFFFFFFFFFFFFFFFFFFFFFFFFFFFFFFFFF AND DUP2 MSTORE PUSH1 0x20 ADD SWAP1 DUP2 MSTORE PUSH1 0x20 ADD PUSH1 0x0 KECCAK256 PUSH1 0x0 PUSH2 0x100 EXP DUP2 SLOAD DUP2 PUSH1 0xFF MUL NOT AND SWAP1 DUP4 ISZERO ISZERO MUL OR SWAP1 SSTORE POP DUP2 PUSH20 0xFFFFFFFFFFFFFFFFFFFFFFFFFFFFFFFFFFFFFFFF AND PUSH2 0x1771 PUSH2 0x1A65 JUMP JUMPDEST PUSH20 0xFFFFFFFFFFFFFFFFFFFFFFFFFFFFFFFFFFFFFFFF AND PUSH32 0x17307EAB39AB6107E8899845AD3D59BD9653F200F220920489CA2B5937696C31 DUP4 PUSH1 0x40 MLOAD PUSH2 0x17B6 SWAP2 SWAP1 PUSH2 0x3253 JUMP JUMPDEST PUSH1 0x40 MLOAD DUP1 SWAP2 SUB SWAP1 LOG3 POP POP JUMP JUMPDEST PUSH1 0x99 SLOAD DUP2 JUMP JUMPDEST PUSH1 0x9B PUSH1 0x0 SWAP1 SLOAD SWAP1 PUSH2 0x100 EXP SWAP1 DIV PUSH1 0x1 SIGNEXTEND DUP2 JUMP JUMPDEST PUSH2 0x17EC PUSH2 0x17E6 PUSH2 0x1A65 JUMP JUMPDEST DUP4 PUSH2 0x1B26 JUMP JUMPDEST PUSH2 0x182B JUMPI PUSH1 0x40 MLOAD PUSH32 0x8C379A000000000000000000000000000000000000000000000000000000000 DUP2 MSTORE PUSH1 0x4 ADD PUSH2 0x1822 SWAP1 PUSH2 0x34D6 JUMP JUMPDEST PUSH1 0x40 MLOAD DUP1 SWAP2 SUB SWAP1 REVERT JUMPDEST PUSH2 0x1837 DUP5 DUP5 DUP5 DUP5 PUSH2 0x2221 JUMP JUMPDEST POP POP POP POP JUMP JUMPDEST PUSH1 0x60 PUSH1 0x0 DUP3 EQ PUSH2 0x1882 JUMPI PUSH1 0x40 MLOAD PUSH32 0x8C379A000000000000000000000000000000000000000000000000000000000 DUP2 MSTORE PUSH1 0x4 ADD PUSH2 0x1879 SWAP1 PUSH2 0x3396 JUMP JUMPDEST PUSH1 0x40 MLOAD DUP1 SWAP2 SUB SWAP1 REVERT JUMPDEST PUSH1 0x98 PUSH2 0x18D4 PUSH1 0x97 PUSH1 0x14 SWAP1 SLOAD SWAP1 PUSH2 0x100 EXP SWAP1 DIV PUSH1 0xFF AND PUSH1 0x6 DUP2 GT ISZERO PUSH2 0x18CF JUMPI PUSH32 0x4E487B7100000000000000000000000000000000000000000000000000000000 PUSH1 0x0 MSTORE PUSH1 0x21 PUSH1 0x4 MSTORE PUSH1 0x24 PUSH1 0x0 REVERT JUMPDEST PUSH2 0x227D JUMP JUMPDEST PUSH1 0x40 MLOAD PUSH1 0x20 ADD PUSH2 0x18E5 SWAP3 SWAP2 SWAP1 PUSH2 0x31C8 JUMP JUMPDEST PUSH1 0x40 MLOAD PUSH1 0x20 DUP2 DUP4 SUB SUB DUP2 MSTORE SWAP1 PUSH1 0x40 MSTORE SWAP1 POP SWAP2 SWAP1 POP JUMP JUMPDEST PUSH1 0x0 PUSH1 0x6A PUSH1 0x0 DUP5 PUSH20 0xFFFFFFFFFFFFFFFFFFFFFFFFFFFFFFFFFFFFFFFF AND PUSH20 0xFFFFFFFFFFFFFFFFFFFFFFFFFFFFFFFFFFFFFFFF AND DUP2 MSTORE PUSH1 0x20 ADD SWAP1 DUP2 MSTORE PUSH1 0x20 ADD PUSH1 0x0 KECCAK256 PUSH1 0x0 DUP4 PUSH20 0xFFFFFFFFFFFFFFFFFFFFFFFFFFFFFFFFFFFFFFFF AND PUSH20 0xFFFFFFFFFFFFFFFFFFFFFFFFFFFFFFFFFFFFFFFF AND DUP2 MSTORE PUSH1 0x20 ADD SWAP1 DUP2 MSTORE PUSH1 0x20 ADD PUSH1 0x0 KECCAK256 PUSH1 0x0 SWAP1 SLOAD SWAP1 PUSH2 0x100 EXP SWAP1 DIV PUSH1 0xFF AND SWAP1 POP SWAP3 SWAP2 POP POP JUMP JUMPDEST PUSH1 0x0 PUSH32 0x1FFC9A700000000000000000000000000000000000000000000000000000000 PUSH28 0xFFFFFFFFFFFFFFFFFFFFFFFFFFFFFFFFFFFFFFFFFFFFFFFFFFFFFFFF NOT AND DUP3 PUSH28 0xFFFFFFFFFFFFFFFFFFFFFFFFFFFFFFFFFFFFFFFFFFFFFFFFFFFFFFFF NOT AND EQ SWAP1 POP SWAP2 SWAP1 POP JUMP JUMPDEST PUSH1 0x0 DUP1 PUSH20 0xFFFFFFFFFFFFFFFFFFFFFFFFFFFFFFFFFFFFFFFF AND PUSH1 0x67 PUSH1 0x0 DUP5 DUP2 MSTORE PUSH1 0x20 ADD SWAP1 DUP2 MSTORE PUSH1 0x20 ADD PUSH1 0x0 KECCAK256 PUSH1 0x0 SWAP1 SLOAD SWAP1 PUSH2 0x100 EXP SWAP1 DIV PUSH20 0xFFFFFFFFFFFFFFFFFFFFFFFFFFFFFFFFFFFFFFFF AND PUSH20 0xFFFFFFFFFFFFFFFFFFFFFFFFFFFFFFFFFFFFFFFF AND EQ ISZERO SWAP1 POP SWAP2 SWAP1 POP JUMP JUMPDEST PUSH1 0x0 CALLER SWAP1 POP SWAP1 JUMP JUMPDEST DUP2 PUSH1 0x69 PUSH1 0x0 DUP4 DUP2 MSTORE PUSH1 0x20 ADD SWAP1 DUP2 MSTORE PUSH1 0x20 ADD PUSH1 0x0 KECCAK256 PUSH1 0x0 PUSH2 0x100 EXP DUP2 SLOAD DUP2 PUSH20 0xFFFFFFFFFFFFFFFFFFFFFFFFFFFFFFFFFFFFFFFF MUL NOT AND SWAP1 DUP4 PUSH20 0xFFFFFFFFFFFFFFFFFFFFFFFFFFFFFFFFFFFFFFFF AND MUL OR SWAP1 SSTORE POP DUP1 DUP3 PUSH20 0xFFFFFFFFFFFFFFFFFFFFFFFFFFFFFFFFFFFFFFFF AND PUSH2 0x1AE0 DUP4 PUSH2 0x789 JUMP JUMPDEST PUSH20 0xFFFFFFFFFFFFFFFFFFFFFFFFFFFFFFFFFFFFFFFF AND PUSH32 0x8C5BE1E5EBEC7D5BD14F71427D1E84F3DD0314C0F7B2291E5B200AC8C7C3B925 PUSH1 0x40 MLOAD PUSH1 0x40 MLOAD DUP1 SWAP2 SUB SWAP1 LOG4 POP POP JUMP JUMPDEST PUSH1 0x0 PUSH2 0x1B31 DUP3 PUSH2 0x19F9 JUMP JUMPDEST PUSH2 0x1B70 JUMPI PUSH1 0x40 MLOAD PUSH32 0x8C379A000000000000000000000000000000000000000000000000000000000 DUP2 MSTORE PUSH1 0x4 ADD PUSH2 0x1B67 SWAP1 PUSH2 0x3376 JUMP JUMPDEST PUSH1 0x40 MLOAD DUP1 SWAP2 SUB SWAP1 REVERT JUMPDEST PUSH1 0x0 PUSH2 0x1B7B DUP4 PUSH2 0x789 JUMP JUMPDEST SWAP1 POP DUP1 PUSH20 0xFFFFFFFFFFFFFFFFFFFFFFFFFFFFFFFFFFFFFFFF AND DUP5 PUSH20 0xFFFFFFFFFFFFFFFFFFFFFFFFFFFFFFFFFFFFFFFF AND EQ DUP1 PUSH2 0x1BEA JUMPI POP DUP4 PUSH20 0xFFFFFFFFFFFFFFFFFFFFFFFFFFFFFFFFFFFFFFFF AND PUSH2 0x1BD2 DUP5 PUSH2 0x55A JUMP JUMPDEST PUSH20 0xFFFFFFFFFFFFFFFFFFFFFFFFFFFFFFFFFFFFFFFF AND EQ JUMPDEST DUP1 PUSH2 0x1BFB JUMPI POP PUSH2 0x1BFA DUP2 DUP6 PUSH2 0x18FB JUMP JUMPDEST JUMPDEST SWAP2 POP POP SWAP3 SWAP2 POP POP JUMP JUMPDEST DUP3 PUSH20 0xFFFFFFFFFFFFFFFFFFFFFFFFFFFFFFFFFFFFFFFF AND PUSH2 0x1C24 DUP3 PUSH2 0x789 JUMP JUMPDEST PUSH20 0xFFFFFFFFFFFFFFFFFFFFFFFFFFFFFFFFFFFFFFFF AND EQ PUSH2 0x1C7A JUMPI PUSH1 0x40 MLOAD PUSH32 0x8C379A000000000000000000000000000000000000000000000000000000000 DUP2 MSTORE PUSH1 0x4 ADD PUSH2 0x1C71 SWAP1 PUSH2 0x3496 JUMP JUMPDEST PUSH1 0x40 MLOAD DUP1 SWAP2 SUB SWAP1 REVERT JUMPDEST PUSH1 0x0 PUSH20 0xFFFFFFFFFFFFFFFFFFFFFFFFFFFFFFFFFFFFFFFF AND DUP3 PUSH20 0xFFFFFFFFFFFFFFFFFFFFFFFFFFFFFFFFFFFFFFFF AND EQ ISZERO PUSH2 0x1CEA JUMPI PUSH1 0x40 MLOAD PUSH32 0x8C379A000000000000000000000000000000000000000000000000000000000 DUP2 MSTORE PUSH1 0x4 ADD PUSH2 0x1CE1 SWAP1 PUSH2 0x3336 JUMP JUMPDEST PUSH1 0x40 MLOAD DUP1 SWAP2 SUB SWAP1 REVERT JUMPDEST PUSH2 0x1CF5 DUP4 DUP4 DUP4 PUSH2 0x242A JUMP JUMPDEST PUSH2 0x1D00 PUSH1 0x0 DUP3 PUSH2 0x1A6D JUMP JUMPDEST PUSH1 0x1 PUSH1 0x68 PUSH1 0x0 DUP6 PUSH20 0xFFFFFFFFFFFFFFFFFFFFFFFFFFFFFFFFFFFFFFFF AND PUSH20 0xFFFFFFFFFFFFFFFFFFFFFFFFFFFFFFFFFFFFFFFF AND DUP2 MSTORE PUSH1 0x20 ADD SWAP1 DUP2 MSTORE PUSH1 0x20 ADD PUSH1 0x0 KECCAK256 PUSH1 0x0 DUP3 DUP3 SLOAD PUSH2 0x1D50 SWAP2 SWAP1 PUSH2 0x370B JUMP JUMPDEST SWAP3 POP POP DUP2 SWAP1 SSTORE POP PUSH1 0x1 PUSH1 0x68 PUSH1 0x0 DUP5 PUSH20 0xFFFFFFFFFFFFFFFFFFFFFFFFFFFFFFFFFFFFFFFF AND PUSH20 0xFFFFFFFFFFFFFFFFFFFFFFFFFFFFFFFFFFFFFFFF AND DUP2 MSTORE PUSH1 0x20 ADD SWAP1 DUP2 MSTORE PUSH1 0x20 ADD PUSH1 0x0 KECCAK256 PUSH1 0x0 DUP3 DUP3 SLOAD PUSH2 0x1DA7 SWAP2 SWAP1 PUSH2 0x35F0 JUMP JUMPDEST SWAP3 POP POP DUP2 SWAP1 SSTORE POP DUP2 PUSH1 0x67 PUSH1 0x0 DUP4 DUP2 MSTORE PUSH1 0x20 ADD SWAP1 DUP2 MSTORE PUSH1 0x20 ADD PUSH1 0x0 KECCAK256 PUSH1 0x0 PUSH2 0x100 EXP DUP2 SLOAD DUP2 PUSH20 0xFFFFFFFFFFFFFFFFFFFFFFFFFFFFFFFFFFFFFFFF MUL NOT AND SWAP1 DUP4 PUSH20 0xFFFFFFFFFFFFFFFFFFFFFFFFFFFFFFFFFFFFFFFF AND MUL OR SWAP1 SSTORE POP DUP1 DUP3 PUSH20 0xFFFFFFFFFFFFFFFFFFFFFFFFFFFFFFFFFFFFFFFF AND DUP5 PUSH20 0xFFFFFFFFFFFFFFFFFFFFFFFFFFFFFFFFFFFFFFFF AND PUSH32 0xDDF252AD1BE2C89B69C2B068FC378DAA952BA7F163C4A11628F55A4DF523B3EF PUSH1 0x40 MLOAD PUSH1 0x40 MLOAD DUP1 SWAP2 SUB SWAP1 LOG4 POP POP POP JUMP JUMPDEST PUSH1 0x0 DUP1 PUSH1 0x0 DUP1 PUSH1 0x0 DUP1 PUSH1 0x0 PUSH1 0x97 PUSH1 0x0 SWAP1 SLOAD SWAP1 PUSH2 0x100 EXP SWAP1 DIV PUSH20 0xFFFFFFFFFFFFFFFFFFFFFFFFFFFFFFFFFFFFFFFF AND PUSH20 0xFFFFFFFFFFFFFFFFFFFFFFFFFFFFFFFFFFFFFFFF AND PUSH4 0xFEAF968C PUSH1 0x40 MLOAD DUP2 PUSH4 0xFFFFFFFF AND PUSH1 0xE0 SHL DUP2 MSTORE PUSH1 0x4 ADD PUSH1 0xA0 PUSH1 0x40 MLOAD DUP1 DUP4 SUB DUP2 DUP7 DUP1 EXTCODESIZE ISZERO DUP1 ISZERO PUSH2 0x1ED3 JUMPI PUSH1 0x0 DUP1 REVERT JUMPDEST POP GAS STATICCALL ISZERO DUP1 ISZERO PUSH2 0x1EE7 JUMPI RETURNDATASIZE PUSH1 0x0 DUP1 RETURNDATACOPY RETURNDATASIZE PUSH1 0x0 REVERT JUMPDEST POP POP POP POP PUSH1 0x40 MLOAD RETURNDATASIZE PUSH1 0x1F NOT PUSH1 0x1F DUP3 ADD AND DUP3 ADD DUP1 PUSH1 0x40 MSTORE POP DUP2 ADD SWAP1 PUSH2 0x1F0B SWAP2 SWAP1 PUSH2 0x2DB4 JUMP JUMPDEST SWAP5 POP SWAP5 POP SWAP5 POP SWAP5 POP SWAP5 POP DUP4 DUP3 SWAP7 POP SWAP7 POP POP POP POP POP POP SWAP1 SWAP2 JUMP JUMPDEST PUSH1 0x0 DUP1 PUSH3 0x15180 SWAP1 POP PUSH1 0x0 DUP2 PUSH4 0xFFFFFFFF AND DUP5 PUSH2 0x1F41 SWAP2 SWAP1 PUSH2 0x3942 JUMP JUMPDEST SWAP1 POP PUSH1 0x0 DUP2 DUP6 PUSH2 0x1F51 SWAP2 SWAP1 PUSH2 0x370B JUMP JUMPDEST SWAP1 POP DUP1 SWAP4 POP POP POP POP SWAP2 SWAP1 POP JUMP JUMPDEST PUSH1 0x0 PUSH1 0x1 SWAP1 SLOAD SWAP1 PUSH2 0x100 EXP SWAP1 DIV PUSH1 0xFF AND DUP1 PUSH2 0x1F84 JUMPI POP PUSH1 0x0 DUP1 SLOAD SWAP1 PUSH2 0x100 EXP SWAP1 DIV PUSH1 0xFF AND ISZERO JUMPDEST PUSH2 0x1FC3 JUMPI PUSH1 0x40 MLOAD PUSH32 0x8C379A000000000000000000000000000000000000000000000000000000000 DUP2 MSTORE PUSH1 0x4 ADD PUSH2 0x1FBA SWAP1 PUSH2 0x3436 JUMP JUMPDEST PUSH1 0x40 MLOAD DUP1 SWAP2 SUB SWAP1 REVERT JUMPDEST PUSH1 0x0 DUP1 PUSH1 0x1 SWAP1 SLOAD SWAP1 PUSH2 0x100 EXP SWAP1 DIV PUSH1 0xFF AND ISZERO SWAP1 POP DUP1 ISZERO PUSH2 0x2013 JUMPI PUSH1 0x1 PUSH1 0x0 PUSH1 0x1 PUSH2 0x100 EXP DUP2 SLOAD DUP2 PUSH1 0xFF MUL NOT AND SWAP1 DUP4 ISZERO ISZERO MUL OR SWAP1 SSTORE POP PUSH1 0x1 PUSH1 0x0 DUP1 PUSH2 0x100 EXP DUP2 SLOAD DUP2 PUSH1 0xFF MUL NOT AND SWAP1 DUP4 ISZERO ISZERO MUL OR SWAP1 SSTORE POP JUMPDEST PUSH2 0x201B PUSH2 0x242F JUMP JUMPDEST PUSH2 0x2023 PUSH2 0x2508 JUMP JUMPDEST PUSH2 0x202D DUP4 DUP4 PUSH2 0x25E1 JUMP JUMPDEST DUP1 ISZERO PUSH2 0x204E JUMPI PUSH1 0x0 DUP1 PUSH1 0x1 PUSH2 0x100 EXP DUP2 SLOAD DUP2 PUSH1 0xFF MUL NOT AND SWAP1 DUP4 ISZERO ISZERO MUL OR SWAP1 SSTORE POP JUMPDEST POP POP POP JUMP JUMPDEST PUSH1 0x0 PUSH20 0xFFFFFFFFFFFFFFFFFFFFFFFFFFFFFFFFFFFFFFFF AND DUP3 PUSH20 0xFFFFFFFFFFFFFFFFFFFFFFFFFFFFFFFFFFFFFFFF AND EQ ISZERO PUSH2 0x20C3 JUMPI PUSH1 0x40 MLOAD PUSH32 0x8C379A000000000000000000000000000000000000000000000000000000000 DUP2 MSTORE PUSH1 0x4 ADD PUSH2 0x20BA SWAP1 PUSH2 0x3456 JUMP JUMPDEST PUSH1 0x40 MLOAD DUP1 SWAP2 SUB SWAP1 REVERT JUMPDEST PUSH2 0x20CC DUP2 PUSH2 0x19F9 JUMP JUMPDEST ISZERO PUSH2 0x210C JUMPI PUSH1 0x40 MLOAD PUSH32 0x8C379A000000000000000000000000000000000000000000000000000000000 DUP2 MSTORE PUSH1 0x4 ADD PUSH2 0x2103 SWAP1 PUSH2 0x3316 JUMP JUMPDEST PUSH1 0x40 MLOAD DUP1 SWAP2 SUB SWAP1 REVERT JUMPDEST PUSH2 0x2118 PUSH1 0x0 DUP4 DUP4 PUSH2 0x242A JUMP JUMPDEST PUSH1 0x1 PUSH1 0x68 PUSH1 0x0 DUP5 PUSH20 0xFFFFFFFFFFFFFFFFFFFFFFFFFFFFFFFFFFFFFFFF AND PUSH20 0xFFFFFFFFFFFFFFFFFFFFFFFFFFFFFFFFFFFFFFFF AND DUP2 MSTORE PUSH1 0x20 ADD SWAP1 DUP2 MSTORE PUSH1 0x20 ADD PUSH1 0x0 KECCAK256 PUSH1 0x0 DUP3 DUP3 SLOAD PUSH2 0x2168 SWAP2 SWAP1 PUSH2 0x35F0 JUMP JUMPDEST SWAP3 POP POP DUP2 SWAP1 SSTORE POP DUP2 PUSH1 0x67 PUSH1 0x0 DUP4 DUP2 MSTORE PUSH1 0x20 ADD SWAP1 DUP2 MSTORE PUSH1 0x20 ADD PUSH1 0x0 KECCAK256 PUSH1 0x0 PUSH2 0x100 EXP DUP2 SLOAD DUP2 PUSH20 0xFFFFFFFFFFFFFFFFFFFFFFFFFFFFFFFFFFFFFFFF MUL NOT AND SWAP1 DUP4 PUSH20 0xFFFFFFFFFFFFFFFFFFFFFFFFFFFFFFFFFFFFFFFF AND MUL OR SWAP1 SSTORE POP DUP1 DUP3 PUSH20 0xFFFFFFFFFFFFFFFFFFFFFFFFFFFFFFFFFFFFFFFF AND PUSH1 0x0 PUSH20 0xFFFFFFFFFFFFFFFFFFFFFFFFFFFFFFFFFFFFFFFF AND PUSH32 0xDDF252AD1BE2C89B69C2B068FC378DAA952BA7F163C4A11628F55A4DF523B3EF PUSH1 0x40 MLOAD PUSH1 0x40 MLOAD DUP1 SWAP2 SUB SWAP1 LOG4 POP POP JUMP JUMPDEST PUSH2 0x222C DUP5 DUP5 DUP5 PUSH2 0x1C04 JUMP JUMPDEST PUSH2 0x2238 DUP5 DUP5 DUP5 DUP5 PUSH2 0x26EA JUMP JUMPDEST PUSH2 0x2277 JUMPI PUSH1 0x40 MLOAD PUSH32 0x8C379A000000000000000000000000000000000000000000000000000000000 DUP2 MSTORE PUSH1 0x4 ADD PUSH2 0x226E SWAP1 PUSH2 0x32F6 JUMP JUMPDEST PUSH1 0x40 MLOAD DUP1 SWAP2 SUB SWAP1 REVERT JUMPDEST POP POP POP POP JUMP JUMPDEST PUSH1 0x60 PUSH1 0x0 DUP3 EQ ISZERO PUSH2 0x22C5 JUMPI PUSH1 0x40 MLOAD DUP1 PUSH1 0x40 ADD PUSH1 0x40 MSTORE DUP1 PUSH1 0x1 DUP2 MSTORE PUSH1 0x20 ADD PUSH32 0x3000000000000000000000000000000000000000000000000000000000000000 DUP2 MSTORE POP SWAP1 POP PUSH2 0x2425 JUMP JUMPDEST PUSH1 0x0 DUP3 SWAP1 POP PUSH1 0x0 JUMPDEST PUSH1 0x0 DUP3 EQ PUSH2 0x22F7 JUMPI DUP1 DUP1 PUSH2 0x22E0 SWAP1 PUSH2 0x38F9 JUMP JUMPDEST SWAP2 POP POP PUSH1 0xA DUP3 PUSH2 0x22F0 SWAP2 SWAP1 PUSH2 0x3646 JUMP JUMPDEST SWAP2 POP PUSH2 0x22CD JUMP JUMPDEST PUSH1 0x0 DUP2 PUSH8 0xFFFFFFFFFFFFFFFF DUP2 GT ISZERO PUSH2 0x2339 JUMPI PUSH32 0x4E487B7100000000000000000000000000000000000000000000000000000000 PUSH1 0x0 MSTORE PUSH1 0x41 PUSH1 0x4 MSTORE PUSH1 0x24 PUSH1 0x0 REVERT JUMPDEST PUSH1 0x40 MLOAD SWAP1 DUP1 DUP3 MSTORE DUP1 PUSH1 0x1F ADD PUSH1 0x1F NOT AND PUSH1 0x20 ADD DUP3 ADD PUSH1 0x40 MSTORE DUP1 ISZERO PUSH2 0x236B JUMPI DUP2 PUSH1 0x20 ADD PUSH1 0x1 DUP3 MUL DUP1 CALLDATASIZE DUP4 CALLDATACOPY DUP1 DUP3 ADD SWAP2 POP POP SWAP1 POP JUMPDEST POP SWAP1 POP JUMPDEST PUSH1 0x0 DUP6 EQ PUSH2 0x241E JUMPI PUSH1 0x1 DUP3 PUSH2 0x2384 SWAP2 SWAP1 PUSH2 0x370B JUMP JUMPDEST SWAP2 POP PUSH1 0xA DUP6 PUSH2 0x2393 SWAP2 SWAP1 PUSH2 0x3942 JUMP JUMPDEST PUSH1 0x30 PUSH2 0x239F SWAP2 SWAP1 PUSH2 0x35F0 JUMP JUMPDEST PUSH1 0xF8 SHL DUP2 DUP4 DUP2 MLOAD DUP2 LT PUSH2 0x23DB JUMPI PUSH32 0x4E487B7100000000000000000000000000000000000000000000000000000000 PUSH1 0x0 MSTORE PUSH1 0x32 PUSH1 0x4 MSTORE PUSH1 0x24 PUSH1 0x0 REVERT JUMPDEST PUSH1 0x20 ADD ADD SWAP1 PUSH31 0xFFFFFFFFFFFFFFFFFFFFFFFFFFFFFFFFFFFFFFFFFFFFFFFFFFFFFFFFFFFFFF NOT AND SWAP1 DUP2 PUSH1 0x0 BYTE SWAP1 MSTORE8 POP PUSH1 0xA DUP6 PUSH2 0x2417 SWAP2 SWAP1 PUSH2 0x3646 JUMP JUMPDEST SWAP5 POP PUSH2 0x236F JUMP JUMPDEST DUP1 SWAP4 POP POP POP POP JUMPDEST SWAP2 SWAP1 POP JUMP JUMPDEST POP POP POP JUMP JUMPDEST PUSH1 0x0 PUSH1 0x1 SWAP1 SLOAD SWAP1 PUSH2 0x100 EXP SWAP1 DIV PUSH1 0xFF AND DUP1 PUSH2 0x2455 JUMPI POP PUSH1 0x0 DUP1 SLOAD SWAP1 PUSH2 0x100 EXP SWAP1 DIV PUSH1 0xFF AND ISZERO JUMPDEST PUSH2 0x2494 JUMPI PUSH1 0x40 MLOAD PUSH32 0x8C379A000000000000000000000000000000000000000000000000000000000 DUP2 MSTORE PUSH1 0x4 ADD PUSH2 0x248B SWAP1 PUSH2 0x3436 JUMP JUMPDEST PUSH1 0x40 MLOAD DUP1 SWAP2 SUB SWAP1 REVERT JUMPDEST PUSH1 0x0 DUP1 PUSH1 0x1 SWAP1 SLOAD SWAP1 PUSH2 0x100 EXP SWAP1 DIV PUSH1 0xFF AND ISZERO SWAP1 POP DUP1 ISZERO PUSH2 0x24E4 JUMPI PUSH1 0x1 PUSH1 0x0 PUSH1 0x1 PUSH2 0x100 EXP DUP2 SLOAD DUP2 PUSH1 0xFF MUL NOT AND SWAP1 DUP4 ISZERO ISZERO MUL OR SWAP1 SSTORE POP PUSH1 0x1 PUSH1 0x0 DUP1 PUSH2 0x100 EXP DUP2 SLOAD DUP2 PUSH1 0xFF MUL NOT AND SWAP1 DUP4 ISZERO ISZERO MUL OR SWAP1 SSTORE POP JUMPDEST DUP1 ISZERO PUSH2 0x2505 JUMPI PUSH1 0x0 DUP1 PUSH1 0x1 PUSH2 0x100 EXP DUP2 SLOAD DUP2 PUSH1 0xFF MUL NOT AND SWAP1 DUP4 ISZERO ISZERO MUL OR SWAP1 SSTORE POP JUMPDEST POP JUMP JUMPDEST PUSH1 0x0 PUSH1 0x1 SWAP1 SLOAD SWAP1 PUSH2 0x100 EXP SWAP1 DIV PUSH1 0xFF AND DUP1 PUSH2 0x252E JUMPI POP PUSH1 0x0 DUP1 SLOAD SWAP1 PUSH2 0x100 EXP SWAP1 DIV PUSH1 0xFF AND ISZERO JUMPDEST PUSH2 0x256D JUMPI PUSH1 0x40 MLOAD PUSH32 0x8C379A000000000000000000000000000000000000000000000000000000000 DUP2 MSTORE PUSH1 0x4 ADD PUSH2 0x2564 SWAP1 PUSH2 0x3436 JUMP JUMPDEST PUSH1 0x40 MLOAD DUP1 SWAP2 SUB SWAP1 REVERT JUMPDEST PUSH1 0x0 DUP1 PUSH1 0x1 SWAP1 SLOAD SWAP1 PUSH2 0x100 EXP SWAP1 DIV PUSH1 0xFF AND ISZERO SWAP1 POP DUP1 ISZERO PUSH2 0x25BD JUMPI PUSH1 0x1 PUSH1 0x0 PUSH1 0x1 PUSH2 0x100 EXP DUP2 SLOAD DUP2 PUSH1 0xFF MUL NOT AND SWAP1 DUP4 ISZERO ISZERO MUL OR SWAP1 SSTORE POP PUSH1 0x1 PUSH1 0x0 DUP1 PUSH2 0x100 EXP DUP2 SLOAD DUP2 PUSH1 0xFF MUL NOT AND SWAP1 DUP4 ISZERO ISZERO MUL OR SWAP1 SSTORE POP JUMPDEST DUP1 ISZERO PUSH2 0x25DE JUMPI PUSH1 0x0 DUP1 PUSH1 0x1 PUSH2 0x100 EXP DUP2 SLOAD DUP2 PUSH1 0xFF MUL NOT AND SWAP1 DUP4 ISZERO ISZERO MUL OR SWAP1 SSTORE POP JUMPDEST POP JUMP JUMPDEST PUSH1 0x0 PUSH1 0x1 SWAP1 SLOAD SWAP1 PUSH2 0x100 EXP SWAP1 DIV PUSH1 0xFF AND DUP1 PUSH2 0x2607 JUMPI POP PUSH1 0x0 DUP1 SLOAD SWAP1 PUSH2 0x100 EXP SWAP1 DIV PUSH1 0xFF AND ISZERO JUMPDEST PUSH2 0x2646 JUMPI PUSH1 0x40 MLOAD PUSH32 0x8C379A000000000000000000000000000000000000000000000000000000000 DUP2 MSTORE PUSH1 0x4 ADD PUSH2 0x263D SWAP1 PUSH2 0x3436 JUMP JUMPDEST PUSH1 0x40 MLOAD DUP1 SWAP2 SUB SWAP1 REVERT JUMPDEST PUSH1 0x0 DUP1 PUSH1 0x1 SWAP1 SLOAD SWAP1 PUSH2 0x100 EXP SWAP1 DIV PUSH1 0xFF AND ISZERO SWAP1 POP DUP1 ISZERO PUSH2 0x2696 JUMPI PUSH1 0x1 PUSH1 0x0 PUSH1 0x1 PUSH2 0x100 EXP DUP2 SLOAD DUP2 PUSH1 0xFF MUL NOT AND SWAP1 DUP4 ISZERO ISZERO MUL OR SWAP1 SSTORE POP PUSH1 0x1 PUSH1 0x0 DUP1 PUSH2 0x100 EXP DUP2 SLOAD DUP2 PUSH1 0xFF MUL NOT AND SWAP1 DUP4 ISZERO ISZERO MUL OR SWAP1 SSTORE POP JUMPDEST DUP3 PUSH1 0x65 SWAP1 DUP1 MLOAD SWAP1 PUSH1 0x20 ADD SWAP1 PUSH2 0x26AC SWAP3 SWAP2 SWAP1 PUSH2 0x2894 JUMP JUMPDEST POP DUP2 PUSH1 0x66 SWAP1 DUP1 MLOAD SWAP1 PUSH1 0x20 ADD SWAP1 PUSH2 0x26C3 SWAP3 SWAP2 SWAP1 PUSH2 0x2894 JUMP JUMPDEST POP DUP1 ISZERO PUSH2 0x26E5 JUMPI PUSH1 0x0 DUP1 PUSH1 0x1 PUSH2 0x100 EXP DUP2 SLOAD DUP2 PUSH1 0xFF MUL NOT AND SWAP1 DUP4 ISZERO ISZERO MUL OR SWAP1 SSTORE POP JUMPDEST POP POP POP JUMP JUMPDEST PUSH1 0x0 PUSH2 0x270B DUP5 PUSH20 0xFFFFFFFFFFFFFFFFFFFFFFFFFFFFFFFFFFFFFFFF AND PUSH2 0x2881 JUMP JUMPDEST ISZERO PUSH2 0x2874 JUMPI DUP4 PUSH20 0xFFFFFFFFFFFFFFFFFFFFFFFFFFFFFFFFFFFFFFFF AND PUSH4 0x150B7A02 PUSH2 0x2734 PUSH2 0x1A65 JUMP JUMPDEST DUP8 DUP7 DUP7 PUSH1 0x40 MLOAD DUP6 PUSH4 0xFFFFFFFF AND PUSH1 0xE0 SHL DUP2 MSTORE PUSH1 0x4 ADD PUSH2 0x2756 SWAP5 SWAP4 SWAP3 SWAP2 SWAP1 PUSH2 0x3207 JUMP JUMPDEST PUSH1 0x20 PUSH1 0x40 MLOAD DUP1 DUP4 SUB DUP2 PUSH1 0x0 DUP8 DUP1 EXTCODESIZE ISZERO DUP1 ISZERO PUSH2 0x2770 JUMPI PUSH1 0x0 DUP1 REVERT JUMPDEST POP GAS CALL SWAP3 POP POP POP DUP1 ISZERO PUSH2 0x27A1 JUMPI POP PUSH1 0x40 MLOAD RETURNDATASIZE PUSH1 0x1F NOT PUSH1 0x1F DUP3 ADD AND DUP3 ADD DUP1 PUSH1 0x40 MSTORE POP DUP2 ADD SWAP1 PUSH2 0x279E SWAP2 SWAP1 PUSH2 0x2CC9 JUMP JUMPDEST PUSH1 0x1 JUMPDEST PUSH2 0x2824 JUMPI RETURNDATASIZE DUP1 PUSH1 0x0 DUP2 EQ PUSH2 0x27D1 JUMPI PUSH1 0x40 MLOAD SWAP2 POP PUSH1 0x1F NOT PUSH1 0x3F RETURNDATASIZE ADD AND DUP3 ADD PUSH1 0x40 MSTORE RETURNDATASIZE DUP3 MSTORE RETURNDATASIZE PUSH1 0x0 PUSH1 0x20 DUP5 ADD RETURNDATACOPY PUSH2 0x27D6 JUMP JUMPDEST PUSH1 0x60 SWAP2 POP JUMPDEST POP PUSH1 0x0 DUP2 MLOAD EQ ISZERO PUSH2 0x281C JUMPI PUSH1 0x40 MLOAD PUSH32 0x8C379A000000000000000000000000000000000000000000000000000000000 DUP2 MSTORE PUSH1 0x4 ADD PUSH2 0x2813 SWAP1 PUSH2 0x32F6 JUMP JUMPDEST PUSH1 0x40 MLOAD DUP1 SWAP2 SUB SWAP1 REVERT JUMPDEST DUP1 MLOAD DUP2 PUSH1 0x20 ADD REVERT JUMPDEST PUSH4 0x150B7A02 PUSH1 0xE0 SHL PUSH28 0xFFFFFFFFFFFFFFFFFFFFFFFFFFFFFFFFFFFFFFFFFFFFFFFFFFFFFFFF NOT AND DUP2 PUSH28 0xFFFFFFFFFFFFFFFFFFFFFFFFFFFFFFFFFFFFFFFFFFFFFFFFFFFFFFFF NOT AND EQ SWAP2 POP POP PUSH2 0x2879 JUMP JUMPDEST PUSH1 0x1 SWAP1 POP JUMPDEST SWAP5 SWAP4 POP POP POP POP JUMP JUMPDEST PUSH1 0x0 DUP1 DUP3 EXTCODESIZE SWAP1 POP PUSH1 0x0 DUP2 GT SWAP2 POP POP SWAP2 SWAP1 POP JUMP JUMPDEST DUP3 DUP1 SLOAD PUSH2 0x28A0 SWAP1 PUSH2 0x386B JUMP JUMPDEST SWAP1 PUSH1 0x0 MSTORE PUSH1 0x20 PUSH1 0x0 KECCAK256 SWAP1 PUSH1 0x1F ADD PUSH1 0x20 SWAP1 DIV DUP2 ADD SWAP3 DUP3 PUSH2 0x28C2 JUMPI PUSH1 0x0 DUP6 SSTORE PUSH2 0x2909 JUMP JUMPDEST DUP3 PUSH1 0x1F LT PUSH2 0x28DB JUMPI DUP1 MLOAD PUSH1 0xFF NOT AND DUP4 DUP1 ADD OR DUP6 SSTORE PUSH2 0x2909 JUMP JUMPDEST DUP3 DUP1 ADD PUSH1 0x1 ADD DUP6 SSTORE DUP3 ISZERO PUSH2 0x2909 JUMPI SWAP2 DUP3 ADD JUMPDEST DUP3 DUP2 GT ISZERO PUSH2 0x2908 JUMPI DUP3 MLOAD DUP3 SSTORE SWAP2 PUSH1 0x20 ADD SWAP2 SWAP1 PUSH1 0x1 ADD SWAP1 PUSH2 0x28ED JUMP JUMPDEST JUMPDEST POP SWAP1 POP PUSH2 0x2916 SWAP2 SWAP1 PUSH2 0x291A JUMP JUMPDEST POP SWAP1 JUMP JUMPDEST JUMPDEST DUP1 DUP3 GT ISZERO PUSH2 0x2933 JUMPI PUSH1 0x0 DUP2 PUSH1 0x0 SWAP1 SSTORE POP PUSH1 0x1 ADD PUSH2 0x291B JUMP JUMPDEST POP SWAP1 JUMP JUMPDEST PUSH1 0x0 PUSH2 0x294A PUSH2 0x2945 DUP5 PUSH2 0x3536 JUMP JUMPDEST PUSH2 0x3511 JUMP JUMPDEST SWAP1 POP DUP3 DUP2 MSTORE PUSH1 0x20 DUP2 ADD DUP5 DUP5 DUP5 ADD GT ISZERO PUSH2 0x2962 JUMPI PUSH1 0x0 DUP1 REVERT JUMPDEST PUSH2 0x296D DUP5 DUP3 DUP6 PUSH2 0x37E0 JUMP JUMPDEST POP SWAP4 SWAP3 POP POP POP JUMP JUMPDEST PUSH1 0x0 PUSH2 0x2988 PUSH2 0x2983 DUP5 PUSH2 0x3567 JUMP JUMPDEST PUSH2 0x3511 JUMP JUMPDEST SWAP1 POP DUP3 DUP2 MSTORE PUSH1 0x20 DUP2 ADD DUP5 DUP5 DUP5 ADD GT ISZERO PUSH2 0x29A0 JUMPI PUSH1 0x0 DUP1 REVERT JUMPDEST PUSH2 0x29AB DUP5 DUP3 DUP6 PUSH2 0x37E0 JUMP JUMPDEST POP SWAP4 SWAP3 POP POP POP JUMP JUMPDEST PUSH1 0x0 DUP2 CALLDATALOAD SWAP1 POP PUSH2 0x29C2 DUP2 PUSH2 0x3EBE JUMP JUMPDEST SWAP3 SWAP2 POP POP JUMP JUMPDEST PUSH1 0x0 DUP2 CALLDATALOAD SWAP1 POP PUSH2 0x29D7 DUP2 PUSH2 0x3ED5 JUMP JUMPDEST SWAP3 SWAP2 POP POP JUMP JUMPDEST PUSH1 0x0 DUP2 CALLDATALOAD SWAP1 POP PUSH2 0x29EC DUP2 PUSH2 0x3EEC JUMP JUMPDEST SWAP3 SWAP2 POP POP JUMP JUMPDEST PUSH1 0x0 DUP2 MLOAD SWAP1 POP PUSH2 0x2A01 DUP2 PUSH2 0x3EEC JUMP JUMPDEST SWAP3 SWAP2 POP POP JUMP JUMPDEST PUSH1 0x0 DUP1 DUP4 PUSH1 0x1F DUP5 ADD SLT PUSH2 0x2A19 JUMPI PUSH1 0x0 DUP1 REVERT JUMPDEST DUP3 CALLDATALOAD SWAP1 POP PUSH8 0xFFFFFFFFFFFFFFFF DUP2 GT ISZERO PUSH2 0x2A32 JUMPI PUSH1 0x0 DUP1 REVERT JUMPDEST PUSH1 0x20 DUP4 ADD SWAP2 POP DUP4 PUSH1 0x1 DUP3 MUL DUP4 ADD GT ISZERO PUSH2 0x2A4A JUMPI PUSH1 0x0 DUP1 REVERT JUMPDEST SWAP3 POP SWAP3 SWAP1 POP JUMP JUMPDEST PUSH1 0x0 DUP3 PUSH1 0x1F DUP4 ADD SLT PUSH2 0x2A62 JUMPI PUSH1 0x0 DUP1 REVERT JUMPDEST DUP2 CALLDATALOAD PUSH2 0x2A72 DUP5 DUP3 PUSH1 0x20 DUP7 ADD PUSH2 0x2937 JUMP JUMPDEST SWAP2 POP POP SWAP3 SWAP2 POP POP JUMP JUMPDEST PUSH1 0x0 DUP2 MLOAD SWAP1 POP PUSH2 0x2A8A DUP2 PUSH2 0x3F03 JUMP JUMPDEST SWAP3 SWAP2 POP POP JUMP JUMPDEST PUSH1 0x0 DUP3 PUSH1 0x1F DUP4 ADD SLT PUSH2 0x2AA1 JUMPI PUSH1 0x0 DUP1 REVERT JUMPDEST DUP2 CALLDATALOAD PUSH2 0x2AB1 DUP5 DUP3 PUSH1 0x20 DUP7 ADD PUSH2 0x2975 JUMP JUMPDEST SWAP2 POP POP SWAP3 SWAP2 POP POP JUMP JUMPDEST PUSH1 0x0 DUP2 CALLDATALOAD SWAP1 POP PUSH2 0x2AC9 DUP2 PUSH2 0x3F1A JUMP JUMPDEST SWAP3 SWAP2 POP POP JUMP JUMPDEST PUSH1 0x0 DUP2 MLOAD SWAP1 POP PUSH2 0x2ADE DUP2 PUSH2 0x3F1A JUMP JUMPDEST SWAP3 SWAP2 POP POP JUMP JUMPDEST PUSH1 0x0 DUP2 MLOAD SWAP1 POP PUSH2 0x2AF3 DUP2 PUSH2 0x3F31 JUMP JUMPDEST SWAP3 SWAP2 POP POP JUMP JUMPDEST PUSH1 0x0 PUSH1 0x20 DUP3 DUP5 SUB SLT ISZERO PUSH2 0x2B0B JUMPI PUSH1 0x0 DUP1 REVERT JUMPDEST PUSH1 0x0 PUSH2 0x2B19 DUP5 DUP3 DUP6 ADD PUSH2 0x29B3 JUMP JUMPDEST SWAP2 POP POP SWAP3 SWAP2 POP POP JUMP JUMPDEST PUSH1 0x0 DUP1 PUSH1 0x40 DUP4 DUP6 SUB SLT ISZERO PUSH2 0x2B35 JUMPI PUSH1 0x0 DUP1 REVERT JUMPDEST PUSH1 0x0 PUSH2 0x2B43 DUP6 DUP3 DUP7 ADD PUSH2 0x29B3 JUMP JUMPDEST SWAP3 POP POP PUSH1 0x20 PUSH2 0x2B54 DUP6 DUP3 DUP7 ADD PUSH2 0x29B3 JUMP JUMPDEST SWAP2 POP POP SWAP3 POP SWAP3 SWAP1 POP JUMP JUMPDEST PUSH1 0x0 DUP1 PUSH1 0x0 PUSH1 0x60 DUP5 DUP7 SUB SLT ISZERO PUSH2 0x2B73 JUMPI PUSH1 0x0 DUP1 REVERT JUMPDEST PUSH1 0x0 PUSH2 0x2B81 DUP7 DUP3 DUP8 ADD PUSH2 0x29B3 JUMP JUMPDEST SWAP4 POP POP PUSH1 0x20 PUSH2 0x2B92 DUP7 DUP3 DUP8 ADD PUSH2 0x29B3 JUMP JUMPDEST SWAP3 POP POP PUSH1 0x40 PUSH2 0x2BA3 DUP7 DUP3 DUP8 ADD PUSH2 0x2ABA JUMP JUMPDEST SWAP2 POP POP SWAP3 POP SWAP3 POP SWAP3 JUMP JUMPDEST PUSH1 0x0 DUP1 PUSH1 0x0 DUP1 PUSH1 0x80 DUP6 DUP8 SUB SLT ISZERO PUSH2 0x2BC3 JUMPI PUSH1 0x0 DUP1 REVERT JUMPDEST PUSH1 0x0 PUSH2 0x2BD1 DUP8 DUP3 DUP9 ADD PUSH2 0x29B3 JUMP JUMPDEST SWAP5 POP POP PUSH1 0x20 PUSH2 0x2BE2 DUP8 DUP3 DUP9 ADD PUSH2 0x29B3 JUMP JUMPDEST SWAP4 POP POP PUSH1 0x40 PUSH2 0x2BF3 DUP8 DUP3 DUP9 ADD PUSH2 0x2ABA JUMP JUMPDEST SWAP3 POP POP PUSH1 0x60 DUP6 ADD CALLDATALOAD PUSH8 0xFFFFFFFFFFFFFFFF DUP2 GT ISZERO PUSH2 0x2C10 JUMPI PUSH1 0x0 DUP1 REVERT JUMPDEST PUSH2 0x2C1C DUP8 DUP3 DUP9 ADD PUSH2 0x2A51 JUMP JUMPDEST SWAP2 POP POP SWAP3 SWAP6 SWAP2 SWAP5 POP SWAP3 POP JUMP JUMPDEST PUSH1 0x0 DUP1 PUSH1 0x40 DUP4 DUP6 SUB SLT ISZERO PUSH2 0x2C3B JUMPI PUSH1 0x0 DUP1 REVERT JUMPDEST PUSH1 0x0 PUSH2 0x2C49 DUP6 DUP3 DUP7 ADD PUSH2 0x29B3 JUMP JUMPDEST SWAP3 POP POP PUSH1 0x20 PUSH2 0x2C5A DUP6 DUP3 DUP7 ADD PUSH2 0x29C8 JUMP JUMPDEST SWAP2 POP POP SWAP3 POP SWAP3 SWAP1 POP JUMP JUMPDEST PUSH1 0x0 DUP1 PUSH1 0x40 DUP4 DUP6 SUB SLT ISZERO PUSH2 0x2C77 JUMPI PUSH1 0x0 DUP1 REVERT JUMPDEST PUSH1 0x0 PUSH2 0x2C85 DUP6 DUP3 DUP7 ADD PUSH2 0x29B3 JUMP JUMPDEST SWAP3 POP POP PUSH1 0x20 PUSH2 0x2C96 DUP6 DUP3 DUP7 ADD PUSH2 0x2ABA JUMP JUMPDEST SWAP2 POP POP SWAP3 POP SWAP3 SWAP1 POP JUMP JUMPDEST PUSH1 0x0 PUSH1 0x20 DUP3 DUP5 SUB SLT ISZERO PUSH2 0x2CB2 JUMPI PUSH1 0x0 DUP1 REVERT JUMPDEST PUSH1 0x0 PUSH2 0x2CC0 DUP5 DUP3 DUP6 ADD PUSH2 0x29DD JUMP JUMPDEST SWAP2 POP POP SWAP3 SWAP2 POP POP JUMP JUMPDEST PUSH1 0x0 PUSH1 0x20 DUP3 DUP5 SUB SLT ISZERO PUSH2 0x2CDB JUMPI PUSH1 0x0 DUP1 REVERT JUMPDEST PUSH1 0x0 PUSH2 0x2CE9 DUP5 DUP3 DUP6 ADD PUSH2 0x29F2 JUMP JUMPDEST SWAP2 POP POP SWAP3 SWAP2 POP POP JUMP JUMPDEST PUSH1 0x0 DUP1 PUSH1 0x20 DUP4 DUP6 SUB SLT ISZERO PUSH2 0x2D05 JUMPI PUSH1 0x0 DUP1 REVERT JUMPDEST PUSH1 0x0 DUP4 ADD CALLDATALOAD PUSH8 0xFFFFFFFFFFFFFFFF DUP2 GT ISZERO PUSH2 0x2D1F JUMPI PUSH1 0x0 DUP1 REVERT JUMPDEST PUSH2 0x2D2B DUP6 DUP3 DUP7 ADD PUSH2 0x2A07 JUMP JUMPDEST SWAP3 POP SWAP3 POP POP SWAP3 POP SWAP3 SWAP1 POP JUMP JUMPDEST PUSH1 0x0 DUP1 PUSH1 0x40 DUP4 DUP6 SUB SLT ISZERO PUSH2 0x2D4A JUMPI PUSH1 0x0 DUP1 REVERT JUMPDEST PUSH1 0x0 DUP4 ADD CALLDATALOAD PUSH8 0xFFFFFFFFFFFFFFFF DUP2 GT ISZERO PUSH2 0x2D64 JUMPI PUSH1 0x0 DUP1 REVERT JUMPDEST PUSH2 0x2D70 DUP6 DUP3 DUP7 ADD PUSH2 0x2A90 JUMP JUMPDEST SWAP3 POP POP PUSH1 0x20 PUSH2 0x2D81 DUP6 DUP3 DUP7 ADD PUSH2 0x29B3 JUMP JUMPDEST SWAP2 POP POP SWAP3 POP SWAP3 SWAP1 POP JUMP JUMPDEST PUSH1 0x0 PUSH1 0x20 DUP3 DUP5 SUB SLT ISZERO PUSH2 0x2D9D JUMPI PUSH1 0x0 DUP1 REVERT JUMPDEST PUSH1 0x0 PUSH2 0x2DAB DUP5 DUP3 DUP6 ADD PUSH2 0x2ABA JUMP JUMPDEST SWAP2 POP POP SWAP3 SWAP2 POP POP JUMP JUMPDEST PUSH1 0x0 DUP1 PUSH1 0x0 DUP1 PUSH1 0x0 PUSH1 0xA0 DUP7 DUP9 SUB SLT ISZERO PUSH2 0x2DCC JUMPI PUSH1 0x0 DUP1 REVERT JUMPDEST PUSH1 0x0 PUSH2 0x2DDA DUP9 DUP3 DUP10 ADD PUSH2 0x2AE4 JUMP JUMPDEST SWAP6 POP POP PUSH1 0x20 PUSH2 0x2DEB DUP9 DUP3 DUP10 ADD PUSH2 0x2A7B JUMP JUMPDEST SWAP5 POP POP PUSH1 0x40 PUSH2 0x2DFC DUP9 DUP3 DUP10 ADD PUSH2 0x2ACF JUMP JUMPDEST SWAP4 POP POP PUSH1 0x60 PUSH2 0x2E0D DUP9 DUP3 DUP10 ADD PUSH2 0x2ACF JUMP JUMPDEST SWAP3 POP POP PUSH1 0x80 PUSH2 0x2E1E DUP9 DUP3 DUP10 ADD PUSH2 0x2AE4 JUMP JUMPDEST SWAP2 POP POP SWAP3 SWAP6 POP SWAP3 SWAP6 SWAP1 SWAP4 POP JUMP JUMPDEST PUSH2 0x2E34 DUP2 PUSH2 0x373F JUMP JUMPDEST DUP3 MSTORE POP POP JUMP JUMPDEST PUSH2 0x2E43 DUP2 PUSH2 0x3751 JUMP JUMPDEST DUP3 MSTORE POP POP JUMP JUMPDEST PUSH1 0x0 PUSH2 0x2E54 DUP3 PUSH2 0x35AD JUMP JUMPDEST PUSH2 0x2E5E DUP2 DUP6 PUSH2 0x35C3 JUMP JUMPDEST SWAP4 POP PUSH2 0x2E6E DUP2 DUP6 PUSH1 0x20 DUP7 ADD PUSH2 0x37EF JUMP JUMPDEST PUSH2 0x2E77 DUP2 PUSH2 0x3A2F JUMP JUMPDEST DUP5 ADD SWAP2 POP POP SWAP3 SWAP2 POP POP JUMP JUMPDEST PUSH2 0x2E8B DUP2 PUSH2 0x3789 JUMP JUMPDEST DUP3 MSTORE POP POP JUMP JUMPDEST PUSH2 0x2E9A DUP2 PUSH2 0x3796 JUMP JUMPDEST DUP3 MSTORE POP POP JUMP JUMPDEST PUSH1 0x0 PUSH2 0x2EAB DUP3 PUSH2 0x35B8 JUMP JUMPDEST PUSH2 0x2EB5 DUP2 DUP6 PUSH2 0x35D4 JUMP JUMPDEST SWAP4 POP PUSH2 0x2EC5 DUP2 DUP6 PUSH1 0x20 DUP7 ADD PUSH2 0x37EF JUMP JUMPDEST PUSH2 0x2ECE DUP2 PUSH2 0x3A2F JUMP JUMPDEST DUP5 ADD SWAP2 POP POP SWAP3 SWAP2 POP POP JUMP JUMPDEST PUSH1 0x0 PUSH2 0x2EE4 DUP3 PUSH2 0x35B8 JUMP JUMPDEST PUSH2 0x2EEE DUP2 DUP6 PUSH2 0x35E5 JUMP JUMPDEST SWAP4 POP PUSH2 0x2EFE DUP2 DUP6 PUSH1 0x20 DUP7 ADD PUSH2 0x37EF JUMP JUMPDEST DUP1 DUP5 ADD SWAP2 POP POP SWAP3 SWAP2 POP POP JUMP JUMPDEST PUSH1 0x0 DUP2 SLOAD PUSH2 0x2F17 DUP2 PUSH2 0x386B JUMP JUMPDEST PUSH2 0x2F21 DUP2 DUP7 PUSH2 0x35E5 JUMP JUMPDEST SWAP5 POP PUSH1 0x1 DUP3 AND PUSH1 0x0 DUP2 EQ PUSH2 0x2F3C JUMPI PUSH1 0x1 DUP2 EQ PUSH2 0x2F4D JUMPI PUSH2 0x2F80 JUMP JUMPDEST PUSH1 0xFF NOT DUP4 AND DUP7 MSTORE DUP2 DUP7 ADD SWAP4 POP PUSH2 0x2F80 JUMP JUMPDEST PUSH2 0x2F56 DUP6 PUSH2 0x3598 JUMP JUMPDEST PUSH1 0x0 JUMPDEST DUP4 DUP2 LT ISZERO PUSH2 0x2F78 JUMPI DUP2 SLOAD DUP2 DUP10 ADD MSTORE PUSH1 0x1 DUP3 ADD SWAP2 POP PUSH1 0x20 DUP2 ADD SWAP1 POP PUSH2 0x2F59 JUMP JUMPDEST DUP4 DUP9 ADD SWAP6 POP POP POP JUMPDEST POP POP POP SWAP3 SWAP2 POP POP JUMP JUMPDEST PUSH1 0x0 PUSH2 0x2F96 PUSH1 0x32 DUP4 PUSH2 0x35D4 JUMP JUMPDEST SWAP2 POP PUSH2 0x2FA1 DUP3 PUSH2 0x3A40 JUMP JUMPDEST PUSH1 0x40 DUP3 ADD SWAP1 POP SWAP2 SWAP1 POP JUMP JUMPDEST PUSH1 0x0 PUSH2 0x2FB9 PUSH1 0x1C DUP4 PUSH2 0x35D4 JUMP JUMPDEST SWAP2 POP PUSH2 0x2FC4 DUP3 PUSH2 0x3A8F JUMP JUMPDEST PUSH1 0x20 DUP3 ADD SWAP1 POP SWAP2 SWAP1 POP JUMP JUMPDEST PUSH1 0x0 PUSH2 0x2FDC PUSH1 0x24 DUP4 PUSH2 0x35D4 JUMP JUMPDEST SWAP2 POP PUSH2 0x2FE7 DUP3 PUSH2 0x3AB8 JUMP JUMPDEST PUSH1 0x40 DUP3 ADD SWAP1 POP SWAP2 SWAP1 POP JUMP JUMPDEST PUSH1 0x0 PUSH2 0x2FFF PUSH1 0x19 DUP4 PUSH2 0x35D4 JUMP JUMPDEST SWAP2 POP PUSH2 0x300A DUP3 PUSH2 0x3B07 JUMP JUMPDEST PUSH1 0x20 DUP3 ADD SWAP1 POP SWAP2 SWAP1 POP JUMP JUMPDEST PUSH1 0x0 PUSH2 0x3022 PUSH1 0x2C DUP4 PUSH2 0x35D4 JUMP JUMPDEST SWAP2 POP PUSH2 0x302D DUP3 PUSH2 0x3B30 JUMP JUMPDEST PUSH1 0x40 DUP3 ADD SWAP1 POP SWAP2 SWAP1 POP JUMP JUMPDEST PUSH1 0x0 PUSH2 0x3045 PUSH1 0x15 DUP4 PUSH2 0x35D4 JUMP JUMPDEST SWAP2 POP PUSH2 0x3050 DUP3 PUSH2 0x3B7F JUMP JUMPDEST PUSH1 0x20 DUP3 ADD SWAP1 POP SWAP2 SWAP1 POP JUMP JUMPDEST PUSH1 0x0 PUSH2 0x3068 PUSH1 0x47 DUP4 PUSH2 0x35D4 JUMP JUMPDEST SWAP2 POP PUSH2 0x3073 DUP3 PUSH2 0x3BA8 JUMP JUMPDEST PUSH1 0x60 DUP3 ADD SWAP1 POP SWAP2 SWAP1 POP JUMP JUMPDEST PUSH1 0x0 PUSH2 0x308B PUSH1 0x38 DUP4 PUSH2 0x35D4 JUMP JUMPDEST SWAP2 POP PUSH2 0x3096 DUP3 PUSH2 0x3C1D JUMP JUMPDEST PUSH1 0x40 DUP3 ADD SWAP1 POP SWAP2 SWAP1 POP JUMP JUMPDEST PUSH1 0x0 PUSH2 0x30AE PUSH1 0x2A DUP4 PUSH2 0x35D4 JUMP JUMPDEST SWAP2 POP PUSH2 0x30B9 DUP3 PUSH2 0x3C6C JUMP JUMPDEST PUSH1 0x40 DUP3 ADD SWAP1 POP SWAP2 SWAP1 POP JUMP JUMPDEST PUSH1 0x0 PUSH2 0x30D1 PUSH1 0x29 DUP4 PUSH2 0x35D4 JUMP JUMPDEST SWAP2 POP PUSH2 0x30DC DUP3 PUSH2 0x3CBB JUMP JUMPDEST PUSH1 0x40 DUP3 ADD SWAP1 POP SWAP2 SWAP1 POP JUMP JUMPDEST PUSH1 0x0 PUSH2 0x30F4 PUSH1 0x2E DUP4 PUSH2 0x35D4 JUMP JUMPDEST SWAP2 POP PUSH2 0x30FF DUP3 PUSH2 0x3D0A JUMP JUMPDEST PUSH1 0x40 DUP3 ADD SWAP1 POP SWAP2 SWAP1 POP JUMP JUMPDEST PUSH1 0x0 PUSH2 0x3117 PUSH1 0x20 DUP4 PUSH2 0x35D4 JUMP JUMPDEST SWAP2 POP PUSH2 0x3122 DUP3 PUSH2 0x3D59 JUMP JUMPDEST PUSH1 0x20 DUP3 ADD SWAP1 POP SWAP2 SWAP1 POP JUMP JUMPDEST PUSH1 0x0 PUSH2 0x313A PUSH1 0x2C DUP4 PUSH2 0x35D4 JUMP JUMPDEST SWAP2 POP PUSH2 0x3145 DUP3 PUSH2 0x3D82 JUMP JUMPDEST PUSH1 0x40 DUP3 ADD SWAP1 POP SWAP2 SWAP1 POP JUMP JUMPDEST PUSH1 0x0 PUSH2 0x315D PUSH1 0x29 DUP4 PUSH2 0x35D4 JUMP JUMPDEST SWAP2 POP PUSH2 0x3168 DUP3 PUSH2 0x3DD1 JUMP JUMPDEST PUSH1 0x40 DUP3 ADD SWAP1 POP SWAP2 SWAP1 POP JUMP JUMPDEST PUSH1 0x0 PUSH2 0x3180 PUSH1 0x21 DUP4 PUSH2 0x35D4 JUMP JUMPDEST SWAP2 POP PUSH2 0x318B DUP3 PUSH2 0x3E20 JUMP JUMPDEST PUSH1 0x40 DUP3 ADD SWAP1 POP SWAP2 SWAP1 POP JUMP JUMPDEST PUSH1 0x0 PUSH2 0x31A3 PUSH1 0x31 DUP4 PUSH2 0x35D4 JUMP JUMPDEST SWAP2 POP PUSH2 0x31AE DUP3 PUSH2 0x3E6F JUMP JUMPDEST PUSH1 0x40 DUP3 ADD SWAP1 POP SWAP2 SWAP1 POP JUMP JUMPDEST PUSH2 0x31C2 DUP2 PUSH2 0x37C0 JUMP JUMPDEST DUP3 MSTORE POP POP JUMP JUMPDEST PUSH1 0x0 PUSH2 0x31D4 DUP3 DUP6 PUSH2 0x2F0A JUMP JUMPDEST SWAP2 POP PUSH2 0x31E0 DUP3 DUP5 PUSH2 0x2ED9 JUMP JUMPDEST SWAP2 POP DUP2 SWAP1 POP SWAP4 SWAP3 POP POP POP JUMP JUMPDEST PUSH1 0x0 PUSH1 0x20 DUP3 ADD SWAP1 POP PUSH2 0x3201 PUSH1 0x0 DUP4 ADD DUP5 PUSH2 0x2E2B JUMP JUMPDEST SWAP3 SWAP2 POP POP JUMP JUMPDEST PUSH1 0x0 PUSH1 0x80 DUP3 ADD SWAP1 POP PUSH2 0x321C PUSH1 0x0 DUP4 ADD DUP8 PUSH2 0x2E2B JUMP JUMPDEST PUSH2 0x3229 PUSH1 0x20 DUP4 ADD DUP7 PUSH2 0x2E2B JUMP JUMPDEST PUSH2 0x3236 PUSH1 0x40 DUP4 ADD DUP6 PUSH2 0x31B9 JUMP JUMPDEST DUP2 DUP2 SUB PUSH1 0x60 DUP4 ADD MSTORE PUSH2 0x3248 DUP2 DUP5 PUSH2 0x2E49 JUMP JUMPDEST SWAP1 POP SWAP6 SWAP5 POP POP POP POP POP JUMP JUMPDEST PUSH1 0x0 PUSH1 0x20 DUP3 ADD SWAP1 POP PUSH2 0x3268 PUSH1 0x0 DUP4 ADD DUP5 PUSH2 0x2E3A JUMP JUMPDEST SWAP3 SWAP2 POP POP JUMP JUMPDEST PUSH1 0x0 PUSH1 0x40 DUP3 ADD SWAP1 POP PUSH2 0x3283 PUSH1 0x0 DUP4 ADD DUP6 PUSH2 0x2E3A JUMP JUMPDEST DUP2 DUP2 SUB PUSH1 0x20 DUP4 ADD MSTORE PUSH2 0x3295 DUP2 DUP5 PUSH2 0x2E49 JUMP JUMPDEST SWAP1 POP SWAP4 SWAP3 POP POP POP JUMP JUMPDEST PUSH1 0x0 PUSH1 0x20 DUP3 ADD SWAP1 POP PUSH2 0x32B3 PUSH1 0x0 DUP4 ADD DUP5 PUSH2 0x2E82 JUMP JUMPDEST SWAP3 SWAP2 POP POP JUMP JUMPDEST PUSH1 0x0 PUSH1 0x20 DUP3 ADD SWAP1 POP PUSH2 0x32CE PUSH1 0x0 DUP4 ADD DUP5 PUSH2 0x2E91 JUMP JUMPDEST SWAP3 SWAP2 POP POP JUMP JUMPDEST PUSH1 0x0 PUSH1 0x20 DUP3 ADD SWAP1 POP DUP2 DUP2 SUB PUSH1 0x0 DUP4 ADD MSTORE PUSH2 0x32EE DUP2 DUP5 PUSH2 0x2EA0 JUMP JUMPDEST SWAP1 POP SWAP3 SWAP2 POP POP JUMP JUMPDEST PUSH1 0x0 PUSH1 0x20 DUP3 ADD SWAP1 POP DUP2 DUP2 SUB PUSH1 0x0 DUP4 ADD MSTORE PUSH2 0x330F DUP2 PUSH2 0x2F89 JUMP JUMPDEST SWAP1 POP SWAP2 SWAP1 POP JUMP JUMPDEST PUSH1 0x0 PUSH1 0x20 DUP3 ADD SWAP1 POP DUP2 DUP2 SUB PUSH1 0x0 DUP4 ADD MSTORE PUSH2 0x332F DUP2 PUSH2 0x2FAC JUMP JUMPDEST SWAP1 POP SWAP2 SWAP1 POP JUMP JUMPDEST PUSH1 0x0 PUSH1 0x20 DUP3 ADD SWAP1 POP DUP2 DUP2 SUB PUSH1 0x0 DUP4 ADD MSTORE PUSH2 0x334F DUP2 PUSH2 0x2FCF JUMP JUMPDEST SWAP1 POP SWAP2 SWAP1 POP JUMP JUMPDEST PUSH1 0x0 PUSH1 0x20 DUP3 ADD SWAP1 POP DUP2 DUP2 SUB PUSH1 0x0 DUP4 ADD MSTORE PUSH2 0x336F DUP2 PUSH2 0x2FF2 JUMP JUMPDEST SWAP1 POP SWAP2 SWAP1 POP JUMP JUMPDEST PUSH1 0x0 PUSH1 0x20 DUP3 ADD SWAP1 POP DUP2 DUP2 SUB PUSH1 0x0 DUP4 ADD MSTORE PUSH2 0x338F DUP2 PUSH2 0x3015 JUMP JUMPDEST SWAP1 POP SWAP2 SWAP1 POP JUMP JUMPDEST PUSH1 0x0 PUSH1 0x20 DUP3 ADD SWAP1 POP DUP2 DUP2 SUB PUSH1 0x0 DUP4 ADD MSTORE PUSH2 0x33AF DUP2 PUSH2 0x3038 JUMP JUMPDEST SWAP1 POP SWAP2 SWAP1 POP JUMP JUMPDEST PUSH1 0x0 PUSH1 0x20 DUP3 ADD SWAP1 POP DUP2 DUP2 SUB PUSH1 0x0 DUP4 ADD MSTORE PUSH2 0x33CF DUP2 PUSH2 0x305B JUMP JUMPDEST SWAP1 POP SWAP2 SWAP1 POP JUMP JUMPDEST PUSH1 0x0 PUSH1 0x20 DUP3 ADD SWAP1 POP DUP2 DUP2 SUB PUSH1 0x0 DUP4 ADD MSTORE PUSH2 0x33EF DUP2 PUSH2 0x307E JUMP JUMPDEST SWAP1 POP SWAP2 SWAP1 POP JUMP JUMPDEST PUSH1 0x0 PUSH1 0x20 DUP3 ADD SWAP1 POP DUP2 DUP2 SUB PUSH1 0x0 DUP4 ADD MSTORE PUSH2 0x340F DUP2 PUSH2 0x30A1 JUMP JUMPDEST SWAP1 POP SWAP2 SWAP1 POP JUMP JUMPDEST PUSH1 0x0 PUSH1 0x20 DUP3 ADD SWAP1 POP DUP2 DUP2 SUB PUSH1 0x0 DUP4 ADD MSTORE PUSH2 0x342F DUP2 PUSH2 0x30C4 JUMP JUMPDEST SWAP1 POP SWAP2 SWAP1 POP JUMP JUMPDEST PUSH1 0x0 PUSH1 0x20 DUP3 ADD SWAP1 POP DUP2 DUP2 SUB PUSH1 0x0 DUP4 ADD MSTORE PUSH2 0x344F DUP2 PUSH2 0x30E7 JUMP JUMPDEST SWAP1 POP SWAP2 SWAP1 POP JUMP JUMPDEST PUSH1 0x0 PUSH1 0x20 DUP3 ADD SWAP1 POP DUP2 DUP2 SUB PUSH1 0x0 DUP4 ADD MSTORE PUSH2 0x346F DUP2 PUSH2 0x310A JUMP JUMPDEST SWAP1 POP SWAP2 SWAP1 POP JUMP JUMPDEST PUSH1 0x0 PUSH1 0x20 DUP3 ADD SWAP1 POP DUP2 DUP2 SUB PUSH1 0x0 DUP4 ADD MSTORE PUSH2 0x348F DUP2 PUSH2 0x312D JUMP JUMPDEST SWAP1 POP SWAP2 SWAP1 POP JUMP JUMPDEST PUSH1 0x0 PUSH1 0x20 DUP3 ADD SWAP1 POP DUP2 DUP2 SUB PUSH1 0x0 DUP4 ADD MSTORE PUSH2 0x34AF DUP2 PUSH2 0x3150 JUMP JUMPDEST SWAP1 POP SWAP2 SWAP1 POP JUMP JUMPDEST PUSH1 0x0 PUSH1 0x20 DUP3 ADD SWAP1 POP DUP2 DUP2 SUB PUSH1 0x0 DUP4 ADD MSTORE PUSH2 0x34CF DUP2 PUSH2 0x3173 JUMP JUMPDEST SWAP1 POP SWAP2 SWAP1 POP JUMP JUMPDEST PUSH1 0x0 PUSH1 0x20 DUP3 ADD SWAP1 POP DUP2 DUP2 SUB PUSH1 0x0 DUP4 ADD MSTORE PUSH2 0x34EF DUP2 PUSH2 0x3196 JUMP JUMPDEST SWAP1 POP SWAP2 SWAP1 POP JUMP JUMPDEST PUSH1 0x0 PUSH1 0x20 DUP3 ADD SWAP1 POP PUSH2 0x350B PUSH1 0x0 DUP4 ADD DUP5 PUSH2 0x31B9 JUMP JUMPDEST SWAP3 SWAP2 POP POP JUMP JUMPDEST PUSH1 0x0 PUSH2 0x351B PUSH2 0x352C JUMP JUMPDEST SWAP1 POP PUSH2 0x3527 DUP3 DUP3 PUSH2 0x389D JUMP JUMPDEST SWAP2 SWAP1 POP JUMP JUMPDEST PUSH1 0x0 PUSH1 0x40 MLOAD SWAP1 POP SWAP1 JUMP JUMPDEST PUSH1 0x0 PUSH8 0xFFFFFFFFFFFFFFFF DUP3 GT ISZERO PUSH2 0x3551 JUMPI PUSH2 0x3550 PUSH2 0x3A00 JUMP JUMPDEST JUMPDEST PUSH2 0x355A DUP3 PUSH2 0x3A2F JUMP JUMPDEST SWAP1 POP PUSH1 0x20 DUP2 ADD SWAP1 POP SWAP2 SWAP1 POP JUMP JUMPDEST PUSH1 0x0 PUSH8 0xFFFFFFFFFFFFFFFF DUP3 GT ISZERO PUSH2 0x3582 JUMPI PUSH2 0x3581 PUSH2 0x3A00 JUMP JUMPDEST JUMPDEST PUSH2 0x358B DUP3 PUSH2 0x3A2F JUMP JUMPDEST SWAP1 POP PUSH1 0x20 DUP2 ADD SWAP1 POP SWAP2 SWAP1 POP JUMP JUMPDEST PUSH1 0x0 DUP2 SWAP1 POP DUP2 PUSH1 0x0 MSTORE PUSH1 0x20 PUSH1 0x0 KECCAK256 SWAP1 POP SWAP2 SWAP1 POP JUMP JUMPDEST PUSH1 0x0 DUP2 MLOAD SWAP1 POP SWAP2 SWAP1 POP JUMP JUMPDEST PUSH1 0x0 DUP2 MLOAD SWAP1 POP SWAP2 SWAP1 POP JUMP JUMPDEST PUSH1 0x0 DUP3 DUP3 MSTORE PUSH1 0x20 DUP3 ADD SWAP1 POP SWAP3 SWAP2 POP POP JUMP JUMPDEST PUSH1 0x0 DUP3 DUP3 MSTORE PUSH1 0x20 DUP3 ADD SWAP1 POP SWAP3 SWAP2 POP POP JUMP JUMPDEST PUSH1 0x0 DUP2 SWAP1 POP SWAP3 SWAP2 POP POP JUMP JUMPDEST PUSH1 0x0 PUSH2 0x35FB DUP3 PUSH2 0x37C0 JUMP JUMPDEST SWAP2 POP PUSH2 0x3606 DUP4 PUSH2 0x37C0 JUMP JUMPDEST SWAP3 POP DUP3 PUSH32 0xFFFFFFFFFFFFFFFFFFFFFFFFFFFFFFFFFFFFFFFFFFFFFFFFFFFFFFFFFFFFFFFF SUB DUP3 GT ISZERO PUSH2 0x363B JUMPI PUSH2 0x363A PUSH2 0x3973 JUMP JUMPDEST JUMPDEST DUP3 DUP3 ADD SWAP1 POP SWAP3 SWAP2 POP POP JUMP JUMPDEST PUSH1 0x0 PUSH2 0x3651 DUP3 PUSH2 0x37C0 JUMP JUMPDEST SWAP2 POP PUSH2 0x365C DUP4 PUSH2 0x37C0 JUMP JUMPDEST SWAP3 POP DUP3 PUSH2 0x366C JUMPI PUSH2 0x366B PUSH2 0x39A2 JUMP JUMPDEST JUMPDEST DUP3 DUP3 DIV SWAP1 POP SWAP3 SWAP2 POP POP JUMP JUMPDEST PUSH1 0x0 PUSH2 0x3682 DUP3 PUSH2 0x3796 JUMP JUMPDEST SWAP2 POP PUSH2 0x368D DUP4 PUSH2 0x3796 JUMP JUMPDEST SWAP3 POP DUP3 PUSH32 0x8000000000000000000000000000000000000000000000000000000000000000 ADD DUP3 SLT PUSH1 0x0 DUP5 SLT ISZERO AND ISZERO PUSH2 0x36C8 JUMPI PUSH2 0x36C7 PUSH2 0x3973 JUMP JUMPDEST JUMPDEST DUP3 PUSH32 0x7FFFFFFFFFFFFFFFFFFFFFFFFFFFFFFFFFFFFFFFFFFFFFFFFFFFFFFFFFFFFFFF ADD DUP3 SGT PUSH1 0x0 DUP5 SLT AND ISZERO PUSH2 0x3700 JUMPI PUSH2 0x36FF PUSH2 0x3973 JUMP JUMPDEST JUMPDEST DUP3 DUP3 SUB SWAP1 POP SWAP3 SWAP2 POP POP JUMP JUMPDEST PUSH1 0x0 PUSH2 0x3716 DUP3 PUSH2 0x37C0 JUMP JUMPDEST SWAP2 POP PUSH2 0x3721 DUP4 PUSH2 0x37C0 JUMP JUMPDEST SWAP3 POP DUP3 DUP3 LT ISZERO PUSH2 0x3734 JUMPI PUSH2 0x3733 PUSH2 0x3973 JUMP JUMPDEST JUMPDEST DUP3 DUP3 SUB SWAP1 POP SWAP3 SWAP2 POP POP JUMP JUMPDEST PUSH1 0x0 PUSH2 0x374A DUP3 PUSH2 0x37A0 JUMP JUMPDEST SWAP1 POP SWAP2 SWAP1 POP JUMP JUMPDEST PUSH1 0x0 DUP2 ISZERO ISZERO SWAP1 POP SWAP2 SWAP1 POP JUMP JUMPDEST PUSH1 0x0 PUSH32 0xFFFFFFFF00000000000000000000000000000000000000000000000000000000 DUP3 AND SWAP1 POP SWAP2 SWAP1 POP JUMP JUMPDEST PUSH1 0x0 DUP2 PUSH1 0x1 SIGNEXTEND SWAP1 POP SWAP2 SWAP1 POP JUMP JUMPDEST PUSH1 0x0 DUP2 SWAP1 POP SWAP2 SWAP1 POP JUMP JUMPDEST PUSH1 0x0 PUSH20 0xFFFFFFFFFFFFFFFFFFFFFFFFFFFFFFFFFFFFFFFF DUP3 AND SWAP1 POP SWAP2 SWAP1 POP JUMP JUMPDEST PUSH1 0x0 DUP2 SWAP1 POP SWAP2 SWAP1 POP JUMP JUMPDEST PUSH1 0x0 PUSH10 0xFFFFFFFFFFFFFFFFFFFF DUP3 AND SWAP1 POP SWAP2 SWAP1 POP JUMP JUMPDEST DUP3 DUP2 DUP4 CALLDATACOPY PUSH1 0x0 DUP4 DUP4 ADD MSTORE POP POP POP JUMP JUMPDEST PUSH1 0x0 JUMPDEST DUP4 DUP2 LT ISZERO PUSH2 0x380D JUMPI DUP1 DUP3 ADD MLOAD DUP2 DUP5 ADD MSTORE PUSH1 0x20 DUP2 ADD SWAP1 POP PUSH2 0x37F2 JUMP JUMPDEST DUP4 DUP2 GT ISZERO PUSH2 0x381C JUMPI PUSH1 0x0 DUP5 DUP5 ADD MSTORE JUMPDEST POP POP POP POP JUMP JUMPDEST PUSH1 0x0 PUSH2 0x382D DUP3 PUSH2 0x3789 JUMP JUMPDEST SWAP2 POP PUSH32 0xFFFFFFFFFFFFFFFFFFFFFFFFFFFFFFFFFFFFFFFFFFFFFFFFFFFFFFFFFFFF8000 DUP3 EQ ISZERO PUSH2 0x3860 JUMPI PUSH2 0x385F PUSH2 0x3973 JUMP JUMPDEST JUMPDEST PUSH1 0x1 DUP3 SUB SWAP1 POP SWAP2 SWAP1 POP JUMP JUMPDEST PUSH1 0x0 PUSH1 0x2 DUP3 DIV SWAP1 POP PUSH1 0x1 DUP3 AND DUP1 PUSH2 0x3883 JUMPI PUSH1 0x7F DUP3 AND SWAP2 POP JUMPDEST PUSH1 0x20 DUP3 LT DUP2 EQ ISZERO PUSH2 0x3897 JUMPI PUSH2 0x3896 PUSH2 0x39D1 JUMP JUMPDEST JUMPDEST POP SWAP2 SWAP1 POP JUMP JUMPDEST PUSH2 0x38A6 DUP3 PUSH2 0x3A2F JUMP JUMPDEST DUP2 ADD DUP2 DUP2 LT PUSH8 0xFFFFFFFFFFFFFFFF DUP3 GT OR ISZERO PUSH2 0x38C5 JUMPI PUSH2 0x38C4 PUSH2 0x3A00 JUMP JUMPDEST JUMPDEST DUP1 PUSH1 0x40 MSTORE POP POP POP JUMP JUMPDEST PUSH1 0x0 PUSH2 0x38D9 DUP3 PUSH2 0x3789 JUMP JUMPDEST SWAP2 POP PUSH2 0x7FFF DUP3 EQ ISZERO PUSH2 0x38EE JUMPI PUSH2 0x38ED PUSH2 0x3973 JUMP JUMPDEST JUMPDEST PUSH1 0x1 DUP3 ADD SWAP1 POP SWAP2 SWAP1 POP JUMP JUMPDEST PUSH1 0x0 PUSH2 0x3904 DUP3 PUSH2 0x37C0 JUMP JUMPDEST SWAP2 POP PUSH32 0xFFFFFFFFFFFFFFFFFFFFFFFFFFFFFFFFFFFFFFFFFFFFFFFFFFFFFFFFFFFFFFFF DUP3 EQ ISZERO PUSH2 0x3937 JUMPI PUSH2 0x3936 PUSH2 0x3973 JUMP JUMPDEST JUMPDEST PUSH1 0x1 DUP3 ADD SWAP1 POP SWAP2 SWAP1 POP JUMP JUMPDEST PUSH1 0x0 PUSH2 0x394D DUP3 PUSH2 0x37C0 JUMP JUMPDEST SWAP2 POP PUSH2 0x3958 DUP4 PUSH2 0x37C0 JUMP JUMPDEST SWAP3 POP DUP3 PUSH2 0x3968 JUMPI PUSH2 0x3967 PUSH2 0x39A2 JUMP JUMPDEST JUMPDEST DUP3 DUP3 MOD SWAP1 POP SWAP3 SWAP2 POP POP JUMP JUMPDEST PUSH32 0x4E487B7100000000000000000000000000000000000000000000000000000000 PUSH1 0x0 MSTORE PUSH1 0x11 PUSH1 0x4 MSTORE PUSH1 0x24 PUSH1 0x0 REVERT JUMPDEST PUSH32 0x4E487B7100000000000000000000000000000000000000000000000000000000 PUSH1 0x0 MSTORE PUSH1 0x12 PUSH1 0x4 MSTORE PUSH1 0x24 PUSH1 0x0 REVERT JUMPDEST PUSH32 0x4E487B7100000000000000000000000000000000000000000000000000000000 PUSH1 0x0 MSTORE PUSH1 0x22 PUSH1 0x4 MSTORE PUSH1 0x24 PUSH1 0x0 REVERT JUMPDEST PUSH32 0x4E487B7100000000000000000000000000000000000000000000000000000000 PUSH1 0x0 MSTORE PUSH1 0x41 PUSH1 0x4 MSTORE PUSH1 0x24 PUSH1 0x0 REVERT JUMPDEST PUSH1 0x0 PUSH1 0x1F NOT PUSH1 0x1F DUP4 ADD AND SWAP1 POP SWAP2 SWAP1 POP JUMP JUMPDEST PUSH32 0x4552433732313A207472616E7366657220746F206E6F6E204552433732315265 PUSH1 0x0 DUP3 ADD MSTORE PUSH32 0x63656976657220696D706C656D656E7465720000000000000000000000000000 PUSH1 0x20 DUP3 ADD MSTORE POP JUMP JUMPDEST PUSH32 0x4552433732313A20746F6B656E20616C7265616479206D696E74656400000000 PUSH1 0x0 DUP3 ADD MSTORE POP JUMP JUMPDEST PUSH32 0x4552433732313A207472616E7366657220746F20746865207A65726F20616464 PUSH1 0x0 DUP3 ADD MSTORE PUSH32 0x7265737300000000000000000000000000000000000000000000000000000000 PUSH1 0x20 DUP3 ADD MSTORE POP JUMP JUMPDEST PUSH32 0x4552433732313A20617070726F766520746F2063616C6C657200000000000000 PUSH1 0x0 DUP3 ADD MSTORE POP JUMP JUMPDEST PUSH32 0x4552433732313A206F70657261746F7220717565727920666F72206E6F6E6578 PUSH1 0x0 DUP3 ADD MSTORE PUSH32 0x697374656E7420746F6B656E0000000000000000000000000000000000000000 PUSH1 0x20 DUP3 ADD MSTORE POP JUMP JUMPDEST PUSH32 0x4F6E6C7920746F6B656E49642030206578697374730000000000000000000000 PUSH1 0x0 DUP3 ADD MSTORE POP JUMP JUMPDEST PUSH32 0x4C617465737420617661696C61626C652070726963652066726F6D2070726963 PUSH1 0x0 DUP3 ADD MSTORE PUSH32 0x6520666565642068617320616C7265616479206265656E2073657420666F7220 PUSH1 0x20 DUP3 ADD MSTORE PUSH32 0x7468652064617900000000000000000000000000000000000000000000000000 PUSH1 0x40 DUP3 ADD MSTORE POP JUMP JUMPDEST PUSH32 0x4552433732313A20617070726F76652063616C6C6572206973206E6F74206F77 PUSH1 0x0 DUP3 ADD MSTORE PUSH32 0x6E6572206E6F7220617070726F76656420666F7220616C6C0000000000000000 PUSH1 0x20 DUP3 ADD MSTORE POP JUMP JUMPDEST PUSH32 0x4552433732313A2062616C616E636520717565727920666F7220746865207A65 PUSH1 0x0 DUP3 ADD MSTORE PUSH32 0x726F206164647265737300000000000000000000000000000000000000000000 PUSH1 0x20 DUP3 ADD MSTORE POP JUMP JUMPDEST PUSH32 0x4552433732313A206F776E657220717565727920666F72206E6F6E6578697374 PUSH1 0x0 DUP3 ADD MSTORE PUSH32 0x656E7420746F6B656E0000000000000000000000000000000000000000000000 PUSH1 0x20 DUP3 ADD MSTORE POP JUMP JUMPDEST PUSH32 0x496E697469616C697A61626C653A20636F6E747261637420697320616C726561 PUSH1 0x0 DUP3 ADD MSTORE PUSH32 0x647920696E697469616C697A6564000000000000000000000000000000000000 PUSH1 0x20 DUP3 ADD MSTORE POP JUMP JUMPDEST PUSH32 0x4552433732313A206D696E7420746F20746865207A65726F2061646472657373 PUSH1 0x0 DUP3 ADD MSTORE POP JUMP JUMPDEST PUSH32 0x4552433732313A20617070726F76656420717565727920666F72206E6F6E6578 PUSH1 0x0 DUP3 ADD MSTORE PUSH32 0x697374656E7420746F6B656E0000000000000000000000000000000000000000 PUSH1 0x20 DUP3 ADD MSTORE POP JUMP JUMPDEST PUSH32 0x4552433732313A207472616E73666572206F6620746F6B656E20746861742069 PUSH1 0x0 DUP3 ADD MSTORE PUSH32 0x73206E6F74206F776E0000000000000000000000000000000000000000000000 PUSH1 0x20 DUP3 ADD MSTORE POP JUMP JUMPDEST PUSH32 0x4552433732313A20617070726F76616C20746F2063757272656E74206F776E65 PUSH1 0x0 DUP3 ADD MSTORE PUSH32 0x7200000000000000000000000000000000000000000000000000000000000000 PUSH1 0x20 DUP3 ADD MSTORE POP JUMP JUMPDEST PUSH32 0x4552433732313A207472616E736665722063616C6C6572206973206E6F74206F PUSH1 0x0 DUP3 ADD MSTORE PUSH32 0x776E6572206E6F7220617070726F766564000000000000000000000000000000 PUSH1 0x20 DUP3 ADD MSTORE POP JUMP JUMPDEST PUSH2 0x3EC7 DUP2 PUSH2 0x373F JUMP JUMPDEST DUP2 EQ PUSH2 0x3ED2 JUMPI PUSH1 0x0 DUP1 REVERT JUMPDEST POP JUMP JUMPDEST PUSH2 0x3EDE DUP2 PUSH2 0x3751 JUMP JUMPDEST DUP2 EQ PUSH2 0x3EE9 JUMPI PUSH1 0x0 DUP1 REVERT JUMPDEST POP JUMP JUMPDEST PUSH2 0x3EF5 DUP2 PUSH2 0x375D JUMP JUMPDEST DUP2 EQ PUSH2 0x3F00 JUMPI PUSH1 0x0 DUP1 REVERT JUMPDEST POP JUMP JUMPDEST PUSH2 0x3F0C DUP2 PUSH2 0x3796 JUMP JUMPDEST DUP2 EQ PUSH2 0x3F17 JUMPI PUSH1 0x0 DUP1 REVERT JUMPDEST POP JUMP JUMPDEST PUSH2 0x3F23 DUP2 PUSH2 0x37C0 JUMP JUMPDEST DUP2 EQ PUSH2 0x3F2E JUMPI PUSH1 0x0 DUP1 REVERT JUMPDEST POP JUMP JUMPDEST PUSH2 0x3F3A DUP2 PUSH2 0x37CA JUMP JUMPDEST DUP2 EQ PUSH2 0x3F45 JUMPI PUSH1 0x0 DUP1 REVERT JUMPDEST POP JUMP INVALID LOG2 PUSH5 0x6970667358 0x22 SLT KECCAK256 PUSH16 0xE7DDB91C67034690B5A4CB6DCB0D2E35 0xE3 0x25 REVERT SLOAD 0xF9 PUSH24 0xDDD921B196BDBFDF3C64736F6C6343000804003300000000 "
        },
        "methodIdentifiers": {
          "approve(address,uint256)": "095ea7b3",
          "balanceOf(address)": "70a08231",
          "checkUpkeep(bytes)": "6e04ff0d",
          "getApproved(uint256)": "081812fc",
          "initialize(string,address)": "7ab4339d",
          "isApprovedForAll(address,address)": "e985e9c5",
          "latestDateChecked()": "3325c025",
          "latestPrice()": "a3e6ba94",
          "name()": "06fdde03",
          "ownerOf(uint256)": "6352211e",
          "performUpkeep(bytes)": "4585e33b",
          "safeTransferFrom(address,address,uint256)": "42842e0e",
          "safeTransferFrom(address,address,uint256,bytes)": "b88d4fde",
          "setApprovalForAll(address,bool)": "a22cb465",
          "supportsInterface(bytes4)": "01ffc9a7",
          "symbol()": "95d89b41",
          "tokenURI(uint256)": "c87b56dd",
          "transferFrom(address,address,uint256)": "23b872dd",
          "trend()": "b85fcc35",
          "updatePrice()": "673a7e28"
        }
      }
    }
  }
}