{
  "_format": "hh-sol-artifact-1",
  "contractName": "ETHTrackerNFT_TEST",
  "sourceName": "contracts/ETHTrackerNFT_TEST.sol",
  "abi": [
    {
      "inputs": [
        {
          "internalType": "string",
          "name": "baseURI",
          "type": "string"
        },
        {
          "internalType": "address",
          "name": "priceFeedOracle",
          "type": "address"
        }
      ],
      "stateMutability": "nonpayable",
      "type": "constructor"
    },
    {
      "anonymous": false,
      "inputs": [
        {
          "indexed": true,
          "internalType": "address",
          "name": "owner",
          "type": "address"
        },
        {
          "indexed": true,
          "internalType": "address",
          "name": "approved",
          "type": "address"
        },
        {
          "indexed": true,
          "internalType": "uint256",
          "name": "tokenId",
          "type": "uint256"
        }
      ],
      "name": "Approval",
      "type": "event"
    },
    {
      "anonymous": false,
      "inputs": [
        {
          "indexed": true,
          "internalType": "address",
          "name": "owner",
          "type": "address"
        },
        {
          "indexed": true,
          "internalType": "address",
          "name": "operator",
          "type": "address"
        },
        {
          "indexed": false,
          "internalType": "bool",
          "name": "approved",
          "type": "bool"
        }
      ],
      "name": "ApprovalForAll",
      "type": "event"
    },
    {
      "anonymous": false,
      "inputs": [
        {
          "indexed": true,
          "internalType": "address",
          "name": "from",
          "type": "address"
        },
        {
          "indexed": true,
          "internalType": "address",
          "name": "to",
          "type": "address"
        },
        {
          "indexed": true,
          "internalType": "uint256",
          "name": "tokenId",
          "type": "uint256"
        }
      ],
      "name": "Transfer",
      "type": "event"
    },
    {
      "inputs": [
        {
          "internalType": "int256",
          "name": "price",
          "type": "int256"
        },
        {
          "internalType": "uint256",
          "name": "timestamp",
          "type": "uint256"
        }
      ],
      "name": "TEST_UpdatePrice",
      "outputs": [],
      "stateMutability": "nonpayable",
      "type": "function"
    },
    {
      "inputs": [
        {
          "internalType": "address",
          "name": "to",
          "type": "address"
        },
        {
          "internalType": "uint256",
          "name": "tokenId",
          "type": "uint256"
        }
      ],
      "name": "approve",
      "outputs": [],
      "stateMutability": "nonpayable",
      "type": "function"
    },
    {
      "inputs": [
        {
          "internalType": "address",
          "name": "owner",
          "type": "address"
        }
      ],
      "name": "balanceOf",
      "outputs": [
        {
          "internalType": "uint256",
          "name": "",
          "type": "uint256"
        }
      ],
      "stateMutability": "view",
      "type": "function"
    },
    {
      "inputs": [
        {
          "internalType": "bytes",
          "name": "checkData",
          "type": "bytes"
        },
        {
          "internalType": "int256",
          "name": "price",
          "type": "int256"
        },
        {
          "internalType": "uint256",
          "name": "_timestamp",
          "type": "uint256"
        }
      ],
      "name": "checkUpkeep",
      "outputs": [
        {
          "internalType": "bool",
          "name": "upkeepNeeded",
          "type": "bool"
        },
        {
          "internalType": "bytes",
          "name": "performData",
          "type": "bytes"
        }
      ],
      "stateMutability": "view",
      "type": "function"
    },
    {
      "inputs": [
        {
          "internalType": "uint256",
          "name": "tokenId",
          "type": "uint256"
        }
      ],
      "name": "getApproved",
      "outputs": [
        {
          "internalType": "address",
          "name": "",
          "type": "address"
        }
      ],
      "stateMutability": "view",
      "type": "function"
    },
    {
      "inputs": [
        {
          "internalType": "address",
          "name": "owner",
          "type": "address"
        },
        {
          "internalType": "address",
          "name": "operator",
          "type": "address"
        }
      ],
      "name": "isApprovedForAll",
      "outputs": [
        {
          "internalType": "bool",
          "name": "",
          "type": "bool"
        }
      ],
      "stateMutability": "view",
      "type": "function"
    },
    {
      "inputs": [],
      "name": "latestDateChecked",
      "outputs": [
        {
          "internalType": "uint256",
          "name": "",
          "type": "uint256"
        }
      ],
      "stateMutability": "view",
      "type": "function"
    },
    {
      "inputs": [],
      "name": "latestPrice",
      "outputs": [
        {
          "internalType": "int256",
          "name": "",
          "type": "int256"
        }
      ],
      "stateMutability": "view",
      "type": "function"
    },
    {
      "inputs": [],
      "name": "name",
      "outputs": [
        {
          "internalType": "string",
          "name": "",
          "type": "string"
        }
      ],
      "stateMutability": "view",
      "type": "function"
    },
    {
      "inputs": [
        {
          "internalType": "uint256",
          "name": "tokenId",
          "type": "uint256"
        }
      ],
      "name": "ownerOf",
      "outputs": [
        {
          "internalType": "address",
          "name": "",
          "type": "address"
        }
      ],
      "stateMutability": "view",
      "type": "function"
    },
    {
      "inputs": [
        {
          "internalType": "bytes",
          "name": "performData",
          "type": "bytes"
        },
        {
          "internalType": "int256",
          "name": "price",
          "type": "int256"
        },
        {
          "internalType": "uint256",
          "name": "timestamp",
          "type": "uint256"
        }
      ],
      "name": "performUpkeep",
      "outputs": [],
      "stateMutability": "nonpayable",
      "type": "function"
    },
    {
      "inputs": [
        {
          "internalType": "address",
          "name": "from",
          "type": "address"
        },
        {
          "internalType": "address",
          "name": "to",
          "type": "address"
        },
        {
          "internalType": "uint256",
          "name": "tokenId",
          "type": "uint256"
        }
      ],
      "name": "safeTransferFrom",
      "outputs": [],
      "stateMutability": "nonpayable",
      "type": "function"
    },
    {
      "inputs": [
        {
          "internalType": "address",
          "name": "from",
          "type": "address"
        },
        {
          "internalType": "address",
          "name": "to",
          "type": "address"
        },
        {
          "internalType": "uint256",
          "name": "tokenId",
          "type": "uint256"
        },
        {
          "internalType": "bytes",
          "name": "_data",
          "type": "bytes"
        }
      ],
      "name": "safeTransferFrom",
      "outputs": [],
      "stateMutability": "nonpayable",
      "type": "function"
    },
    {
      "inputs": [
        {
          "internalType": "address",
          "name": "operator",
          "type": "address"
        },
        {
          "internalType": "bool",
          "name": "approved",
          "type": "bool"
        }
      ],
      "name": "setApprovalForAll",
      "outputs": [],
      "stateMutability": "nonpayable",
      "type": "function"
    },
    {
      "inputs": [
        {
          "internalType": "bytes4",
          "name": "interfaceId",
          "type": "bytes4"
        }
      ],
      "name": "supportsInterface",
      "outputs": [
        {
          "internalType": "bool",
          "name": "",
          "type": "bool"
        }
      ],
      "stateMutability": "view",
      "type": "function"
    },
    {
      "inputs": [],
      "name": "symbol",
      "outputs": [
        {
          "internalType": "string",
          "name": "",
          "type": "string"
        }
      ],
      "stateMutability": "view",
      "type": "function"
    },
    {
      "inputs": [
        {
          "internalType": "uint256",
          "name": "tokenId",
          "type": "uint256"
        }
      ],
      "name": "tokenURI",
      "outputs": [
        {
          "internalType": "string",
          "name": "",
          "type": "string"
        }
      ],
      "stateMutability": "view",
      "type": "function"
    },
    {
      "inputs": [
        {
          "internalType": "address",
          "name": "from",
          "type": "address"
        },
        {
          "internalType": "address",
          "name": "to",
          "type": "address"
        },
        {
          "internalType": "uint256",
          "name": "tokenId",
          "type": "uint256"
        }
      ],
      "name": "transferFrom",
      "outputs": [],
      "stateMutability": "nonpayable",
      "type": "function"
    },
    {
      "inputs": [],
      "name": "trend",
      "outputs": [
        {
          "internalType": "int16",
          "name": "",
          "type": "int16"
        }
      ],
      "stateMutability": "view",
      "type": "function"
    }
  ],
  "bytecode": "0x60806040523480156200001157600080fd5b5060405162003dc238038062003dc283398181016040528101906200003791906200056c565b6040518060400160405280600d81526020017f455448547261636b65724e4654000000000000000000000000000000000000008152506040518060400160405280600381526020017f45544e00000000000000000000000000000000000000000000000000000000008152508160009080519060200190620000bb92919062000433565b508060019080519060200190620000d492919062000433565b5050508160079080519060200190620000ef92919062000433565b5080600660006101000a81548173ffffffffffffffffffffffffffffffffffffffff021916908373ffffffffffffffffffffffffffffffffffffffff160217905550620001443360006200018e60201b60201c565b60008062000162642e90edd000635fee66006200037460201b60201c565b91509150816008819055506200017e816200038460201b60201c565b60098190555050505050620009b1565b600073ffffffffffffffffffffffffffffffffffffffff168273ffffffffffffffffffffffffffffffffffffffff16141562000201576040517f08c379a0000000000000000000000000000000000000000000000000000000008152600401620001f89062000636565b60405180910390fd5b6200021281620003c260201b60201c565b1562000255576040517f08c379a00000000000000000000000000000000000000000000000000000000081526004016200024c9062000614565b60405180910390fd5b62000269600083836200042e60201b60201c565b6001600360008473ffffffffffffffffffffffffffffffffffffffff1673ffffffffffffffffffffffffffffffffffffffff1681526020019081526020016000206000828254620002bb9190620006c8565b92505081905550816002600083815260200190815260200160002060006101000a81548173ffffffffffffffffffffffffffffffffffffffff021916908373ffffffffffffffffffffffffffffffffffffffff160217905550808273ffffffffffffffffffffffffffffffffffffffff16600073ffffffffffffffffffffffffffffffffffffffff167fddf252ad1be2c89b69c2b068fc378daa952ba7f163c4a11628f55a4df523b3ef60405160405180910390a45050565b6000808383915091509250929050565b60008062015180905060008163ffffffff1684620003a3919062000840565b905060008185620003b5919062000725565b9050809350505050919050565b60008073ffffffffffffffffffffffffffffffffffffffff166002600084815260200190815260200160002060009054906101000a900473ffffffffffffffffffffffffffffffffffffffff1673ffffffffffffffffffffffffffffffffffffffff1614159050919050565b505050565b8280546200044190620007d4565b90600052602060002090601f016020900481019282620004655760008555620004b1565b82601f106200048057805160ff1916838001178555620004b1565b82800160010185558215620004b1579182015b82811115620004b057825182559160200191906001019062000493565b5b509050620004c09190620004c4565b5090565b5b80821115620004df576000816000905550600101620004c5565b5090565b6000620004fa620004f48462000681565b62000658565b9050828152602081018484840111156200051357600080fd5b620005208482856200079e565b509392505050565b600081519050620005398162000997565b92915050565b600082601f8301126200055157600080fd5b815162000563848260208601620004e3565b91505092915050565b600080604083850312156200058057600080fd5b600083015167ffffffffffffffff8111156200059b57600080fd5b620005a9858286016200053f565b9250506020620005bc8582860162000528565b9150509250929050565b6000620005d5601c83620006b7565b9150620005e28262000945565b602082019050919050565b6000620005fc602083620006b7565b915062000609826200096e565b602082019050919050565b600060208201905081810360008301526200062f81620005c6565b9050919050565b600060208201905081810360008301526200065181620005ed565b9050919050565b60006200066462000677565b90506200067282826200080a565b919050565b6000604051905090565b600067ffffffffffffffff8211156200069f576200069e62000905565b5b620006aa8262000934565b9050602081019050919050565b600082825260208201905092915050565b6000620006d58262000794565b9150620006e28362000794565b9250827fffffffffffffffffffffffffffffffffffffffffffffffffffffffffffffffff038211156200071a576200071962000878565b5b828201905092915050565b6000620007328262000794565b91506200073f8362000794565b92508282101562000755576200075462000878565b5b828203905092915050565b60006200076d8262000774565b9050919050565b600073ffffffffffffffffffffffffffffffffffffffff82169050919050565b6000819050919050565b60005b83811015620007be578082015181840152602081019050620007a1565b83811115620007ce576000848401525b50505050565b60006002820490506001821680620007ed57607f821691505b60208210811415620008045762000803620008d6565b5b50919050565b620008158262000934565b810181811067ffffffffffffffff8211171562000837576200083662000905565b5b80604052505050565b60006200084d8262000794565b91506200085a8362000794565b9250826200086d576200086c620008a7565b5b828206905092915050565b7f4e487b7100000000000000000000000000000000000000000000000000000000600052601160045260246000fd5b7f4e487b7100000000000000000000000000000000000000000000000000000000600052601260045260246000fd5b7f4e487b7100000000000000000000000000000000000000000000000000000000600052602260045260246000fd5b7f4e487b7100000000000000000000000000000000000000000000000000000000600052604160045260246000fd5b6000601f19601f8301169050919050565b7f4552433732313a20746f6b656e20616c7265616479206d696e74656400000000600082015250565b7f4552433732313a206d696e7420746f20746865207a65726f2061646472657373600082015250565b620009a28162000760565b8114620009ae57600080fd5b50565b61340180620009c16000396000f3fe608060405234801561001057600080fd5b50600436106101215760003560e01c806370a08231116100ad578063b85fcc3511610071578063b85fcc3514610306578063b88d4fde14610324578063c87b56dd14610340578063e7012cae14610370578063e985e9c5146103a157610121565b806370a082311461026257806395d89b4114610292578063a0fe0517146102b0578063a22cb465146102cc578063a3e6ba94146102e857610121565b80631064b46c116100f45780631064b46c146101c057806323b872dd146101dc5780633325c025146101f857806342842e0e146102165780636352211e1461023257610121565b806301ffc9a71461012657806306fdde0314610156578063081812fc14610174578063095ea7b3146101a4575b600080fd5b610140600480360381019061013b9190612353565b6103d1565b60405161014d9190612835565b60405180910390f35b61015e6104b3565b60405161016b91906128b6565b60405180910390f35b61018e6004803603810190610189919061244d565b610545565b60405161019b91906127ce565b60405180910390f35b6101be60048036038101906101b99190612317565b6105ca565b005b6101da60048036038101906101d59190612411565b6106e2565b005b6101f660048036038101906101f19190612211565b611130565b005b610200611190565b60405161020d9190612a78565b60405180910390f35b610230600480360381019061022b9190612211565b611196565b005b61024c6004803603810190610247919061244d565b6111b6565b60405161025991906127ce565b60405180910390f35b61027c600480360381019061027791906121ac565b611268565b6040516102899190612a78565b60405180910390f35b61029a611320565b6040516102a791906128b6565b60405180910390f35b6102ca60048036038101906102c591906123a5565b6113b2565b005b6102e660048036038101906102e191906122db565b6113c2565b005b6102f0611543565b6040516102fd919061289b565b60405180910390f35b61030e611549565b60405161031b9190612880565b60405180910390f35b61033e60048036038101906103399190612260565b61155c565b005b61035a6004803603810190610355919061244d565b6115be565b60405161036791906128b6565b60405180910390f35b61038a600480360381019061038591906123a5565b61167c565b604051610398929190612850565b60405180910390f35b6103bb60048036038101906103b691906121d5565b611715565b6040516103c89190612835565b60405180910390f35b60007f80ac58cd000000000000000000000000000000000000000000000000000000007bffffffffffffffffffffffffffffffffffffffffffffffffffffffff1916827bffffffffffffffffffffffffffffffffffffffffffffffffffffffff1916148061049c57507f5b5e139f000000000000000000000000000000000000000000000000000000007bffffffffffffffffffffffffffffffffffffffffffffffffffffffff1916827bffffffffffffffffffffffffffffffffffffffffffffffffffffffff1916145b806104ac57506104ab826117a9565b5b9050919050565b6060600080546104c290612da6565b80601f01602080910402602001604051908101604052809291908181526020018280546104ee90612da6565b801561053b5780601f106105105761010080835404028352916020019161053b565b820191906000526020600020905b81548152906001019060200180831161051e57829003601f168201915b5050505050905090565b600061055082611813565b61058f576040517f08c379a0000000000000000000000000000000000000000000000000000000008152600401610586906129f8565b60405180910390fd5b6004600083815260200190815260200160002060009054906101000a900473ffffffffffffffffffffffffffffffffffffffff169050919050565b60006105d5826111b6565b90508073ffffffffffffffffffffffffffffffffffffffff168373ffffffffffffffffffffffffffffffffffffffff161415610646576040517f08c379a000000000000000000000000000000000000000000000000000000000815260040161063d90612a38565b60405180910390fd5b8073ffffffffffffffffffffffffffffffffffffffff1661066561187f565b73ffffffffffffffffffffffffffffffffffffffff16148061069457506106938161068e61187f565b611715565b5b6106d3576040517f08c379a00000000000000000000000000000000000000000000000000000000081526004016106ca90612998565b60405180910390fd5b6106dd8383611887565b505050565b6106ec8282611940565b809250819350505060006106ff82611950565b9050600954811415610746576040517f08c379a000000000000000000000000000000000000000000000000000000000815260040161073d90612978565b60405180910390fd5b600060085490506000600954905060006201518090506000838761076a9190612bc8565b13156109e4578063ffffffff16846107829190612c5c565b82141561080b576000600a60009054906101000a900460010b60010b136107c8576001600a60006101000a81548161ffff021916908360010b61ffff1602179055610805565b600a600081819054906101000a900460010b809291906107e790612e09565b91906101000a81548161ffff021916908360010b61ffff1602179055505b5061082d565b6001600a60006101000a81548161ffff021916908360010b61ffff1602179055505b6501d1a94a2000861261088f5760068060146101000a81548160ff02191690836006811115610885577f4e487b7100000000000000000000000000000000000000000000000000000000600052602160045260246000fd5b02179055506109df565b6005600a60009054906101000a900460010b60010b126108ff576002600660146101000a81548160ff021916908360068111156108f5577f4e487b7100000000000000000000000000000000000000000000000000000000600052602160045260246000fd5b02179055506109de565b6002600a60009054906101000a900460010b60010b1261096f576001600660146101000a81548160ff02191690836006811115610965577f4e487b7100000000000000000000000000000000000000000000000000000000600052602160045260246000fd5b02179055506109dd565b6001600a60009054906101000a900460010b60010b14156109dc576000600660146101000a81548160ff021916908360068111156109d6577f4e487b7100000000000000000000000000000000000000000000000000000000600052602160045260246000fd5b02179055505b5b5b5b61111a565b600083876109f29190612bc8565b1215610d07578063ffffffff1684610a0a9190612c5c565b821415610ab2576000600a60009054906101000a900460010b60010b12610a6f577fffffffffffffffffffffffffffffffffffffffffffffffffffffffffffffffff600a60006101000a81548161ffff021916908360010b61ffff1602179055610aac565b600a600081819054906101000a900460010b80929190610a8e90612d5d565b91906101000a81548161ffff021916908360010b61ffff1602179055505b50610af3565b7fffffffffffffffffffffffffffffffffffffffffffffffffffffffffffffffff600a60006101000a81548161ffff021916908360010b61ffff1602179055505b6501d1a94a20008612610b555760068060146101000a81548160ff02191690836006811115610b4b577f4e487b7100000000000000000000000000000000000000000000000000000000600052602160045260246000fd5b0217905550610d02565b7ffffffffffffffffffffffffffffffffffffffffffffffffffffffffffffffffb600a60009054906101000a900460010b60010b13610be4576005600660146101000a81548160ff02191690836006811115610bda577f4e487b7100000000000000000000000000000000000000000000000000000000600052602160045260246000fd5b0217905550610d01565b7ffffffffffffffffffffffffffffffffffffffffffffffffffffffffffffffffe600a60009054906101000a900460010b60010b13610c73576004600660146101000a81548160ff02191690836006811115610c69577f4e487b7100000000000000000000000000000000000000000000000000000000600052602160045260246000fd5b0217905550610d00565b7fffffffffffffffffffffffffffffffffffffffffffffffffffffffffffffffff600a60009054906101000a900460010b60010b1415610cff576003600660146101000a81548160ff02191690836006811115610cf9577f4e487b7100000000000000000000000000000000000000000000000000000000600052602160045260246000fd5b02179055505b5b5b5b611119565b60008387610d159190612bc8565b1415611118578063ffffffff1684610d2d9190612c5c565b8214611117576000600a60009054906101000a900460010b60010b13610d91577fffffffffffffffffffffffffffffffffffffffffffffffffffffffffffffffff600a60006101000a81548161ffff021916908360010b61ffff1602179055610db2565b6001600a60006101000a81548161ffff021916908360010b61ffff16021790555b506501d1a94a20008612610e155760068060146101000a81548160ff02191690836006811115610e0b577f4e487b7100000000000000000000000000000000000000000000000000000000600052602160045260246000fd5b0217905550611116565b6005600a60009054906101000a900460010b60010b12610e85576002600660146101000a81548160ff02191690836006811115610e7b577f4e487b7100000000000000000000000000000000000000000000000000000000600052602160045260246000fd5b0217905550611115565b6002600a60009054906101000a900460010b60010b12610ef5576001600660146101000a81548160ff02191690836006811115610eeb577f4e487b7100000000000000000000000000000000000000000000000000000000600052602160045260246000fd5b0217905550611114565b6001600a60009054906101000a900460010b60010b1415610f66576000600660146101000a81548160ff02191690836006811115610f5c577f4e487b7100000000000000000000000000000000000000000000000000000000600052602160045260246000fd5b0217905550611113565b7ffffffffffffffffffffffffffffffffffffffffffffffffffffffffffffffffb600a60009054906101000a900460010b60010b13610ff5576005600660146101000a81548160ff02191690836006811115610feb577f4e487b7100000000000000000000000000000000000000000000000000000000600052602160045260246000fd5b0217905550611112565b7ffffffffffffffffffffffffffffffffffffffffffffffffffffffffffffffffe600a60009054906101000a900460010b60010b13611084576004600660146101000a81548160ff0219169083600681111561107a577f4e487b7100000000000000000000000000000000000000000000000000000000600052602160045260246000fd5b0217905550611111565b7fffffffffffffffffffffffffffffffffffffffffffffffffffffffffffffffff600a60009054906101000a900460010b60010b1415611110576003600660146101000a81548160ff0219169083600681111561110a577f4e487b7100000000000000000000000000000000000000000000000000000000600052602160045260246000fd5b02179055505b5b5b5b5b5b5b5b5b5b5b8560088190555083600981905550505050505050565b61114161113b61187f565b8261198a565b611180576040517f08c379a000000000000000000000000000000000000000000000000000000000815260040161117790612a58565b60405180910390fd5b61118b838383611a68565b505050565b60095481565b6111b18383836040518060200160405280600081525061155c565b505050565b6000806002600084815260200190815260200160002060009054906101000a900473ffffffffffffffffffffffffffffffffffffffff169050600073ffffffffffffffffffffffffffffffffffffffff168173ffffffffffffffffffffffffffffffffffffffff16141561125f576040517f08c379a0000000000000000000000000000000000000000000000000000000008152600401611256906129d8565b60405180910390fd5b80915050919050565b60008073ffffffffffffffffffffffffffffffffffffffff168273ffffffffffffffffffffffffffffffffffffffff1614156112d9576040517f08c379a00000000000000000000000000000000000000000000000000000000081526004016112d0906129b8565b60405180910390fd5b600360008373ffffffffffffffffffffffffffffffffffffffff1673ffffffffffffffffffffffffffffffffffffffff168152602001908152602001600020549050919050565b60606001805461132f90612da6565b80601f016020809104026020016040519081016040528092919081815260200182805461135b90612da6565b80156113a85780601f1061137d576101008083540402835291602001916113a8565b820191906000526020600020905b81548152906001019060200180831161138b57829003601f168201915b5050505050905090565b6113bc82826106e2565b50505050565b6113ca61187f565b73ffffffffffffffffffffffffffffffffffffffff168273ffffffffffffffffffffffffffffffffffffffff161415611438576040517f08c379a000000000000000000000000000000000000000000000000000000000815260040161142f90612918565b60405180910390fd5b806005600061144561187f565b73ffffffffffffffffffffffffffffffffffffffff1673ffffffffffffffffffffffffffffffffffffffff16815260200190815260200160002060008473ffffffffffffffffffffffffffffffffffffffff1673ffffffffffffffffffffffffffffffffffffffff16815260200190815260200160002060006101000a81548160ff0219169083151502179055508173ffffffffffffffffffffffffffffffffffffffff166114f261187f565b73ffffffffffffffffffffffffffffffffffffffff167f17307eab39ab6107e8899845ad3d59bd9653f200f220920489ca2b5937696c31836040516115379190612835565b60405180910390a35050565b60085481565b600a60009054906101000a900460010b81565b61156d61156761187f565b8361198a565b6115ac576040517f08c379a00000000000000000000000000000000000000000000000000000000081526004016115a390612a58565b60405180910390fd5b6115b884848484611cc4565b50505050565b606060008214611603576040517f08c379a00000000000000000000000000000000000000000000000000000000081526004016115fa90612958565b60405180910390fd5b6007611655600660149054906101000a900460ff166006811115611650577f4e487b7100000000000000000000000000000000000000000000000000000000600052602160045260246000fd5b611d20565b6040516020016116669291906127aa565b6040516020818303038152906040529050919050565b60006060600062015180905060006116948686611940565b9150508163ffffffff166009546116ab9190612b41565b8110156116bc5760009350836116c2565b60019350835b5087878080601f016020809104026020016040519081016040528093929190818152602001838380828437600081840152601f19601f820116905080830192505050505050509250505094509492505050565b6000600560008473ffffffffffffffffffffffffffffffffffffffff1673ffffffffffffffffffffffffffffffffffffffff16815260200190815260200160002060008373ffffffffffffffffffffffffffffffffffffffff1673ffffffffffffffffffffffffffffffffffffffff16815260200190815260200160002060009054906101000a900460ff16905092915050565b60007f01ffc9a7000000000000000000000000000000000000000000000000000000007bffffffffffffffffffffffffffffffffffffffffffffffffffffffff1916827bffffffffffffffffffffffffffffffffffffffffffffffffffffffff1916149050919050565b60008073ffffffffffffffffffffffffffffffffffffffff166002600084815260200190815260200160002060009054906101000a900473ffffffffffffffffffffffffffffffffffffffff1673ffffffffffffffffffffffffffffffffffffffff1614159050919050565b600033905090565b816004600083815260200190815260200160002060006101000a81548173ffffffffffffffffffffffffffffffffffffffff021916908373ffffffffffffffffffffffffffffffffffffffff160217905550808273ffffffffffffffffffffffffffffffffffffffff166118fa836111b6565b73ffffffffffffffffffffffffffffffffffffffff167f8c5be1e5ebec7d5bd14f71427d1e84f3dd0314c0f7b2291e5b200ac8c7c3b92560405160405180910390a45050565b6000808383915091509250929050565b60008062015180905060008163ffffffff168461196d9190612e7d565b90506000818561197d9190612c5c565b9050809350505050919050565b600061199582611813565b6119d4576040517f08c379a00000000000000000000000000000000000000000000000000000000081526004016119cb90612938565b60405180910390fd5b60006119df836111b6565b90508073ffffffffffffffffffffffffffffffffffffffff168473ffffffffffffffffffffffffffffffffffffffff161480611a4e57508373ffffffffffffffffffffffffffffffffffffffff16611a3684610545565b73ffffffffffffffffffffffffffffffffffffffff16145b80611a5f5750611a5e8185611715565b5b91505092915050565b8273ffffffffffffffffffffffffffffffffffffffff16611a88826111b6565b73ffffffffffffffffffffffffffffffffffffffff1614611ade576040517f08c379a0000000000000000000000000000000000000000000000000000000008152600401611ad590612a18565b60405180910390fd5b600073ffffffffffffffffffffffffffffffffffffffff168273ffffffffffffffffffffffffffffffffffffffff161415611b4e576040517f08c379a0000000000000000000000000000000000000000000000000000000008152600401611b45906128f8565b60405180910390fd5b611b59838383611ecd565b611b64600082611887565b6001600360008573ffffffffffffffffffffffffffffffffffffffff1673ffffffffffffffffffffffffffffffffffffffff1681526020019081526020016000206000828254611bb49190612c5c565b925050819055506001600360008473ffffffffffffffffffffffffffffffffffffffff1673ffffffffffffffffffffffffffffffffffffffff1681526020019081526020016000206000828254611c0b9190612b41565b92505081905550816002600083815260200190815260200160002060006101000a81548173ffffffffffffffffffffffffffffffffffffffff021916908373ffffffffffffffffffffffffffffffffffffffff160217905550808273ffffffffffffffffffffffffffffffffffffffff168473ffffffffffffffffffffffffffffffffffffffff167fddf252ad1be2c89b69c2b068fc378daa952ba7f163c4a11628f55a4df523b3ef60405160405180910390a4505050565b611ccf848484611a68565b611cdb84848484611ed2565b611d1a576040517f08c379a0000000000000000000000000000000000000000000000000000000008152600401611d11906128d8565b60405180910390fd5b50505050565b60606000821415611d68576040518060400160405280600181526020017f30000000000000000000000000000000000000000000000000000000000000008152509050611ec8565b600082905060005b60008214611d9a578080611d8390612e34565b915050600a82611d939190612b97565b9150611d70565b60008167ffffffffffffffff811115611ddc577f4e487b7100000000000000000000000000000000000000000000000000000000600052604160045260246000fd5b6040519080825280601f01601f191660200182016040528015611e0e5781602001600182028036833780820191505090505b5090505b60008514611ec157600182611e279190612c5c565b9150600a85611e369190612e7d565b6030611e429190612b41565b60f81b818381518110611e7e577f4e487b7100000000000000000000000000000000000000000000000000000000600052603260045260246000fd5b60200101907effffffffffffffffffffffffffffffffffffffffffffffffffffffffffffff1916908160001a905350600a85611eba9190612b97565b9450611e12565b8093505050505b919050565b505050565b6000611ef38473ffffffffffffffffffffffffffffffffffffffff16612069565b1561205c578373ffffffffffffffffffffffffffffffffffffffff1663150b7a02611f1c61187f565b8786866040518563ffffffff1660e01b8152600401611f3e94939291906127e9565b602060405180830381600087803b158015611f5857600080fd5b505af1925050508015611f8957506040513d601f19601f82011682018060405250810190611f86919061237c565b60015b61200c573d8060008114611fb9576040519150601f19603f3d011682016040523d82523d6000602084013e611fbe565b606091505b50600081511415612004576040517f08c379a0000000000000000000000000000000000000000000000000000000008152600401611ffb906128d8565b60405180910390fd5b805181602001fd5b63150b7a0260e01b7bffffffffffffffffffffffffffffffffffffffffffffffffffffffff1916817bffffffffffffffffffffffffffffffffffffffffffffffffffffffff191614915050612061565b600190505b949350505050565b600080823b905060008111915050919050565b600061208f61208a84612ab8565b612a93565b9050828152602081018484840111156120a757600080fd5b6120b2848285612d1b565b509392505050565b6000813590506120c981613358565b92915050565b6000813590506120de8161336f565b92915050565b6000813590506120f381613386565b92915050565b60008151905061210881613386565b92915050565b60008083601f84011261212057600080fd5b8235905067ffffffffffffffff81111561213957600080fd5b60208301915083600182028301111561215157600080fd5b9250929050565b600082601f83011261216957600080fd5b813561217984826020860161207c565b91505092915050565b6000813590506121918161339d565b92915050565b6000813590506121a6816133b4565b92915050565b6000602082840312156121be57600080fd5b60006121cc848285016120ba565b91505092915050565b600080604083850312156121e857600080fd5b60006121f6858286016120ba565b9250506020612207858286016120ba565b9150509250929050565b60008060006060848603121561222657600080fd5b6000612234868287016120ba565b9350506020612245868287016120ba565b925050604061225686828701612197565b9150509250925092565b6000806000806080858703121561227657600080fd5b6000612284878288016120ba565b9450506020612295878288016120ba565b93505060406122a687828801612197565b925050606085013567ffffffffffffffff8111156122c357600080fd5b6122cf87828801612158565b91505092959194509250565b600080604083850312156122ee57600080fd5b60006122fc858286016120ba565b925050602061230d858286016120cf565b9150509250929050565b6000806040838503121561232a57600080fd5b6000612338858286016120ba565b925050602061234985828601612197565b9150509250929050565b60006020828403121561236557600080fd5b6000612373848285016120e4565b91505092915050565b60006020828403121561238e57600080fd5b600061239c848285016120f9565b91505092915050565b600080600080606085870312156123bb57600080fd5b600085013567ffffffffffffffff8111156123d557600080fd5b6123e18782880161210e565b945094505060206123f487828801612182565b925050604061240587828801612197565b91505092959194509250565b6000806040838503121561242457600080fd5b600061243285828601612182565b925050602061244385828601612197565b9150509250929050565b60006020828403121561245f57600080fd5b600061246d84828501612197565b91505092915050565b61247f81612c90565b82525050565b61248e81612ca2565b82525050565b600061249f82612afe565b6124a98185612b14565b93506124b9818560208601612d2a565b6124c281612f6a565b840191505092915050565b6124d681612cda565b82525050565b6124e581612ce7565b82525050565b60006124f682612b09565b6125008185612b25565b9350612510818560208601612d2a565b61251981612f6a565b840191505092915050565b600061252f82612b09565b6125398185612b36565b9350612549818560208601612d2a565b80840191505092915050565b6000815461256281612da6565b61256c8186612b36565b945060018216600081146125875760018114612598576125cb565b60ff198316865281860193506125cb565b6125a185612ae9565b60005b838110156125c3578154818901526001820191506020810190506125a4565b838801955050505b50505092915050565b60006125e1603283612b25565b91506125ec82612f7b565b604082019050919050565b6000612604602483612b25565b915061260f82612fca565b604082019050919050565b6000612627601983612b25565b915061263282613019565b602082019050919050565b600061264a602c83612b25565b915061265582613042565b604082019050919050565b600061266d601583612b25565b915061267882613091565b602082019050919050565b6000612690604783612b25565b915061269b826130ba565b606082019050919050565b60006126b3603883612b25565b91506126be8261312f565b604082019050919050565b60006126d6602a83612b25565b91506126e18261317e565b604082019050919050565b60006126f9602983612b25565b9150612704826131cd565b604082019050919050565b600061271c602c83612b25565b91506127278261321c565b604082019050919050565b600061273f602983612b25565b915061274a8261326b565b604082019050919050565b6000612762602183612b25565b915061276d826132ba565b604082019050919050565b6000612785603183612b25565b915061279082613309565b604082019050919050565b6127a481612d11565b82525050565b60006127b68285612555565b91506127c28284612524565b91508190509392505050565b60006020820190506127e36000830184612476565b92915050565b60006080820190506127fe6000830187612476565b61280b6020830186612476565b612818604083018561279b565b818103606083015261282a8184612494565b905095945050505050565b600060208201905061284a6000830184612485565b92915050565b60006040820190506128656000830185612485565b81810360208301526128778184612494565b90509392505050565b600060208201905061289560008301846124cd565b92915050565b60006020820190506128b060008301846124dc565b92915050565b600060208201905081810360008301526128d081846124eb565b905092915050565b600060208201905081810360008301526128f1816125d4565b9050919050565b60006020820190508181036000830152612911816125f7565b9050919050565b600060208201905081810360008301526129318161261a565b9050919050565b600060208201905081810360008301526129518161263d565b9050919050565b6000602082019050818103600083015261297181612660565b9050919050565b6000602082019050818103600083015261299181612683565b9050919050565b600060208201905081810360008301526129b1816126a6565b9050919050565b600060208201905081810360008301526129d1816126c9565b9050919050565b600060208201905081810360008301526129f1816126ec565b9050919050565b60006020820190508181036000830152612a118161270f565b9050919050565b60006020820190508181036000830152612a3181612732565b9050919050565b60006020820190508181036000830152612a5181612755565b9050919050565b60006020820190508181036000830152612a7181612778565b9050919050565b6000602082019050612a8d600083018461279b565b92915050565b6000612a9d612aae565b9050612aa98282612dd8565b919050565b6000604051905090565b600067ffffffffffffffff821115612ad357612ad2612f3b565b5b612adc82612f6a565b9050602081019050919050565b60008190508160005260206000209050919050565b600081519050919050565b600081519050919050565b600082825260208201905092915050565b600082825260208201905092915050565b600081905092915050565b6000612b4c82612d11565b9150612b5783612d11565b9250827fffffffffffffffffffffffffffffffffffffffffffffffffffffffffffffffff03821115612b8c57612b8b612eae565b5b828201905092915050565b6000612ba282612d11565b9150612bad83612d11565b925082612bbd57612bbc612edd565b5b828204905092915050565b6000612bd382612ce7565b9150612bde83612ce7565b9250827f800000000000000000000000000000000000000000000000000000000000000001821260008412151615612c1957612c18612eae565b5b827f7fffffffffffffffffffffffffffffffffffffffffffffffffffffffffffffff018213600084121615612c5157612c50612eae565b5b828203905092915050565b6000612c6782612d11565b9150612c7283612d11565b925082821015612c8557612c84612eae565b5b828203905092915050565b6000612c9b82612cf1565b9050919050565b60008115159050919050565b60007fffffffff0000000000000000000000000000000000000000000000000000000082169050919050565b60008160010b9050919050565b6000819050919050565b600073ffffffffffffffffffffffffffffffffffffffff82169050919050565b6000819050919050565b82818337600083830152505050565b60005b83811015612d48578082015181840152602081019050612d2d565b83811115612d57576000848401525b50505050565b6000612d6882612cda565b91507fffffffffffffffffffffffffffffffffffffffffffffffffffffffffffff8000821415612d9b57612d9a612eae565b5b600182039050919050565b60006002820490506001821680612dbe57607f821691505b60208210811415612dd257612dd1612f0c565b5b50919050565b612de182612f6a565b810181811067ffffffffffffffff82111715612e0057612dff612f3b565b5b80604052505050565b6000612e1482612cda565b9150617fff821415612e2957612e28612eae565b5b600182019050919050565b6000612e3f82612d11565b91507fffffffffffffffffffffffffffffffffffffffffffffffffffffffffffffffff821415612e7257612e71612eae565b5b600182019050919050565b6000612e8882612d11565b9150612e9383612d11565b925082612ea357612ea2612edd565b5b828206905092915050565b7f4e487b7100000000000000000000000000000000000000000000000000000000600052601160045260246000fd5b7f4e487b7100000000000000000000000000000000000000000000000000000000600052601260045260246000fd5b7f4e487b7100000000000000000000000000000000000000000000000000000000600052602260045260246000fd5b7f4e487b7100000000000000000000000000000000000000000000000000000000600052604160045260246000fd5b6000601f19601f8301169050919050565b7f4552433732313a207472616e7366657220746f206e6f6e20455243373231526560008201527f63656976657220696d706c656d656e7465720000000000000000000000000000602082015250565b7f4552433732313a207472616e7366657220746f20746865207a65726f2061646460008201527f7265737300000000000000000000000000000000000000000000000000000000602082015250565b7f4552433732313a20617070726f766520746f2063616c6c657200000000000000600082015250565b7f4552433732313a206f70657261746f7220717565727920666f72206e6f6e657860008201527f697374656e7420746f6b656e0000000000000000000000000000000000000000602082015250565b7f4f6e6c7920746f6b656e49642030206578697374730000000000000000000000600082015250565b7f4c617465737420617661696c61626c652070726963652066726f6d207072696360008201527f6520666565642068617320616c7265616479206265656e2073657420666f722060208201527f7468652064617900000000000000000000000000000000000000000000000000604082015250565b7f4552433732313a20617070726f76652063616c6c6572206973206e6f74206f7760008201527f6e6572206e6f7220617070726f76656420666f7220616c6c0000000000000000602082015250565b7f4552433732313a2062616c616e636520717565727920666f7220746865207a6560008201527f726f206164647265737300000000000000000000000000000000000000000000602082015250565b7f4552433732313a206f776e657220717565727920666f72206e6f6e657869737460008201527f656e7420746f6b656e0000000000000000000000000000000000000000000000602082015250565b7f4552433732313a20617070726f76656420717565727920666f72206e6f6e657860008201527f697374656e7420746f6b656e0000000000000000000000000000000000000000602082015250565b7f4552433732313a207472616e73666572206f6620746f6b656e2074686174206960008201527f73206e6f74206f776e0000000000000000000000000000000000000000000000602082015250565b7f4552433732313a20617070726f76616c20746f2063757272656e74206f776e6560008201527f7200000000000000000000000000000000000000000000000000000000000000602082015250565b7f4552433732313a207472616e736665722063616c6c6572206973206e6f74206f60008201527f776e6572206e6f7220617070726f766564000000000000000000000000000000602082015250565b61336181612c90565b811461336c57600080fd5b50565b61337881612ca2565b811461338357600080fd5b50565b61338f81612cae565b811461339a57600080fd5b50565b6133a681612ce7565b81146133b157600080fd5b50565b6133bd81612d11565b81146133c857600080fd5b5056fea2646970667358221220376828f34e86fe13a289f0b5e3638c15af04b1603a2495b1c3fb0f75d9a3e86564736f6c63430008040033",
  "linkReferences": {},
  "deployedLinkReferences": {}
}